:100000000C949D150C94C5150C94C5150C94C51530
:100010000C94C5150C94C5150C94C5150C94C515F8
:100020000C94C5150C94AF270C94C5150C94C515EC
:100030000C94C5150C94C5150C94C5150C94C515D8
:100040000C941E2C0C94C5150C94392F0C94C515CA
:100050000C946F2E0C94A12E0C94C5150C94C51500
:100060000C94A9290C94C5150C94902A0C94C515D0
:100070000C94C5150C94C5150C94C5158321E92164
:10008000BF21A7210C220C2279210C2279210C22DC
:100090007921792179210C227921792133223E227B
:1000A00049228622C322CE22F722FF5D7572737227
:1000B0007373727372737372737373737373737313
:1000C0007373737373737373737373737373737300
:1000D00073737373737373737373737373737373F0
:1000E00073737373737373737373737373737373E0
:1000F00073737373737373737373737373737373D0
:1001000073737373737373737373737373737373BF
:1001100073737373737373737373737373737373AF
:10012000737373737373737373737373737373739F
:10013000737373737373737373737373737373738F
:10014000737373737373737373737373737373737F
:10015000737373737373737373737373737373736F
:10016000737373737373737373737373737373735F
:10017000737373737373737373737373737373734F
:10018000737373737373737373737373737373733F
:100190007373737373737373737373737372737330
:1001A0007273727373727372755D00A28A8D8C8D17
:1001B0008C8C8D8C8D8C8C8D8C8C8C8C8C8C8C8C7C
:1001C0008C8C8C8C8C8C8C8C8C8C8C8C8C8C8C8C6F
:1001D0008C8C8C8C8C8C8C8C8C8C8C8C8C8C8C8C5F
:1001E0008C8C8C8C8C8C8C8C8C8C8C8C8C8C8C8C4F
:1001F0008C8C8C8C8C8C8C8C8C8C8C8C8C8C8C8C3F
:100200008C8C8C8C8C8C8C8C8C8C8C8C8C8C8C8C2E
:100210008C8C8C8C8C8C8C8C8C8C8C8C8C8C8C8C1E
:100220008C8C8C8C8C8C8C8C8C8C8C8C8C8C8C8C0E
:100230008C8C8C8C8C8C8C8C8C8C8C8C8C8C8C8CFE
:100240008C8C8C8C8C8C8C8C8C8C8C8C8C8C8C8CEE
:100250008C8C8C8C8C8C8C8C8C8C8C8C8C8C8C8CDE
:100260008C8C8C8C8C8C8C8C8C8C8C8C8C8C8C8CCE
:100270008C8C8C8C8C8C8C8C8C8C8C8C8C8C8C8CBE
:100280008C8C8C8C8C8C8C8C8C8C8C8C8C8C8C8CAE
:100290008C8C8C8C8C8C8C8C8C8C8C8C8C8D8C8C9D
:1002A0008C8C8D8C8C8D8C8D8AA27F7E7E7D7D7CCE
:1002B0007C7C7B7B7A7A79797878777776767574B7
:1002C000747473727271717070706F6F6E6E6D6C2A
:1002D0006C6B6B6B6A6A696868676766666565649C
:1002E000646463636261616060605F5F5E5E5D5D08
:1002F0005C5C5B5B5A5A5959585857575656555576
:10030000545453535252515150504F4F4E4E4D4DE5
:100310004C4C4B4A4A494948484747474646454559
:10032000444343424241414140403F3F3E3D3D3CCA
:100330003C3C3B3B3A393939383837373636353536
:100340003434333332313130302F2F2E2E2D2D2DAA
:100350002C2C2B2B2A2A2929282827272625252417
:10036000242423232222212020201F1F1E1E1D1C87
:100370001C1B1B1B1A1A19181818171716161515F7
:10038000141413131211111010100F0F0E0E0D0D67
:100390000C0C0B0B0A0909090808070706060505D6
:1003A0000404030302020101FFFFFEFEFDFDFCFB4E
:1003B000FBFAFAF9F9F9F8F8F7F7F6F6F5F5F4F3C8
:1003C000F3F2F2F2F1F1F0F0EFEFEEEEEDEDECEC36
:1003D000EBEBEAEAE9E9E8E8E7E7E6E6E5E5E4E4A5
:1003E000E3E3E2E2E1E1E0DFDFDEDEDDDDDCDCDB1A
:1003F000DBDADAD9D9D8D8D8D7D7D6D5D5D4D4D38B
:10040000D3D2D2D1D1D0D0D0CFCFCECECDCDCCCCF7
:10041000CBCBCAC9C9C8C8C7C7C7C6C6C5C5C4C467
:10042000C3C3C2C2C1C1C0C0BFBFBEBEBDBCBCBBD6
:10043000BBBBBABAB9B8B8B7B7B7B6B6B5B5B4B446
:10044000B3B2B2B1B1B1B0B0AFAEAEADADACACACB9
:10045000ABABAAAAA9A9A8A8A7A7A6A6A5A5A4A424
:10046000A3A2A2A1A1A1A0A09F9E9E9D9D9C9C9C99
:100470009B9A9A999998989797969695959494930C
:1004800093929292919190908F8F8E8E8D8D8C8C75
:100490008B8B8A8A898988888787868585848483E7
:1004A0008382828281818080808081818282828336
:1004B0008384848585868787888889898A8A8B8BC7
:1004C0008C8C8D8D8E8E8F8F909091919292929335
:1004D000939494959596969797989899999A9A9BAC
:1004E0009C9C9C9D9D9E9E9FA0A0A1A1A1A2A2A319
:1004F000A4A4A5A5A6A6A7A7A8A8A9A9AAAAABAB84
:10050000ACACACADADAEAEAFB0B0B1B1B1B2B2B3F8
:10051000B4B4B5B5B6B6B7B7B7B8B8B9BABABBBB65
:10052000BBBCBCBDBEBEBFBFC0C0C1C1C2C2C3C3D5
:10053000C4C4C5C5C6C6C7C7C7C8C8C9C9CACBCB46
:10054000CCCCCDCDCECECFCFD0D0D0D1D1D2D2D3B6
:10055000D3D4D4D5D5D6D7D7D8D8D8D9D9DADADB29
:10056000DBDCDCDDDDDEDEDFDFE0E1E1E2E2E3E398
:10057000E4E4E5E5E6E6E7E7E8E8E9E9EAEAEBEB03
:10058000ECECEDEDEEEEEFEFF0F0F1F1F2F2F2F374
:10059000F3F4F5F5F6F6F7F7F8F8F9F9F9FAFAFBE6
:1005A000FBFCFDFDFEFEFFFF000001010202030354
:1005B000040405050606070708080909090A0B0BC4
:1005C0000C0C0D0D0E0E0F0F101010111112131335
:1005D0001414151516161717181818191A1A1B1BA4
:1005E0001B1C1C1D1E1E1F1F202020212222232316
:1005F0002424242525262727282829292A2A2B2B85
:100600002C2C2D2D2D2E2E2F2F30303131323333F7
:10061000343435353636373738383939393A3B3B63
:100620003C3C3C3D3D3E3F3F4040414141424243D6
:10063000434445454646474747484849494A4A4B47
:100640004C4C4D4D4E4E4F4F5050515152525353B2
:100650005454555556565757585859595A5A5B5B22
:100660005C5C5D5D5E5E5F5F606060616162636394
:100670006464646565666667676868696A6A6B6B07
:100680006B6C6C6D6E6E6F6F707070717172727377
:100690007474747576767777787879797A7A7B7BE3
:1006A0007C7C7C7D7D7E7E7F00010204050708093D
:1006B0000B0C0E0F101213151617191A1B1D1E20E6
:1006C000212224252628292A2C2D2E2F313233357C
:1006D0003637383A3B3C3D3E40414243444546472D
:1006E000494A4B4C4D4E4F50515253545556575802
:1006F00059595A5B5C5D5E5E5F606162626364640F
:1007000065666667686869696A6A6B6B6C6C6D6D53
:100710006E6E6F6F6F7070707071717171727272D6
:1007200072727272737373737373737373727272A0
:100730007272727271717171707070706F6F6F6EB2
:100740006E6D6D6C6C6B6B6A6A696968686766660A
:1007500065646463626261605F5E5E5D5C5B5A59A2
:10076000595857565554535251504F4E4D4C4B4A71
:100770004947464544434241403E3D3C3B3A383779
:1007800036353332312F2E2D2C2A292826252422A6
:1007900021201E1D1C1A191716151312100F0E0CEE
:1007A0000B0908070504020100FEFDFBFAF8F7F645
:1007B000F4F3F1F0EFEDECEAE9E8E6E5E4E2E1DF9D
:1007C000DEDDDBDAD9D7D6D5D3D2D1D0CECDCCCAE7
:1007D000C9C8C7C5C4C3C2C1BFBEBDBCBBBAB9B816
:1007E000B6B5B4B3B2B1B0AFAEADACABAAA9A8A721
:1007F000A6A6A5A4A3A2A1A1A09F9E9D9D9C9B9BF4
:100800009A9999989797969695959494939392928E
:1008100091919090908F8F8F8F8E8E8E8E8D8D8DEB
:100820008D8D8D8D8C8C8C8C8C8C8C8C8C8C8D8D02
:100830008D8D8D8D8E8E8E8E8F8F8F8F90909091CF
:100840009192929393949495959696979798999957
:100850009A9B9B9C9D9D9E9FA0A1A1A2A3A4A5A69F
:10086000A6A7A8A9AAABACADAEAFB0B1B2B3B4B5B0
:10087000B6B8B9BABBBCBDBEC0C1C2C3C4C5C7C887
:10088000C9CACCCDCED0D1D2D3D5D6D7D9DADBDD3B
:10089000DEDFE1E2E4E5E6E8E9EAECEDEFF0F1F3D2
:1008A000F4F6F7F8FAFBFDFE002F59797F7F7F7F82
:1008B0007F7874757A7F7F7F7F7F7F7C7A7A7C7F79
:1008C0007F7F7F7F7F7E7C7C7D7F7F7F7F7F7F7F41
:1008D0007D7D7D7E7F7F7F7F7F7F7E7D7D7E7F7F35
:1008E0007F7F7F7F7E7E7E7E7F7F7F7F7F7F7F7E1D
:1008F0007E7E7F7F7F7F7F7F7F7E7E7E7F7F7F7F0D
:100900007F7F7F7E7E7E7F7F7F7F7F7F7F7F7E7EFC
:100910007F7F7F7F7F7F7F7F7E7E7F7F7F7F7F7FE9
:100920007F7F7F7E7F7F7F7F7F7F7F7F7F7F7F7FD8
:100930007F7F7F7F7F7F7F7F7F7F7F7F7F7F7F7FC7
:100940007F7F7F7F7F7F7F7F7F7F7F7F7F7F7F7FB7
:100950007F7F7F7F7F7F7F7F7F7F7F7F7F7F7F7FA7
:100960007F7F7F7F7F7F7F7F7F7F7F7F7F7F7F7F97
:100C30007F7F7F7F7F7F7F7E7E7F7F7F7F7F7F7FC6
:100C40007F7E7E7F7F7F7F7F7F7F7F7E7E7F7F7FB8
:100C50007F7F7F7F7F7E7E7E7F7F7F7F7F7F7F7EA8
:100C60007E7E7F7F7F7F7F7F7F7E7E7E7E7F7F7F9A
:100C70007F7F7F7E7D7D7E7F7F7F7F7F7F7E7D7D8F
:100C80007D7F7F7F7F7F7F7F7D7C7C7E7F7F7F7F7F
:100C90007F7F7C7A7A7C7F7F7F7F7F7F7A75747895
:100CA0007F7F7F7F7F79592F00D0A68680808080CC
:100CB00080878B8A85808080808080838585838003
:100CC000808080808081838382808080808080801B
:100CD0008282828180808080808081828281808007
:100CE00080808080818181818080808080808081FF
:100CF00081818080808080808081818180808080EF
:100D000080808080818180808080808080808181DF
:100D100080808080808080808081808080808080D2
:100D200080808081808080808080808080808080C2
:100D300080808080808080808080808080808080B3
:100D400080808080808080808080808080808080A3
:100D50008080808080808080808080808080808093
:100D60008080808080808080808080808080808083
:1010200080808080808080808080808080818080BF
:1010300080808080808080818180808080808080AE
:10104000808181808080808080808081818180809B
:10105000808080808081818180808080808080818C
:10106000818180808080808080818181818080807A
:101070008080808182828180808080808081828265
:101080008280808080808080828383818080808055
:10109000808083858583808080808080858A8B871F
:1010A000808080808086A6D08080808080808080C4
:1010B0008181818181818181828282828282828218
:1010C00082838383838383838484848484848484E9
:1010D00084858585858585858686868686868686B9
:1010E0008787878787878787888888888888888888
:1010F00089898989898989898A8A8A8A8A8A8A8A58
:101100008A8B8B8B8B8B8B8B8B8C8C8C8C8C8C8C29
:101110008D8D8D8D8D8D8D8D8D8E8E8E8E8E8E8EF8
:101120008F8F8F8F8F8F8F8F9090909090909090C7
:101130009191919191919191929292929292929297
:101140009393939393939393949494949494949467
:101150009495959595959595969696969696969638
:101160009697979797979797979898989898989809
:101170009899999999999999999A9A9A9A9A9A9AD9
:101180009B9B9B9B9B9B9B9B9B9C9C9C9C9C9C9CA8
:101190009C9D9D9D9D9D9D9D9E9E9E9E9E9E9E9E78
:1011A0009F9F9F9F9F9F9F9F9FA0A0A0A0A0A0A048
:1011B000A1A1A1A1A1A1A1A1A2A2A2A2A2A2A2A217
:1011C000A3A3A3A3A3A3A3A3A4A4A4A4A4A4A4A4E7
:1011D000A4A5A5A5A5A5A5A5A6A6A6A6A6A6A6A6B8
:1011E000A7A7A7A7A7A7A7A7A8A8A8A8A8A8A8A887
:1011F000A8A9A9A9A9A9A9A9A9AAAAAAAAAAAAAA59
:10120000ABABABABABABABABACACACACACACACAC26
:10121000ADADADADADADADADAEAEAEAEAEAEAEAEF6
:10122000AFAFAFAFAFAFAFAFAFB0B0B0B0B0B0B0C7
:10123000B0B1B1B1B1B1B1B1B2B2B2B2B2B2B2B297
:10124000B3B3B3B3B3B3B3B3B4B4B4B4B4B4B4B466
:10125000B5B5B5B5B5B5B5B5B6B6B6B6B6B6B6B636
:10126000B7B7B7B7B7B7B7B7B8B8B8B8B8B8B8B806
:10127000B8B9B9B9B9B9B9B9BABABABABABABABAD7
:10128000BBBBBBBBBBBBBBBBBCBCBCBCBCBCBCBCA6
:10129000BDBDBDBDBDBDBDBDBDBEBEBEBEBEBEBE77
:1012A000BFBFBFBFBFBFBFBFC0C0C0C0C0C0C0C046
:1012B000C1C1C1C1C1C1C1C1C1C2C2C2C2C2C2C217
:1012C000C2C3C3C3C3C3C3C3C4C4C4C4C4C4C4C4E7
:1012D000C4C5C5C5C5C5C5C5C5C6C6C6C6C6C6C6B8
:1012E000C7C7C7C7C7C7C7C7C8C8C8C8C8C8C8C886
:1012F000C9C9C9C9C9C9C9C9CACACACACACACACA56
:10130000CBCBCBCBCBCBCBCBCBCCCCCCCCCCCCCC26
:10131000CCCDCDCDCDCDCDCDCDCECECECECECECEF7
:10132000CFCFCFCFCFCFCFCFD0D0D0D0D0D0D0D0C5
:10133000D1D1D1D1D1D1D1D1D2D2D2D2D2D2D2D295
:10134000D2D3D3D3D3D3D3D3D4D4D4D4D4D4D4D466
:10135000D4D5D5D5D5D5D5D5D6D6D6D6D6D6D6D636
:10136000D6D7D7D7D7D7D7D7D8D8D8D8D8D8D8D806
:10137000D9D9D9D9D9D9D9D9D9DADADADADADADAD6
:10138000DADBDBDBDBDBDBDBDCDCDCDCDCDCDCDCA6
:10139000DCDDDDDDDDDDDDDDDDDEDEDEDEDEDEDE77
:1013A000DFDFDFDFDFDFDFDFDFE0E0E0E0E0E0E046
:1013B000E1E1E1E1E1E1E1E1E2E2E2E2E2E2E2E215
:1013C000E2E3E3E3E3E3E3E3E4E4E4E4E4E4E4E4E6
:1013D000E5E5E5E5E5E5E5E5E6E6E6E6E6E6E6E6B5
:1013E000E7E7E7E7E7E7E7E7E7E8E8E8E8E8E8E886
:1013F000E9E9E9E9E9E9E9E9EAEAEAEAEAEAEAEA55
:10140000EBEBEBEBEBEBEBEBECECECECECECECEC24
:10141000ECEDEDEDEDEDEDEDEDEEEEEEEEEEEEEEF6
:10142000EEEFEFEFEFEFEFEFF0F0F0F0F0F0F0F0C5
:10143000F0F1F1F1F1F1F1F1F1F2F2F2F2F2F2F296
:10144000F3F3F3F3F3F3F3F3F4F4F4F4F4F4F4F464
:10145000F4F5F5F5F5F5F5F5F6F6F6F6F6F6F6F635
:10146000F7F7F7F7F7F7F7F7F8F8F8F8F8F8F8F804
:10147000F8F9F9F9F9F9F9F9F9FAFAFAFAFAFAFAD6
:10148000FBFBFBFBFBFBFBFBFCFCFCFCFCFCFCFCA4
:10149000FDFDFDFDFDFDFDFDFDFEFEFEFEFEFEFE75
:1014A000FFFFFFFFFFFFFFFF000000000000000044
:1014B0000001010101010101010202020202020216
:1014C00003030303030303030404040404040404E4
:1014D00005050505050505050606060606060606B4
:1014E0000707070707070707070808080808080885
:1014F00009090909090909090A0A0A0A0A0A0A0A54
:101500000B0B0B0B0B0B0B0B0B0C0C0C0C0C0C0C24
:101510000D0D0D0D0D0D0D0D0D0E0E0E0E0E0E0EF4
:101520000F0F0F0F0F0F0F0F0F10101010101010C4
:101530001011111111111111121212121212121294
:101540001313131313131313141414141414141463
:101550001515151515151515151616161616161634
:101560001717171717171717181818181818181803
:101570001919191919191919191A1A1A1A1A1A1AD4
:101580001A1B1B1B1B1B1B1B1C1C1C1C1C1C1C1CA4
:101590001D1D1D1D1D1D1D1D1E1E1E1E1E1E1E1E73
:1015A0001F1F1F1F1F1F1F1F1F2020202020202044
:1015B0002121202121222121202222222222222215
:1015C00023232323232323232424242424242424E3
:1015D00024252525252525252626262626262626B4
:1015E0002727272727272727282828282828282883
:1015F00029292929292929292A2A2A2A2A2A2A2A53
:101600002A2B2B2B2B2B2B2B2B2C2C2C2C2C2C2C24
:101610002D2D2D2D2D2D2D2D2E2E2E2E2E2E2E2EF2
:101620002E2F2F2F2F2F2F2F2F30303030303030C4
:101630003131313131313131323232323232323292
:101640003333333333333333333434343434343463
:101650003535353535353535363636363636363632
:101660003637373737373737373838383838383804
:101670003939393939393939393A3A3A3A3A3A3AD3
:101680003A3B3B3B3B3B3B3B3C3C3C3C3C3C3C3CA3
:101690003D3D3D3D3D3D3D3D3E3E3E3E3E3E3E3E72
:1016A0003F3F3F3F3F3F3F3F404040404040404042
:1016B0004141414141414141424242424242424212
:1016C00043434343434343434444444444444444E2
:1016D00045454545454545454646464646464646B2
:1016E0004647474747474747484848484848484883
:1016F00049494949494949494A4A4A4A4A4A4A4A52
:101700004A4B4B4B4B4B4B4B4C4C4C4C4C4C4C4C22
:101710004C4D4D4D4D4D4D4D4D4E4E4E4E4E4E4EF3
:101720004F4F4F4F4F4F4F4F5050505050505050C1
:101730005051515151515151525252525252525292
:101740005253535353535353545454545454545462
:101750005455555555555555565656565656565632
:101760005657575757575757585858585858585802
:101770005859595959595959595A5A5A5A5A5A5AD3
:101780005B5B5B5B5B5B5B5B5C5C5C5C5C5C5C5CA1
:101790005D5D5D5D5D5D5D5D5E5E5E5E5E5E5E5E71
:1017A0005F5F5F5F5F5F5F5F606060606060606041
:1017B0006161616161616161616262626262626212
:1017C00063636363636363636364646464646464E2
:1017D00065656565656565656566666666666666B2
:1017E0006767676767676767686868686868686881
:1017F00069696969696969696A6A6A6A6A6A6A6A51
:101800006B6B6B6B6B6B6B6B6C6C6C6C6C6C6C6C20
:101810006D6D6D6D6D6D6D6D6E6E6E6E6E6E6E6EF0
:101820006F6F6F6F6F6F6F6F7070707070707070C0
:101830007171717171717171717272727272727291
:101840007373737373737373747474747474747460
:101850007475757575757575757676767676767632
:101860007777777777777777777878787878787801
:101870007879797979797979797A7A7A7A7A7A7AD2
:101880007B7B7B7B7B7B7B7B7C7C7C7C7C7C7C7CA0
:101890007D7D7D7D7D7D7D7D7D7E7E7E7E7E7E7E71
:1018A0007F7F7F7F7F7F7F7F00000000010101013C
:1018B00002020202030303030404040404050505F1
:1018C00005060606070707070808080809090909A1
:1018D0000A0A0A0A0B0B0B0B0B0C0C0C0D0D0D0D51
:1018E0000E0E0E0E0F0F0F0F101010101111111100
:1018F00011121212121313131314141414151515B4
:101900001516161616171717181818181919191961
:101910001A1A1A1A1B1B1B1B1C1C1C1C1D1D1D1D0F
:101920001E1E1E1E1F1F1F1F2020202020212120C1
:10193000222222222323232324242424252525256F
:101940002626262627272727282828282829292920
:10195000292A2A2A2A2B2B2B2C2C2C2C2D2D2D2DD1
:101960002E2E2E2E2F2F2F2F30303030313131317F
:101970003132323233333333343434343435353531
:1019800036363636363737373838383838393939E1
:101990003A3A3A3A3B3B3B3B3C3C3C3C3C3D3D3D90
:1019A0003E3E3E3E3E3F3F3F3F4040404141414141
:1019B00041424242424343434444444445454545F1
:1019C000464646464747474748484848494949499F
:1019D000494A4A4A4A4B4B4B4C4C4C4C4D4D4D4D51
:1019E0004D4E4E4E4E4F4F4F505050505151515101
:1019F00051525252535353535454545455555555B0
:101A00005556565656575757585858585859595961
:101A10005A5A5A5A5B5B5B5B5C5C5C5C5C5D5D5D0F
:101A20005E5E5E5E5F5F5F5F5F60606061616161BF
:101A3000626262626363636363646464656565656F
:101A40006566666666676767676868686969696921
:101A5000696A6A6A6A6B6B6B6C6C6C6C6D6D6D6DD0
:101A60006E6E6E6E6F6F6F6F70707070707171717F
:101A70007172727272737373737474747475757532
:101A800075767676777777777878787878797979E0
:101A90007A7A7A7A7B7B7B7B7C7C7C7C7D7D7D7D8E
:101AA0007D7E7E7E7F7F7F7F7F7F7F7E7E7E7E7E50
:101AB0007D7D7D7D7C7C7C7C7B7B7B7B7A7A7A7A6E
:101AC000797979797878787877777777767676769E
:101AD00075757575747474747373737372727271CF
:101AE000717171707070706F6F6F6F6E6E6E6E6D02
:101AF0006D6D6D6D6C6C6C6C6B6B6B6B6A6A6A692F
:101B0000696969686868686867676766666666665F
:101B10006565656564646463636363626262626190
:101B200061616160606060605F5F5F5E5E5E5E5DC0
:101B30005D5D5D5C5C5C5C5B5B5B5B5B5A5A5A5AEF
:101B4000595959595858585857575757565656561D
:101B5000555555545454545453535353525252514F
:101B6000515151505050504F4F4F4F4E4E4E4E4E80
:101B70004D4D4D4D4C4C4C4C4B4B4B4A4A4A4A4AAE
:101B800049494949484848484747474746464645DE
:101B9000454545454444444443434343424242410E
:101BA000414141414040403F3F3F3F3F3E3E3E3E3E
:101BB0003D3D3D3C3C3C3C3C3B3B3B3B3A3A3A3A6E
:101BC000393939383838383837373737363636369E
:101BD00035353535343434333333333232323232CF
:101BE000313131313030302F2F2F2F2E2E2E2E2EFF
:101BF0002D2D2D2D2C2C2C2B2B2B2B2A2A2A2A2930
:101C0000292929292828282827272726262626265D
:101C1000252525242424242423232322222222218F
:101C200021202121202020201F1F1F1F1E1E1E1EBD
:101C30001D1D1D1D1C1C1C1B1B1B1B1B1A1A1A19EE
:101C4000191919191818181817171717161616161C
:101C5000151515151414141313131313121212124D
:101C600011111110101010100F0F0F0F0E0E0E0E7D
:101C70000D0D0D0D0C0C0C0C0B0B0B0B0A0A0A0AAC
:101C800009090909080808080707070606060605DE
:101C9000050505050404040403030303020202010D
:101CA0000101010100000000FFFFFFFEFEFEFEFD3E
:101CB000FDFDFDFCFCFCFCFBFBFBFBFAFAFAFAFA6F
:101CC000F9F9F9F8F8F8F8F8F7F7F7F7F6F6F6F59E
:101CD000F5F5F5F4F4F4F4F4F3F3F3F3F2F2F2F1CE
:101CE000F1F1F1F1F0F0F0F0EFEFEFEEEEEEEEEDFE
:101CF000EDEDEDEDECECECEBEBEBEBEBEAEAEAEA2D
:101D0000E9E9E9E9E8E8E8E7E7E7E7E7E6E6E6E65C
:101D1000E5E5E5E4E4E4E4E3E3E3E3E3E2E2E2E18E
:101D2000E1E1E1E0E0E0E0E0DFDFDFDFDEDEDEDDBD
:101D3000DDDDDDDCDCDCDCDCDBDBDBDADADADAD9EE
:101D4000D9D9D9D8D8D8D8D8D7D7D7D7D6D6D6D51D
:101D5000D5D5D5D4D4D4D4D3D3D3D3D2D2D2D2D14F
:101D6000D1D1D1D0D0D0D0D0CFCFCFCFCECECECE7C
:101D7000CDCDCDCDCCCCCCCBCBCBCBCACACACAC9AE
:101D8000C9C9C9C8C8C8C8C7C7C7C7C6C6C6C6C5DF
:101D9000C5C5C5C4C4C4C4C4C3C3C3C3C2C2C2C10D
:101DA000C1C1C1C1C0C0C0C0BFBFBFBFBEBEBEBD3C
:101DB000BDBDBDBDBCBCBCBCBBBBBBBBBABABABA6B
:101DC000B9B9B9B9B8B8B8B8B7B7B7B7B6B6B6B69B
:101DD000B5B5B5B5B4B4B4B4B3B3B3B3B2B2B2B2CB
:101DE000B1B1B1B1B0B0B0B0AFAFAFAEAEAEAEAEFC
:101DF000ADADADADACACACABABABABAAAAAAAAA92E
:101E0000A9A9A9A8A8A8A8A7A7A7A7A7A6A6A6A55D
:101E1000A5A5A5A5A4A4A4A3A3A3A3A2A2A2A2A18D
:101E2000A1A1A1A1A0A0A0A09F9F9F9F9E9E9E9EBA
:101E30009D9D9D9D9C9C9C9C9B9B9B9B9A9A9A9AEA
:101E4000999999989898989797979797969696961C
:101E5000959595949494949393939393929292924C
:101E6000919191919090908F8F8F8F8F8E8E8E8E7B
:101E70008D8D8D8C8C8C8C8B8B8B8B8A8A8A8A89AE
:101E800089898989888888888787878686868686DB
:101E9000858585858484848483838382828282810C
:101EA000818181818080808080808080818181812A
:101EB00081828282838383838384848485858585EC
:101EC000868686868787878787888888888989899C
:101ED0008A8A8A8A8A8B8B8B8C8C8C8C8D8D8D8D4B
:101EE0008D8E8E8E8E8F8F8F9090909091919191FC
:101EF00092929292939393939494949495959595AA
:101F0000969696969797979797989898999999995A
:101F10009A9A9A9A9A9B9B9B9C9C9C9C9D9D9D9D0A
:101F20009E9E9E9E9F9F9F9F9FA0A0A0A1A1A1A1BA
:101F3000A1A2A2A2A2A3A3A3A4A4A4A4A4A5A5A56C
:101F4000A5A6A6A6A7A7A7A7A7A8A8A8A9A9A9A91B
:101F5000AAAAAAAAAAABABABACACACACACADADADCB
:101F6000AEAEAEAEAEAFAFAFAFB0B0B0B1B1B1B17B
:101F7000B2B2B2B2B2B3B3B3B3B4B4B4B5B5B5B52B
:101F8000B6B6B6B6B6B7B7B7B7B8B8B8B9B9B9B9DB
:101F9000BABABABABBBBBBBBBCBCBCBCBDBDBDBD89
:101FA000BEBEBEBEBEBFBFBFC0C0C0C0C0C1C1C13B
:101FB000C2C2C2C2C2C3C3C3C3C4C4C4C5C5C5C5EB
:101FC000C6C6C6C6C6C7C7C7C7C8C8C8C8C9C9C99C
:101FD000C9CACACACBCBCBCBCBCCCCCCCCCDCDCD4C
:101FE000CDCECECECFCFCFCFCFD0D0D0D1D1D1D1FB
:101FF000D2D2D2D2D2D3D3D3D3D4D4D4D4D5D5D5AC
:10200000D5D6D6D6D7D7D7D7D8D8D8D8D8D9D9D95A
:10201000D9DADADADBDBDBDBDBDCDCDCDCDDDDDD0B
:10202000DEDEDEDEDEDFDFDFE0E0E0E0E1E1E1E1B9
:10203000E1E2E2E2E3E3E3E3E4E4E4E4E4E5E5E56A
:10204000E5E6E6E6E6E7E7E7E8E8E8E8E9E9E9E91A
:10205000E9EAEAEAEBEBEBEBECECECECEDEDEDEDC9
:10206000EDEEEEEEEFEFEFEFF0F0F0F0F1F1F1F179
:10207000F2F2F2F2F3F3F3F3F3F4F4F4F5F5F5F529
:10208000F5F6F6F6F7F7F7F7F8F8F8F8F9F9F9F9D9
:10209000FAFAFAFAFBFBFBFBFBFCFCFCFDFDFDFD89
:1020A000FEFEFEFEFFFFFFFF000000010101020235
:1020B00003030304040505050606070707080809C6
:1020C00009090A0A0A0B0B0C0C0C0D0D0E0E0E0F53
:1020D0000F101010111112121213131314141515DE
:1020E00015161617171718181819191A1A1A1B1B6C
:1020F0001C1C1C1D1D1D1E1E1F1F1F2020202121FA
:102100002222222323242424252525262627272787
:1021100028282829292A2A2A2B2B2B2C2C2C2D2D18
:102120002E2E2E2F2F2F30303031313232323333AA
:10213000333434343535363636373737383838393E
:1021400039393A3A3A3B3B3B3C3C3D3D3D3E3E3ED5
:102150003F3F3F404040414141424242434343446C
:102160004444454545464646474747484848494907
:10217000494A4A4A4A4B4B4B4C4C4C4D4D4D4E4EA6
:102180004E4F4F4F4F505050515151525252535346
:1021900053535454545555555556565657575757EB
:1021A000585858595959595A5A5A5B5B5B5B5C5C91
:1021B0005C5C5D5D5D5E5E5E5E5F5F5F5F6060603C
:1021C00060616161616262626263636363646464EB
:1021D000646565656566666666676767676768689C
:1021E000686869696969696A6A6A6A6B6B6B6B6B53
:1021F0006C6C6C6C6C6D6D6D6D6D6E6E6E6E6E6F0D
:102200006F6F6F6F707070707071717171717172CA
:10221000727272727373737373737474747474748C
:102220007575757575757576767676767677777752
:10223000777777777778787878787878797979791F
:10224000797979797A7A7A7A7A7A7A7A7A7B7B7BEF
:102250007B7B7B7B7B7B7B7C7C7C7C7C7C7C7C7CC5
:102260007C7C7D7D7D7D7D7D7D7D7D7D7D7D7D7E9F
:102270007E7E7E7E7E7E7E7E7E7E7E7E7E7E7E7E7E
:102280007F7F7F7F7F7F7F7F7F7F7F7F7F7F7F7F5E
:102290007F7F7F7F7F7F7F7F7F7F7F7F7F7F7F7F4E
:1022A0007F7F7F7F7F7F7F7F7F7F7F7F7F7F7F7F3E
:1022B0007F7F7F7F7F7F7F7F7F7F7F7F7F7F7F7F2E
:1022C0007F7F7F7F7F7F7F7F7F7F7F7F7F7F7F7F1E
:1022D0007F7E7E7E7E7E7E7E7E7E7E7E7E7E7E7E1D
:1022E0007E7E7D7D7D7D7D7D7D7D7D7D7D7D7D7C1D
:1022F0007C7C7C7C7C7C7C7C7C7C7B7B7B7B7B7B24
:102300007B7B7B7B7A7A7A7A7A7A7A7A7A7979792C
:10231000797979797978787878787878777777773C
:102320007777777676767676767675757575757550
:102330007574747474747473737373737372727268
:10234000727271717171717170707070706F6F6F86
:102350006F6F6E6E6E6E6E6D6D6D6D6D6C6C6C6CA8
:102360006C6B6B6B6B6B6A6A6A6A6A6969696968CC
:1023700068686867676767676666666665656565F6
:102380006464646463636363626262626161616125
:10239000606060605F5F5F5F5E5E5E5E5D5D5D5C56
:1023A0005C5C5C5B5B5B5B5A5A5A5959595958588B
:1023B00058575757575656565555555554545453C4
:1023C0005353535252525151515050504F4F4F4FFF
:1023D0004E4E4E4D4D4D4C4C4C4B4B4B4A4A4A4A3F
:1023E0004949494848484747474646464545454480
:1023F00044444343434242424141414040403F3FC5
:102400003F3E3E3E3D3D3D3C3C3B3B3B3A3A3A390C
:102410003939383838373737363636353534343455
:1024200033333332323231313030302F2F2F2E2EA2
:102430002E2D2D2C2C2C2B2B2B2A2A2A29292828EF
:10244000282727272626252525242424232322223E
:102450002222212120201F1F1F1E1E1D1D1D1C1C8E
:102460001C1B1B1A1A1A19191818181717171616E1
:102470001515151414131313121212111110101034
:102480000F0F0E0E0E0D0D0C0C0C0B0B0A0A0A0989
:1024900009090808070707060605050504040303DC
:1024A0000302020101010000FFFFFFFEFEFEFDFD31
:1024B000FCFCFCFBFBFAFAFAF9F9F8F8F8F7F7F686
:1024C000F6F6F5F5F5F4F4F3F3F3F2F2F1F1F1F0D9
:1024D000F0EFEFEFEEEEEDEDEDECECECEBEBEAEA2E
:1024E000EAE9E9E8E8E8E7E7E7E6E6E5E5E5E4E480
:1024F000E3E3E3E2E2E2E1E1E0E0E0DFDFDFDEDED2
:10250000DDDDDDDCDCDBDBDBDADADAD9D9D8D8D823
:10251000D7D7D7D6D6D6D5D5D4D4D4D3D3D3D2D271
:10252000D1D1D1D0D0D0CFCFCFCECECDCDCDCCCCC0
:10253000CCCBCBCBCACAC9C9C9C8C8C8C7C7C7C60C
:10254000C6C6C5C5C5C4C4C4C3C3C2C2C2C1C1C155
:10255000C0C0C0BFBFBFBEBEBEBDBDBDBCBCBCBB9E
:10256000BBBBBABABAB9B9B9B8B8B8B7B7B7B6B6E3
:10257000B6B5B5B5B5B4B4B4B3B3B3B2B2B2B1B124
:10258000B1B0B0B0B0AFAFAFAEAEAEADADADACAC64
:10259000ACACABABABAAAAAAAAA9A9A9A8A8A8A89F
:1025A000A7A7A7A6A6A6A6A5A5A5A4A4A4A4A3A3D9
:1025B000A3A3A2A2A2A1A1A1A1A0A0A0A09F9F9F0E
:1025C0009F9E9E9E9E9D9D9D9D9C9C9C9C9B9B9B3F
:1025D0009B9A9A9A9A99999999989898989897976E
:1025E0009797969696969695959595949494949497
:1025F00093939393939292929292919191919190BD
:10260000909090908F8F8F8F8F8E8E8E8E8E8E8DDE
:102610008D8D8D8D8C8C8C8C8C8C8B8B8B8B8B8BFC
:102620008A8A8A8A8A8A8A89898989898989888815
:102630008888888888878787878787878686868629
:102640008686868685858585858585858584848439
:102650008484848484848483838383838383838343
:102660008383828282828282828282828282828149
:10267000818181818181818181818181818181814A
:10268000808080808080808080808080808080804A
:10269000808080808080808080808080808080803A
:1026A000808080808080808080808080808080802A
:1026B000808080808080808080808080808080801A
:1026C000808080808080808080808080808080800A
:1026D00080818181818181818181818181818181EB
:1026E00081818282828282828282828282828283CB
:1026F00083838383838383838383848484848484A4
:10270000848484848585858585858585858686867A
:10271000868686868687878787878787888888884A
:10272000888888888989898989898A8A8A8A8A8A17
:102730008A8B8B8B8B8B8B8C8C8C8C8C8C8D8D8DDE
:102740008D8D8E8E8E8E8E8E8F8F8F8F8F909090A0
:10275000909091919191919292929292939393935E
:102760009394949494949595959596969696969719
:102770009797979898989898999999999A9A9A9AD0
:102780009B9B9B9B9C9C9C9C9D9D9D9D9E9E9E9E81
:102790009F9F9F9FA0A0A0A0A1A1A1A1A2A2A2A330
:1027A000A3A3A3A4A4A4A4A5A5A5A6A6A6A6A7A7DB
:1027B000A7A8A8A8A8A9A9A9AAAAAAAAABABABAC82
:1027C000ACACACADADADAEAEAEAFAFAFB0B0B0B027
:1027D000B1B1B1B2B2B2B3B3B3B4B4B4B5B5B5B5C7
:1027E000B6B6B6B7B7B7B8B8B8B9B9B9BABABABB66
:1027F000BBBBBCBCBCBDBDBDBEBEBEBFBFBFC0C001
:10280000C0C1C1C1C2C2C2C3C3C4C4C4C5C5C5C698
:10281000C6C6C7C7C7C8C8C8C9C9C9CACACBCBCB2F
:10282000CCCCCCCDCDCDCECECFCFCFD0D0D0D1D1C2
:10283000D1D2D2D3D3D3D4D4D4D5D5D5D6D6D7D755
:10284000D7D8D8D8D9D9DADADADBDBDBDCDCDDDDE6
:10285000DDDEDEDEDFDFE0E0E0E1E1E2E2E2E3E375
:10286000E3E4E4E5E5E5E6E6E7E7E7E8E8E8E9E903
:10287000EAEAEAEBEBECECECEDEDEDEEEEEFEFEF90
:10288000F0F0F1F1F1F2F2F3F3F3F4F4F5F5F5F61B
:10289000F6F6F7F7F8F8F8F9F9FAFAFAFBFBFCFCA8
:1028A000FCFDFDFEFEFEFFFF0000000076A9080013
:1028B000512D090004B90900054D0A00D3E90A00A9
:1028C000F48F0B00F63F0C0070FA0C0000C00D00F6
:1028D0004F910E00116F0F00025A1000EC521100C0
:1028E000A35A1200087213000A9A1400A6D3150006
:1028F000E91F1700ED7F1800E0F4190000801B00AD
:102900009E221D0022DE1E0004B42000D8A5220055
:1029100046B5240010E42600153429004DA72B00ED
:10292000D23F2E00DAFF3000C0E93300FFFF36004F
:102930003D453A0044BC3D0008684100AF4B4500AE
:102940008C6A490020C84D002A6852009C4E5700EE
:10295000A47F5C00B4FF610080D36700FFFF6D00BF
:102960007B8A740089787B0011D082005F978A008F
:1029700018D5920041909B0053D0A400339DAE0027
:1029800046FFB80069FFC30000A7CF00FDFFDB00D2
:10299000F414E9000BF1F60020A00501BE2E15018C
:1029A00030AA250182203701A6A04901663A5D01BF
:1029B0008CFE7101D2FE8701004E9F01FAFFB70124
:1029C000F229D20120E2ED0140400B027C5D2A0297
:1029D0004C544B0204416E024C419302CC74BA0237
:1029E00028FDE302A4FD0F03009C3E03F4FF6F03E8
:1029F000E453A40340C4DB0380801604F8BA5404F3
:102A000098A896040882DC049882260598E9740543
:102A100030FAC70548FB1F0600387D06E8FFDF06D1
:102A2000C8A748078088B70700012D08F075A908D6
:102A300030512D091004B90930054D0AA0D3E90A17
:102A4000A0F48F0B00F63F0CC06FFA0C70FFBF0DA7
:102A5000804E910EB0106F0FA0015A10E0EB521192
:102A600060A25A1220087213600A9A1440A7D31564
:102A700040E81F1700EC7F1880DFF419E0FE7F1B91
:102A8000009D221D6021DE1E4003B420C0D7A52278
:102A9000C044B5244010E426C0143429804EA72B2E
:102AA00080D23F2E00D8FF3001000002000003005A
:102AB0000400050000000102000000000000000406
:102AC00003080700000000000000000000000000F4
:102AD00000000001020408102040800102040810D8
:102AE00020408001020408102040800102040810E8
:102AF00020408002020202020202020404040404D2
:102B0000040404030303030303030301010101019C
:102B100001010100002000230026002900000022FE
:102B200000250028002B0000002100240027002A97
:102B300000009E25EA28DB29D12E11241FBECFEFED
:102B4000D0E1DEBFCDBF12E0A0E0B1E0ECECF4E6F6
:102B500002C005900D92A638B107D9F728E0A6E883
:102B6000B2E001C01D92AF3AB207E1F715E1CDE93D
:102B7000D5E104C02197FE010E941F32C939D10757
:102B8000C9F70E942A2F0C9464320C940000CF9352
:102B9000DF93EC018C818823A9F060E087E10E943B
:102BA0009E2C60E087E10E94DA2C1C82000000006D
:102BB0000000000000000000000000000000000015
:102BC0000000000087E10E940A2D2A813B81892BA9
:102BD00029F02F5F3F4F3B832A830EC03E832D8316
:102BE0001B821A8261E087E10E949E2C61E087E1EE
:102BF0000E94DA2C81E08C838D819E81DF91CF91C0
:102C00000895CF93DF93EC018C818823A9F060E0D5
:102C100086E10E949E2C60E086E10E94DA2C1C82F4
:102C200000000000000000000000000000000000A4
:102C3000000000000000000086E10E940A2D2A81A9
:102C40003B81892B29F02F5F3F4F3B832A830EC0A6
:102C50003E832D831B821A8261E086E10E949E2CB6
:102C600061E086E10E94DA2C81E08C838D819E8177
:102C7000DF91CF910895CF93DF93EC018C8188236E
:102C8000A9F060E085E10E949E2C60E085E10E9451
:102C9000DA2C1C8200000000000000000000000090
:102CA00000000000000000000000000085E10E941C
:102CB0000A2D2A813B81892B29F02F5F3F4F3B83CF
:102CC0002A830EC03E832D831B821A8261E085E138
:102CD0000E949E2C61E085E10E94DA2C81E08C83C9
:102CE0008D819E81DF91CF910895CF93DF93EC0189
:102CF0008C818823A9F060E084E10E949E2C60E032
:102D000084E10E94DA2C1C82000000000000000018
:102D100000000000000000000000000000000000B3
:102D200084E10E940A2D2A813B81892B29F02F5FA3
:102D30003F4F3B832A830EC03E832D831B821A8222
:102D400061E084E10E949E2C61E084E10E94DA2C23
:102D500081E08C838D819E81DF91CF910895CF9307
:102D6000DF93EC018C818823A9F060E083E10E946D
:102D70009E2C60E083E10E94DA2C1C82000000009F
:102D80000000000000000000000000000000000043
:102D90000000000083E10E940A2D2A813B81892BDB
:102DA00029F02F5F3F4F3B832A830EC03E832D8344
:102DB0001B821A8261E083E10E949E2C61E083E124
:102DC0000E94DA2C81E08C838D819E81DF91CF91EE
:102DD0000895CF93DF93EC018C818823A9F060E004
:102DE00082E10E949E2C60E082E10E94DA2C1C822B
:102DF00000000000000000000000000000000000D3
:102E0000000000000000000082E10E940A2D2A81DB
:102E10003B81892B29F02F5F3F4F3B832A830EC0D4
:102E20003E832D831B821A8261E082E10E949E2CE8
:102E300061E082E10E94DA2C81E08C838D819E81A9
:102E4000DF91CF910895CF93DF93EC018C8188239C
:102E5000A9F060E081E10E949E2C60E081E10E9487
:102E6000DA2C1C82000000000000000000000000BE
:102E700000000000000000000000000081E10E944E
:102E80000A2D2A813B81892B29F02F5F3F4F3B83FD
:102E90002A830EC03E832D831B821A8261E081E16A
:102EA0000E949E2C61E081E10E94DA2C81E08C83FB
:102EB0008D819E81DF91CF910895CF93DF93EC01B7
:102EC0008C818823A9F060E080E10E949E2C60E064
:102ED00080E10E94DA2C1C8200000000000000004B
:102EE00000000000000000000000000000000000E2
:102EF00080E10E940A2D2A813B81892B29F02F5FD6
:102F00003F4F3B832A830EC03E832D831B821A8250
:102F100061E080E10E949E2C61E080E10E94DA2C59
:102F200081E08C838D819E81DF91CF910895CF9335
:102F3000DF93EC018C818823A9F060E08FE00E9490
:102F40009E2C60E08FE00E94DA2C1C8200000000C2
:102F50000000000000000000000000000000000071
:102F6000000000008FE00E940A2D2A813B81892BFE
:102F700029F02F5F3F4F3B832A830EC03E832D8372
:102F80001B821A8261E08FE00E949E2C61E08FE03C
:102F90000E94DA2C81E08C838D819E81DF91CF911C
:102FA0000895CF93DF93EC018C818823A9F060E032
:102FB0008EE00E949E2C60E08EE00E94DA2C1C8243
:102FC0000000000000000000000000000000000001
:102FD00000000000000000008EE00E940A2D2A81FF
:102FE0003B81892B29F02F5F3F4F3B832A830EC003
:102FF0003E832D831B821A8261E08EE00E949E2C0C
:1030000061E08EE00E94DA2C81E08C838D819E81CC
:10301000DF91CF910895CF93DF93EC018C818823CA
:10302000A9F060E08BE00E949E2C60E08BE00E94A3
:10303000DA2C1C82000000000000000000000000EC
:103040000000000000000000000000008BE00E9473
:103050000A2D2A813B81892B29F02F5F3F4F3B832B
:103060002A830EC03E832D831B821A8261E08BE08F
:103070000E949E2C61E08BE00E94DA2C81E08C8320
:103080008D819E81DF91CF910895CF93DF93EC01E5
:103090008C818823A9F060E08AE00E949E2C60E089
:1030A0008AE00E94DA2C1C82000000000000000070
:1030B0000000000000000000000000000000000010
:1030C0008AE00E940A2D2A813B81892B29F02F5FFB
:1030D0003F4F3B832A830EC03E832D831B821A827F
:1030E00061E08AE00E949E2C61E08AE00E94DA2C76
:1030F00081E08C838D819E81DF91CF910895CF9364
:10310000DF93EC018C818823A9F060E084E00E94C9
:103110009E2C60E084E00E94DA2C1C8200000000FB
:10312000000000000000000000000000000000009F
:103130000000000084E00E940A2D2A813B81892B37
:1031400029F02F5F3F4F3B832A830EC03E832D83A0
:103150001B821A8261E084E00E949E2C61E084E080
:103160000E94DA2C81E08C838D819E81DF91CF914A
:1031700008950C9456320F931F93CF93DF931F92B1
:10318000CDB7DEB7182F062F8091FD02882371F08E
:10319000612F82E090E049830E94B91860E083E0EB
:1031A00090E00E94B9181093FE044981073009F499
:1031B0005DC028F40130A1F10530E1F170C00C3799
:1031C00009F457C00D3709F463C0043109F067C032
:1031D00050E0FA01EE0FFF1FEE0FFF1FE050FF4F10
:1031E00080819181A281B3818093E4019093E50174
:1031F000A093E601B093E701440F551F440F551FFC
:10320000FA01EC5CFE4F80819181A281B3818093B1
:10321000E0019093E101A093E201B093E3013FC08C
:1032200050E0440F551F4F5F5F4F5093EB024093A8
:10323000EA0235C081E0411101C080E08093FE02C6
:10324000882369F188E0489FA0011124052E000C15
:10325000660B770B23E076956795579547952A95EA
:10326000D1F75093DE034093DD0319C04093DF0193
:1032700016C060E083E090E00E94B91882E090E020
:103280000E944E32813108F080E08093FE0407C036
:1032900061E083E090E00E94B9181092FE040F9064
:1032A000DF91CF911F910F9108956D3F71053CF40F
:1032B0006A3F710554F4683F710589F406C09B01AB
:1032C0002E5F31092230310550F4DC018D919C9143
:1032D000DC01ED91FC910190F081E02D09940895BD
:1032E000DC01ED91FC910190F081E02D0994DC016D
:1032F000ED91FC910190F081E02D0994FC01808119
:103300009181DB01A81BB90B20853185428553854E
:103310000E944632BB2797FDBA95A92F982F872F79
:1033200024813581820F931F08958F929F92AF92CF
:10333000BF92CF92DF92EF92FF921F93CF93DF93D2
:10334000FC01118124813581C681D781D901AC1B53
:10335000BD0B828193816901032E000CEE08FF08EA
:10336000AB01421B530B4A01550FAA08BB089C0135
:103370000E943432BB2797FDBA95A92F982F872F2B
:10338000A5019401280F391F4A1F5B1FA12FB0E030
:103390000E943B32BB2797FDBA95A92F982F872F04
:1033A0008C0D9D1DAE1DBF1D95838483BC016C1BC0
:1033B0007D0B169FC001179F900D1124892F990F27
:1033C000990B8C0F9D1F97838683DF91CF911F915F
:1033D000FF90EF90DF90CF90BF90AF909F908F9035
:1033E00008950F931F93CF93DF93C8E1D1E08C2F03
:1033F0000E94542C883E93400CF4D0E0CF5FC03242
:10340000B1F7DD2341F081E08093FD0261E083E0CC
:1034100090E00E94B91883E090E00E944E32813023
:1034200019F4C0E0D0E007C082E090E00E944E3284
:103430008131B8F7C82F80E890E00E94F92726E094
:1034400042E15AE760E070E08091FC049091FD0455
:103450000E940A2EC093FE04109200051092FF04F1
:1034600010920705109206051092050510920405AA
:103470008FEF9FEF909309058093080590930B05BC
:1034800080930A051092920510920F0510920E0576
:1034900010920D05109210051092110580910C05E7
:1034A00081708260816080930C0580E89CE190933C
:1034B000DB048093DA048FEA9DE19093D904809332
:1034C000D80489ED9BE19093E5048093E4048BEBB1
:1034D00098E19093DF048093DE041092DE03109253
:1034E000DD034AEF4093340440933C04409344048A
:1034F00051E050934C0410925404CCE0D0E0D093AF
:103500003704C093360400912704109128049801D1
:10351000ACE0B0E00E942532609338047093390427
:1035200080933A0490933B04EEEDFFE0F0933F0468
:10353000E0933E04AEEDBFE00E942532609340046C
:103540007093410480934204909343044093FB039F
:103550004093030440930B045093130410921B04F4
:10356000D093FE03C093FD034091EE035091EF030F
:103570009A01ACE0B0E00E9425326093FF037093A3
:1035800000048093010490930204F0930604E093F6
:103590000504AEEDBFE00E942532609307047093EE
:1035A00008048093090490930A04DF91CF911F913E
:1035B0000F91089518161906ACF4BC01990F880BE9
:1035C000990B0E94D53020E030E040E059E30E94A2
:1035D00061312091E4013091E5014091E601509183
:1035E000E70116C00097E9F0BC01990F880B990B11
:1035F0000E94D53020E030E040E059E30E94613184
:103600002091E0013091E1014091E2015091E3010C
:103610000E94613120E030E040E85FE30E94BF2F6C
:10362000089560E070E080E89FE30895CF92DF9214
:10363000EF92FF92CF938091F60290E0880F991F4E
:10364000FC01E55EFD4F0190F081E02DC480D58046
:10365000E680F78040815181628173814C0D5D1D50
:103660006E1D7F1D40835183628373839B0137707E
:103670000084F185E02DE20FF31F6491062E000C0B
:10368000770B7093070360930603FC01EF5EFD4F19
:103690000190F081E02DC480D580E680F7808081A4
:1036A0009181A281B3818C0D9D1DAE1DBF1D8083B4
:1036B0009183A283B383CD0197700084F185E02DBF
:1036C000E80FF91FE4910E2E000CFF0BF093050399
:1036D000E0930403C091010380E193E00E949519F7
:1036E000DC01A095B0952C2F30E00E9434326B01A4
:1036F0007C01C0910003609104037091050388E090
:1037000093E00E949519DC01A095B0952C2F30E034
:103710000E943432DC01CB018C0D9D1DAE1DBF1DFE
:1037200033E0B595A795979587953A95D1F7CF91C1
:10373000FF90EF90DF90CF9008950C948927FC01C3
:103740002FB7F894CB01770FAA0BBB0B3DE0880F86
:10375000991FAA1FBB1F3A95D1F784839583A6832F
:10376000B7832FBF08950F931F93CF938C01CB0185
:10377000BA01CFB7F89420E030E040E055E40E9471
:10378000613120E030E040E858E30E94613120E000
:1037900030E040E857E40E9461310E94A430F80113
:1037A0006483758386839783CFBFCF911F910F91D9
:1037B0000895CF92DF92EF92FF92CB010E94DA1A26
:1037C0006B017C016091F9027091FA02072E000CE6
:1037D000880B990B0E94D530A70196010E94613198
:1037E000AB01BC01E091F602F0E0EE0FFF1FE55ED9
:1037F000FD4F808191810E94B31B8091F7029091CF
:10380000F802BC01990F880B990B0E94D530A701D3
:1038100096010E946131AB01BC01E091F602F0E03B
:10382000EE0FFF1FEF5EFD4F80819181FF90EF90C3
:10383000DF90CF900C94B31BFC0180AD8823C9F0BE
:103840002FB7F89484A995A9A6A9B7A940A951A909
:1038500062A973A9840F951FA61FB71F80AB91ABF8
:10386000A2ABB3AB2FBF80A991A9A2A9B3A98A2FFC
:10387000089580E00895CF92DF92EF92FF920F9328
:103880001F93CF93DF93EC018B011B821A82FB0104
:10389000818192819D838C83C8A8D9A8EAA8FBA8BE
:1038A0006781862F90E0A0E0B0E0DC0199278827AF
:1038B000BC01CD016C197D098E099F0923813481DA
:1038C000458156810E9400322CAB3DAB4EAB5FABC5
:1038D0001FA70EA7DF91CF911F910F91FF90EF903F
:1038E000DF90CF900895CF93DF93EC01BC016A5F26
:1038F0007F4F0E943B1C81E088AFDF91CF910895FC
:103900004F925F926F927F928F929F92AF92BF92EF
:10391000EF92FF920F931F93CF93DF93182FD62F21
:10392000C42F8091FD02882361F0612F82E090E036
:103930000E94B91860E083E090E00E94B9181093EB
:10394000FE040D2F10E0C11128C08091EA01909172
:10395000EB010817190761F465E474E087E294E06D
:103960000E943B1C81E890E09093EB018093EA0178
:103970008091E8019091E9010817190709F0E0C06A
:103980006CE074E08EEE93E00E943B1C81E890E0D6
:103990009093E9018093E801D3C02091FE028D2F1E
:1039A00090E0A0E0B0E0CC0F222309F451C07727CB
:1039B00066270E94E2296093DF037093E0038093FF
:1039C000E1039093E203E090DD03F090DE0380904A
:1039D000E6039090E703A090E803B090E9030E940B
:1039E000D3302B013C01C501B4010E94D3309B01AF
:1039F000AC01C301B2010E94BE2F4B015C01B701B3
:103A00000F2C000C880B990B0E94D3309B01AC014A
:103A1000C501B4010E942B300E949D306093EA03DF
:103A20007093EB038093EC039093ED03F092DC032F
:103A3000E092DB0381E08093E3031093E9010093BC
:103A4000E801C093FB03C0930304C0930B046DC053
:103A50002091EA013091EB012138310559F0209194
:103A6000EC012230D1F52091E8013091E9012138B3
:103A700031059CF51093EB010093EA017727662747
:103A80000E94E2290E94D33020E030E040E857E372
:103A90000E9461310E949D307093FA026093F90296
:103AA000E091F602F0E0EE0FFF1FE55EFD4F808132
:103AB00091810E949F1BC0933404C0933C04C09327
:103AC0004404C1E0C0934C041092540487E294E093
:103AD0000E94731CC093EC0133C01093E901009362
:103AE000E801772766270E94E2290E94D33020E070
:103AF00030E040E857E30E9461310E949D307093AE
:103B0000F8026093F702E091F602F0E0EE0FFF1F7B
:103B1000EF5EFD4F808191810E949F1BC093FB034C
:103B2000C0930304C0930B0481E0809313041092AC
:103B30001B048EEE93E00E94731C82E08093EC01E4
:103B4000DF91CF911F910F91FF90EF90BF90AF90B9
:103B50009F908F907F906F905F904F90089540E07E
:103B60000C94801CFC01228133812F5F3F4F3383F3
:103B70002283448155812417350710F00C943B1C97
:103B80000895DC019E96ED91FC919F972081223053
:103B900099F028F4222341F0213051F00895233088
:103BA00079F0243091F00895BC01625F7F4F0BC023
:103BB000BC016A5E7F4F07C0BC01625E7F4F03C0DD
:103BC000BC016A5D7F4F0C94B21DFC0110AE0895DC
:103BD000DC01D6968D919C91D797813F910509F490
:103BE000BCC03CF5803B910509F45FC07CF4803992
:103BF0009105E9F1803A910509F474C08038910586
:103C000009F0D8C0ED91FC91119770C0803D9105ED
:103C100009F478C02CF4803C910509F478C008952B
:103C2000803E910509F446C0803F910509F47CC0AF
:103C300008958A3F910529F174F4833F910509F4B1
:103C4000A4C00CF48FC0863F910509F4A7C0883F3B
:103C5000910591F008958C3F9105E9F0BCF08E3FFD
:103C60009105F1F08F3F910509F49DC008951296DA
:103C7000ED91FC9113973AC05896ED91FC915997AC
:103C800096C05A96ED91FC915B9791C05C96ED9130
:103C9000FC915D978CC05E96ED91FC915F9787C01B
:103CA0009096ED91FC91919782C01696ED91FC91C2
:103CB00017971CC01C96ED91FC911D97309709F445
:103CC00079C0D9966C91D9976F7720E8629FB0013F
:103CD0001124D8968C91D8978F77682B7052D596EF
:103CE0008C9109941496ED91FC911597309709F4F5
:103CF00061C0D9964C91D997D8966C91D897D596A2
:103D00008C9109941A96ED91FC911B9704C018961A
:103D1000ED91FC911997309709F44CC0D8966C91AD
:103D2000D897D5968C9109941E96ED91FC911F978A
:103D3000309709F43FC0D9966C91D99770E0762FEF
:103D40006627D8968C91D897682B6138710510F04A
:103D500060E870E0CD01CA9609945096ED91FC910F
:103D6000519717C05296ED91FC915397309711F1EE
:103D7000D9968C91D9978F7720E8829FC001112422
:103D8000D8962C912F77822B09945496ED91FC9123
:103D90005597309779F0D8968C9109945696ED9175
:103DA000FC91579704C09296ED91FC9193973097B0
:103DB00009F0099408959C018F7C8038910561F089
:103DC000203D310549F081E0203E310539F0203CAD
:103DD000310521F080E0089581E00895089587FF7E
:103DE0000DC09CE0980F923048F0982F9B7F993F30
:103DF00029F0803F08F4807F90E0089580E090E013
:103E00000895CF92DF92EF92FF920F931F93CF937B
:103E1000DF931F92CDB7DEB76C01DC0194968D91D4
:103E20009C919597DC01ED91FC910480F581E02D4A
:103E30000995892B09F4A6C1F60184A195A1DC019D
:103E4000ED91FC910680F781E02D09958C018B7F27
:103E5000893F09F497C1F60126A537A5211531053B
:103E600009F0C3C001A7F7A08F2D0E94EF1E0E948A
:103E7000DB1E882379F007FD0DC0D6019996FC92D0
:103E800099979A960C939A9781E090E09F969C93CD
:103E90008E939E97F60111A5812F0E94EF1E813F00
:103EA000910509F463C094F5803B910509F466C05F
:103EB0006CF48039910509F461C0803A910509F4E8
:103EC0005DC08038910509F05FC058C0803D910504
:103ED00009F44CC02CF4803C910509F447C054C04F
:103EE000803E910509F44AC0803F910509F04CC01D
:103EF00020E830E0D6019D963C932E939C979796B0
:103F00001C92979720EFDA962C9345C0883F910535
:103F1000A9F044F4833F910549F184F1863F91056E
:103F200069F032C08A3F91057CF18D3F910534F0F4
:103F30009C012E5F31092230310530F5D601D7962C
:103F40009C938E93D697D5961C92D597D8961C9213
:103F5000D897D9961C92F601E654FF4F81E08083F2
:103F6000F60117A616A615A614A60DC122E030E08C
:103F7000D6019D963C932E939C970DC023E030E094
:103F8000F60135A724A707C0F60117A616A615A6A1
:103F900014A617A2F7C0D6019E962D913C919F972B
:103FA0009C964D915C919D9741505109241735077E
:103FB00008F4E3C0D7969C938E93D6971F701F5F2B
:103FC000D5961C93D5979A968C919A97D8968C9360
:103FD000D897D9961C92D9979F961C921E929E971D
:103FE0009D961C921E929C9725C007FF4EC0C8014B
:103FF00099278D3F91055CF48A3F910574F4873FC2
:104000009105F1F0883F910509F03FC006C0AC0171
:104010004E5F510942305105C0F5D601D7969C93A9
:104020008E93D697D8961C92D897D9961C92D997EA
:10403000D5961C92F601E654FF4F81E08083A3C021
:10404000F60182AD803FB9F5C9010196E20FF31F79
:1040500047EF42AF20EF30E0D601D7963C932E9346
:10406000D697D8968C93D897D9969C93D997D5966E
:104070001C92F601E654FF4F81E08083F60117A6FB
:1040800016A615A614A617A27EC0F60181A5E20FFA
:10409000F31F803FE1F402AFD6019C96ED90FC90B7
:1040A0009D97C70101972817390708F466C09996AC
:1040B0002C91203F71F4D6019F961C921E929E97E0
:1040C0009D961C921E929C9797961C925BC001A78E
:1040D000E3CF822F29830E94EF1E8C01F60197AB5C
:1040E00086AB0E94DB1E2981882339F0822F8F70D6
:1040F0008F5FD601D5968C9302C0F60115AAD60122
:104100009A968C919A97D8968C93B3E0EB16F1041B
:1041100019F4F60183A501C080E0D601D9968C93ED
:10412000D9979F961C921E929E979D961C921E92C6
:104130009C9781E0F601E654FF4F8083003B110518
:10414000A1F054F40039110581F0003A110569F02D
:104150000038110569F409C0003D110531F0003E39
:10416000110519F0003C110519F4F60127A303C04D
:10417000D60197961C9281E006C02F5F3F4FF60153
:1041800037A726A780E00F90DF91CF911F910F9165
:10419000FF90EF90DF90CF900895CF92DF92EF9253
:1041A000FF920F93CF93DF9300D0CDB7DEB77C01A2
:1041B0006B010150003108F04FC0603871050CF4FC
:1041C0004BC0613E7105B4F5F70184A195A1DC01F6
:1041D000ED91FC91602B0190F081E02D2A834983C1
:1041E0000995F70184A195A1DC01ED91FC9149812C
:1041F000642F6F770190F081E02D0995E894C4F861
:104200002A81B0ECCB16D10439F1F70184A195A134
:10421000DC01ED91FC91622F6F770190F081E02D30
:104220000F900F90DF91CF910F91FF90EF90DF9063
:10423000CF900994CB01885F9109089768F4C70172
:1042400084960F900F90DF91CF910F91FF90EF9098
:10425000DF90CF900C9455190F900F90DF91CF9174
:104260000F91FF90EF90DF90CF900895EF92FF9223
:104270000F931F93CF93DF93EC019CA9292F2170FB
:1042800090FFCAC0892F8E7F09F4C6C0362F6EA951
:104290007FA9AB014058510941365105F8F40DA9E9
:1042A000031719F021E0311120E09695892F90E055
:1042B0008230910539F08330910541F0019709F082
:1042C000ABC006C0222309F4A7C002C02111A4C0BC
:1042D00029AD48ADCE010E94CD209EC0FB01E05F1C
:1042E000F109E031F10508F097C0E25CFF4F0C9452
:1042F0001F32CE018496DF91CF911F910F91FF90D5
:10430000EF900C9455198E01065C1F4F780129AD72
:1043100030E0322F222788ADA901482BCA0181380D
:10432000910510F080E890E0080F191FE016F106E3
:1043300009F472C08CA19DA1D7016D917D01DC01B2
:10434000ED91FC910190F081E02D0995EFCF18AD32
:104350008CA19DA1DC01ED91FC910190F081E02DFB
:1043600063EF09951F77612F70E08CA19DA1DF910C
:10437000CF911F910F91FF90EF900C94771909AD99
:10438000B0E80B9F8001112488AD082B8CA19DA162
:10439000DC01ED91FC910190F081E02D62EF099537
:1043A000B8016F7777278CA19DA10E947019B80181
:1043B000660F672F661F770B71956F7777278CA134
:1043C0009DA1DF91CF911F910F91FF90EF900C94E1
:1043D000701988AD8770B0E18B9FC001112419ADB1
:1043E0001F70182B8CA19DA1DC01ED91FC91019017
:1043F000F081E02D61EF09958CA19DA1DC01ED918B
:10440000FC910190F081E02D612FDF91CF911F9100
:104410000F91FF90EF900994DF91CF911F910F9131
:10442000FF90EF9008952F923F924F925F926F927C
:104430007F928F929F92AF92BF92CF92DF92EF9234
:10444000FF920F931F93CF93DF93E091DE018E2FA6
:1044500090E0FC013197E730F10508F0E3C0E25B42
:10446000FF4F0C941F328EE10E947929BC018AED26
:1044700092E00E947E198093F602D4C08FE10E94E0
:104480007929BC018EEC92E00E947E198093F5029E
:10449000C9C088E10E947929BC0182EC92E00E94A7
:1044A0007E199093F4028093F3026C01E12CF12CBD
:1044B00013E0F694E794D794C7941A95D1F7D09265
:1044C0002F04C0922E04A0912704B0912804A701C4
:1044D00096010E943B3260933004709331048093C4
:1044E000320490933304D092F603C092F503A09166
:1044F000EE03B091EF030E943B326093F703709399
:10450000F8038093F9039093FA038CC089E10E9429
:104510007929BC0186EB92E00E947E199093F20209
:104520008093F1026C01E12CF12CD3E0F694E79436
:10453000D794C794DA95D1F7D0924704C092460435
:10454000A0912704B0912804A70196010E943B3254
:10455000609348047093490480934A0490934B04F9
:10456000D0920E04C0920D04A091EE03B091EF031F
:104570000E943B3260930F047093100480931104E7
:10458000909312044FC08AE10E947929BC018AEA03
:1045900092E00E947E198093F00244C08BE10E9459
:1045A0007929BC018EE992E00E947E199093EF0276
:1045B0008093EE02E091F002F0E0EE0FFF1FE95F62
:1045C000FD4F0190F081E02D2FB7F894092E000CDB
:1045D000AA0BBB0BCBE0880F991FAA1FBB1FCA9564
:1045E000D1F784839583A683B7832FBF1BC08DE14A
:1045F0000E947929BC0186E892E00E947E1990937E
:10460000E9028093E8022091E6023091E7028217E6
:10461000930741F09093E7028093E6029093EB02B8
:104620008093EA028091DE018F5F883018F48093D6
:10463000DE0102C01092DE018CE10E947929BC01EA
:1046400082E992E00E947E199093ED028093EC0241
:10465000E091F002F0E0EE0FFF1FE95FFD4F0190E7
:10466000F081E02D048115812681378140815181BF
:1046700062817381400F511F621F731F40835183FA
:10468000628373839B0131700084F185E02DE20F1A
:10469000F31FE4910E2E000CFF0BE058FF4F4091EA
:1046A000EA025091EB02E49F9001E59F300DF49FE8
:1046B000300D11243093FF02389FA001399F500D17
:1046C000112460E070E0452F562F672F772767FD94
:1046D0007A95841B950B9093030380930203809338
:1046E000110340911003982F9095949F90011124ED
:1046F000232F3327240F311D3093130320931203EC
:104700008093090320910803929FC0011124892FEF
:104710009927820F911D90930B0380930A03809138
:10472000F6028150843028F483E280931003809352
:104730000803C091FE04C131E8F488ED94E00E94C2
:10474000011F8823B9F080910E0590910F058058C4
:1047500091098136910508F0ECC180910D058C1707
:1047600009F4E7C1CC2309F4E4C16C2F88ED94E08F
:104770000E9436217DEE472E71E0572EE6E62E2E62
:10478000E3E03E2EF8E1CF2EF3E0DF2EACE48A2EFC
:10479000A3E09A2EB2E3AB2EB3E0BB2E00ED11E006
:1047A000C0E0D0E080EFF82EEE24E39491E8692E8B
:1047B000712CD2018D919D912D01DC01ED91FC9127
:1047C0000190F081E02D0995F101819391931F01F2
:1047D000D4012D913C91D501ED91FC91A9014E2B75
:1047E0005F2B482B592BD6016D917C911197642337
:1047F0007523A9014E235F2348235923462B572BAA
:104800004D935C93F50131832083D4018D939C9368
:10481000141615060CF077C0F8018081813009F07C
:1048200072C08091F502FE019DE0989FE00DF11DA0
:104830001124EE0FFF1FE859FE4F608171817093C4
:10484000FC026093FB02D8011C928091EA019091D6
:10485000EB018138910559F08091EC01823059F5D6
:104860008091E8019091E9018138910524F5D09378
:10487000EB01C093EA017093FA026093F902E091B0
:10488000F602F0E0EE0FFF1FE55EFD4F80819181A3
:104890000E949F1BF0923404F0923C04F092440476
:1048A000E0924C041092540487E294E00E94731C3E
:1048B000E092EC0128C08091FE02811124C0D093C7
:1048C000E901C093E8017093F8026093F702E09168
:1048D000F602F0E0EE0FFF1FEF5EFD4F8081918149
:1048E0000E949F1BF092FB03F0920304F0920B04D2
:1048F000E092130410921B048EEE93E00E94731C4E
:10490000B2E0B093EC01F60180819181892B69F5C9
:10491000D8018C91811129C0EC928091EA0190918B
:10492000EB01C817D90771F465E474E087E294E0FD
:104930000E943B1C7092EB016092EA01B2E0B093DE
:10494000EC0113C08091E8019091E901C817D907E3
:1049500061F46CE074E08EEE93E00E943B1C709278
:10496000E9016092E801E092EC012196E2E0CE0ECE
:10497000D11CF2E08F0E911C82E0A80EB11C0F5FDB
:104980001F4FCD30D10509F014CF87E294E00E948B
:10499000C11D8EEE93E00E94C11DC091DF0187E230
:1049A00094E00E941C1C2C2F30E0A82FB0E00E9445
:1049B0002532709301038091FE02882309F498C088
:1049C0008091E303882309F454C08091DB03909124
:1049D000DC0301979093DC038093DB0397FF49C0CE
:1049E000C090DD03D090DE030D2C000CEE08FF0814
:1049F0006091DF037091E0038091E1039091E20305
:104A00002FB7F8946093E6037093E7038093E8036D
:104A10009093E9032FBF4090E6035090E703609026
:104A2000E8037090E9030E94D3304B015C01C3019D
:104A3000B2010E94D3309B01AC01C501B4010E94B8
:104A4000BE2F4B015C01C701B6010E94D3309B0110
:104A5000AC01C501B4010E942B300E949D306093CF
:104A6000EA037093EB038093EC039093ED031092B1
:104A7000E3032FB7F8944091E6035091E703609168
:104A8000E8037091E9038091EA039091EB03A09110
:104A9000EC03B091ED03840F951FA61FB71F809301
:104AA000E6039093E703A093E803B093E9032FBFD5
:104AB0008091E6039091E703A091E803B091E903A8
:104AC000E091F602F0E0EE0FFF1FEF5EFD4F019068
:104AD000F081E02D2FB7F89433E0B695A795979520
:104AE00087953A95D1F784839583A683B7832FBFA3
:104AF000C091DF018EEE93E00E941C1C2C2F30E051
:104B0000A82FB0E00E94253270930003DF91CF916F
:104B10001F910F91FF90EF90DF90CF90BF90AF90DB
:104B20009F908F907F906F905F904F903F902F90CD
:104B3000089588ED94E00E94E81D17CECF92DF9291
:104B4000EF92FF92CF93DF93E8EDF4E089E098E0F5
:104B500095A384A316A217A210A615A614A617A69D
:104B600016A68FEF9FEF91AB80AB93AB82AB83E048
:104B700080930C0515AA17AA16AA10AE11AE1092B2
:104B8000920580E8A2E1B5E0ED0119928A95E9F776
:104B90001182108213821282158214821782168269
:104BA0001186108613861286158614861786168639
:104BB000118A108A138A128A158A148A178A168A09
:104BC000118E108E138E128E158E148E178E168ED9
:104BD00011A210A213A212A268EA70E27093D70485
:104BE0006093D60448EA58E15093CD044093CC0436
:104BF00028EA30E13093C3042093C20488EA98E0A5
:104C00009093B9048093B8047093AF046093AE049A
:104C10005093A5044093A40430939B0420939A04DA
:104C2000909391048093900488EA96E0909387048F
:104C30008093860488EA94E090937D0480937C04BA
:104C40008AEA92E090937304809372048AEA90E077
:104C50009093690480936804E7E2F4E021E030E097
:104C600031832083168281E0868752E0568B43E0B1
:104C7000468F94E096A315A2EEEEF3E031832083F5
:104C800016828687568B468F96A315A244E85EE16E
:104C90005093E5034093E403E4EDF3E04CE252E08B
:104CA0005183408313821282848316821582EDEC35
:104CB000F3E042E352E05183408313821282848303
:104CC00016821582E6ECF3E048E352E0518340831C
:104CD00013821282848316821582EFEBF3E04EE397
:104CE00052E051834083138212828483168215829C
:104CF000E8EBF3E044E452E05183408313821282F4
:104D0000848316821582E1EBF3E04AE452E051839A
:104D1000408313821282848316821582EAEAF3E0CA
:104D200040E552E0518340831382128284831682CD
:104D30001582E3EAF3E046E552E0518340831382B3
:104D40001282848316821582ECE9F3E04CE552E08E
:104D50005183408313821282848316821582E5E98F
:104D6000F3E042E652E0518340831382128284834F
:104D700016821582EEE8F3E048E652E05183408364
:104D800013821282848316821582E7E8F3E04EE6EE
:104D900052E05183408313821282848316821582EB
:104DA000E0E8F3E044E752E051834083138212824B
:104DB000848316821582EAEDF2E01182108280E08F
:104DC00094E0938382833583248347E050E05783C4
:104DD000468341E050E060E070E0408751876287A1
:104DE0007387EEECF2E01182108293838283158246
:104DF0001482A5E0B0E0B783A6834087518762871D
:104E00007387E2ECF2E01182108293838283CCE11B
:104E1000D0E0D583C483C4ECD9E0D783C683CAE687
:104E2000CC2EC2E0DC2EE12CF12CC086D186E286AD
:104E3000F386E6EBF2E01182108293838283C9E16C
:104E4000D0E0D583C483C8EBDBE0D783C683D7EE3D
:104E5000CD2ED2E0DD2EE12CF12CC086D186E2866B
:104E6000F386EAEAF2E0118210829383828335832B
:104E70002483B783A6834087518762877387EEE9CF
:104E8000F2E011821082938382831582148248E7B4
:104E900055E0578346834EE551E060E070E040877F
:104EA000518762877387E2E9F2E01182108293836F
:104EB00082834EE150E05583448344EB50E05783B6
:104EC000468345E250E060E070E0408751876287AA
:104ED0007387E6E8F2E01182108293838283358340
:104EE000248380E091E0978386838FE390E0A0E0C5
:104EF000B0E080879187A287B387DF91CF91FF9041
:104F0000EF90DF90CF90089508950E9413220C94A3
:104F10006F299091AC078091AB07981306C09091D0
:104F2000AE078091AD07981319C00E94161B2091FF
:104F3000AC07E22FF0E0EE0FFF1FE555FA4F905E51
:104F4000918380832F5F2093AC07211107C090913C
:104F5000AE0781E089278093AE07089508951F92D8
:104F60000F920FB60F9211242F933F938F939F931D
:104F7000AF93BF93EF93FF938091AB07E82FF0E0DF
:104F8000EE0FFF1FE555FA4F208131818F5F80932F
:104F9000AB07811119C09091AD0781E089278093FB
:104FA000AD078091AF079091B007A091B107B09184
:104FB000B2070196A11DB11D8093AF079093B00772
:104FC000A093B107B093B207C901880F991F9093BE
:104FD00088002F7720938A00FF91EF91BF91AF91C6
:104FE0009F918F913F912F910F900FBE0F901F9027
:104FF0001895AF92BF92CF92DF92EF92FF920F93EC
:105000001F93CF93DF93EC0180E00E94342984B595
:105010008093AA0585B58093A90587B58093A805D7
:105020000EE610E0F80180818093A7059E0140E024
:1050300050E060E472E48FE090E00E940032DA0118
:10504000C90140E065E877E20E94C12B0E94182C5C
:1050500084B580939E0585B580939D0587B5809323
:105060009C05F801808180939B05C0E8D0E0888191
:105070008093A60581E8E82EF12CF70180818093CA
:10508000A50598E8C92ED12CF601808191818093E5
:10509000A4052FE6A22EB12CF50180818093A305F3
:1050A00061E08DE00E949E2C61E08CE00E949E2CCD
:1050B0000FEF17E0F801128298E1938382E0848376
:1050C000F7019083888380E890E0A0E0B0E021E0E1
:1050D0002093FC079093FE078093FD079093870031
:1050E0008093860089E1808361E08DE00E949E2CA0
:1050F0009881F8018481892B80688883F601118268
:1051000010829091FC07F8018381892BF70180833D
:1051100061E08CE00E949E2C9881F8018481892BAB
:105120008062888310928B0010928A009091FC0715
:105130008381892BF7018083888180939A05808100
:1051400080939905F6018081918180939805F501FE
:1051500080818093970530EBC32ED12CF60180819E
:105160008093A20541EBE42EF12CF701808180931E
:10517000A10503EB10E0F80180818093A005C0E752
:10518000D0E0888180939F0560ED73E080E090E03F
:105190000E942D2B84E897E20E941D2B0E94BD2BBC
:1051A000F601808180939605F701808180939505B3
:1051B000F801808180939405888180939305DF9125
:1051C000CF911F910F91FF90EF90DF90CF90BF9004
:1051D000AF9008951092AB071092AC071092AD07F4
:1051E0001092AE070895811109C080917A00846001
:1051F00080937A0080917A008D7F1AC0813071F49B
:1052000080917A008B7F80937A0080917A0082600F
:1052100080937A0080917A0081600FC0823079F4A7
:1052200080917A008B7F80937A0080917A008260EF
:1052300080937A0080917A008E7F80937A0008951F
:1052400080E090E061E070E040917E009B01082EDC
:1052500001C0220F0A94EAF7242B20937E000196C6
:105260008830910589F70895EAE7F0E09081986029
:1052700090830E94F3280C94202987708064809387
:105280007C00EAE7F0E08081806480830895CF931A
:10529000DF931F92CDB7DEB78091BB079091BC071B
:1052A0008F3F2FEF920761F0FC01ED54F84F208102
:1052B000298301979093BC078093BB07898101C024
:1052C0008FEF80932602809126028F3F21F08091FC
:1052D00026020E943D290F90DF91CF910895809181
:1052E00026028F3F29F40E94472981E080932502FE
:1052F00008958E3008F08E502091BB073091BC0786
:105300002730310554F42F5F3F4F3093BC07209373
:10531000BB07F901ED54F84F8083E82FF0E0EE0F62
:10532000FF1FE354F84F808191810895EAE7F0E090
:105330008081806480830895E091260280917800C6
:1053400090917900EE0FFF0BE354F84F9183808327
:1053500008951F920F920FB60F9211242F933F932F
:105360004F935F936F937F938F939F93AF93BF936D
:10537000EF93FF9380912502882329F00E949629BC
:105380001092250207C00E949C290E94472981E0B3
:1053900080932502FF91EF91BF91AF919F918F91E3
:1053A0007F916F915F914F913F912F910F900FBE21
:1053B0000F901F9018958FEF9FEF9093BC078093ED
:1053C000BB070895CF92DF92EF92FF920F931F9346
:1053D00044E0849F90011124F901E855F74DC590F0
:1053E000D590E590F490F901E455F74D05911591AC
:1053F00025913491A90198012C193D094E095F09A5
:105400008827992721153105E1E04E07510558F00D
:10541000232F342F452F55270E94CE31BB27A92F8C
:10542000982F872F04C00E94CE31AA27BB27BC012A
:10543000CD016C0D7D1D8E1D9F1D1F910F91FF9045
:10544000EF90DF90CF90089582E08093F8078FEF80
:105450008093D3071092D5078091CD078150809318
:10546000D4078091CE07880F81608093F60785EE80
:105470008093BC00089584E08093F8078FEF8093B9
:10548000D3071092D5078091CF078093D407A091BE
:10549000D007B091D10726ED37E0F9019E2F921B7E
:1054A000981718F49D919193F9CF8091D20790E0CD
:1054B000880F991F8093F60785EE8093BC000895AE
:1054C00085ED8093BC008091BC0084FDFCCF809171
:1054D000F8078093F7071092F8078091F707833059
:1054E00011F40C943B2A8091F707813011F40C944D
:1054F000242A089585EC8093BC008091F80780935E
:10550000F7071092F8078091F707833011F40C9495
:105510003B2A8091F707813011F40C94242A0895D6
:105520001F920F920FB60F9211242F933F934F9318
:105530005F936F937F938F939F93AF93BF93EF93FB
:10554000FF938091B900887F883239F170F48031FF
:1055500009F130F4882309F45BC08830D9F05CC0CD
:105560008831D9F0803261F157C08034C1F150F4F4
:10557000803331F1883309F04FC08093D3070E9404
:105580007A2A4AC08035F9F08835A9F1883409F0C3
:1055900043C040C08091F60710C09091D50780911C
:1055A000D4079817B8F5E091D50781E08E0F809366
:1055B000D507F0E0EA52F84F80818093BB0015C018
:1055C0008093D30727C0E091D50781E08E0F8093A9
:1055D000D5078091BB00F0E0EA52F84F80839091AC
:1055E000D5078091D407981710F485EC01C085E8A1
:1055F0008093BC0011C0E091D50781E08E0F8093AD
:10560000D5078091BB00F0E0EA52F84F808302C0DA
:105610001092D3070E94602AFF91EF91BF91AF9142
:105620009F918F917F916F915F914F913F912F91BA
:105630000F900FBE0F901F9018959093FB078093CB
:10564000FA07892B21F080917000826003C080915D
:1056500070008D7F8093700008956115710581053C
:10566000910539F0613021E072078105910540F420
:1056700004C061E070E080E090E0615081E06AC0C9
:10568000613028E072078105910568F4DC01CB01E7
:1056900063E0B695A795979587956A95D1F76FEFD3
:1056A000680F82E057C0613020E2720781059105E2
:1056B00068F4DC01CB0155E0B695A79597958795E1
:1056C0005A95D1F76FEF680F83E044C0613020E452
:1056D00072078105910568F4DC01CB0146E0B695BF
:1056E000A795979587954A95D1F76FEF680F84E056
:1056F00031C0613020E872078105910568F4DC0152
:10570000CB0137E0B695A795979587953A95D1F750
:105710006FEF680F85E01EC06130710521E08207E0
:10572000910520F46FEF670F86E014C061307105BA
:1057300024E08207910560F4DC01CB012AE0B695F4
:10574000A795979587952A95D1F76FEF680F01C0B8
:105750006FEF87E01092B1001092B0001092B2008B
:105760009091B6009F7D9093B6006093B30092E055
:105770009093B0008093B100089581E08093F90781
:105780000895CF92DF92EF92FF9270930708609393
:10579000060840930808A0E0B0E034E0880F991FA5
:1057A000AA1FBB1F3A95D1F720E030E0F901E85578
:1057B000F54DE491EE2381F06C017D01022E04C0D1
:1057C000F694E794D794C7940A94D2F751E0C5169B
:1057D000D506E104F10438F02F5F3F4F2B3031053F
:1057E00029F780E020C0A1E0B0E002C0AA0FBB1FF3
:1057F0002A95E2F7A70196010E944632DC01CB010F
:1058000024E0B595A795979587952A95D1F790931C
:1058100005088093040810926E0082E084BDE5BD07
:10582000CA94C7BC81E0FF90EF90DF90CF900895BD
:10583000EEE6F0E0808182608083089578941F9284
:105840000F920FB60F9211242F933F934F935F93B4
:105850006F937F938F939F93AF93BF93EF93FF9338
:1058600010926E00E0910608F09107080995F894EF
:1058700080910808882311F016BCA99A80916E00C7
:10588000826080936E00FF91EF91BF91AF919F91E5
:105890008F917F916F915F914F913F912F910F90D9
:1058A0000FBE0F901F901895883028F0883110F0A7
:1058B000885101C08FEF87702091270290E4299FC3
:1058C00090011124822B80937C0080917A00806467
:1058D00080937A0080917A0086FDFCCF80917800D9
:1058E0002091790090E0922B0895833081F028F484
:1058F000813099F08230A1F008958730A9F0883086
:10590000B9F08430D1F4809180008F7D03C0809104
:1059100080008F7780938000089584B58F7702C0D0
:1059200084B58F7D84BD08958091B0008F7703C0CA
:105930008091B0008F7D8093B0000895CF93DF9366
:1059400090E0FC01ED52F54D2491FC01ED50F54D38
:105950008491882361F190E0880F991FFC01E95D33
:10596000F44DC591D491FC01E35EF44DA591B49141
:10597000611109C09FB7F89488812095822388839C
:10598000EC912E230BC0623061F49FB7F8943881FC
:10599000822F809583238883EC912E2B2C939FBF9D
:1059A00006C08FB7F894E8812E2B28838FBFDF9134
:1059B000CF9108951F93CF93DF93282F30E0F90103
:1059C000ED54F54D8491F901ED52F54DD491F90165
:1059D000ED50F54DC491CC23C9F0162F81110E94D2
:1059E000752CEC2FF0E0EE0FFF1FE35EF44DA59158
:1059F000B4918FB7F894111105C09C91ED2FE095EB
:105A0000E92302C0EC91ED2BEC938FBFDF91CF9196
:105A10001F910895CF93DF93282F30E0F901ED54C3
:105A2000F54D8491F901ED52F54DD491F901ED5008
:105A3000F54DC491CC2391F081110E94752CEC2F6F
:105A4000F0E0EE0FFF1FED5EF44DA591B491EC91E7
:105A5000ED2381E090E021F480E002C080E090E05E
:105A6000DF91CF910895FC01918D228D892F90E0D7
:105A7000805C9F4F821B91098F7399270895FC01C9
:105A8000918D828D981731F0828DE80FF11D858DF3
:105A900090E008958FEF9FEF0895FC01918D828D26
:105AA000981761F0828DDF01A80FB11D5D968C9172
:105AB000928D9F5F9F73928F90E008958FEF9FEF7D
:105AC000089587EC9EE2892B41F080E090E0892BDD
:105AD00021F00E94C72E81110DC080E090E0892B3B
:105AE00071F080E090E0892B51F00E94000081115C
:105AF00004C008950E940000F0CF0C9400000895A7
:105B0000FC01848DDF01A80FB11DA35ABF4F2C915A
:105B1000848D90E001968F739927848FA689B78929
:105B20002C93A089B1898C9180648C93938D848D02
:105B3000981306C00288F389E02D80818F7D8083D1
:105B40000895CF93DF93EC01888D8823C9F0EA890B
:105B5000FB89808185FD05C0A889B9898C9186FD66
:105B60000FC00FB607FCF5CF808185FFF2CFA88963
:105B7000B9898C9185FFEDCFCE010E94802DE7CFB2
:105B8000DF91CF910895EF92FF920F931F93CF93E0
:105B9000DF93EC0181E0888F9B8D8C8D981305C07D
:105BA000E889F989808185FD24C0F62E0B8D10E0EF
:105BB0000F5F1F4F0F731127E02E8C8DE8120CC062
:105BC0000FB607FCFACFE889F989808185FFF5CF08
:105BD000CE010E94802DF1CF8B8DFE01E80FF11DCB
:105BE000E35AFF4FF0820B8FEA89FB898081806244
:105BF00007C0EE89FF896083E889F9898081806424
:105C0000808381E090E0DF91CF911F910F91FF9011
:105C1000EF900895CF92DF92EF92FF921F93CF9370
:105C2000DF93EC016A017B01122FE889F98982E098
:105C300080834115514E61057105B1F060E079E056
:105C40008DE390E0A70196010E94DE31DA01C901DF
:105C50000197A109B109B695A79597958795AC01CC
:105C6000411580E15807A8F0E889F989108260E8B9
:105C700074E88EE190E0A70196010E94DE31BA013E
:105C8000A9014150510961097109769567955795A8
:105C90004795EC85FD855083EE85FF854083188E02
:105CA000EC89FD891083EA89FB898081806180838A
:105CB000EA89FB89808188608083EA89FB89808109
:105CC00080688083EA89FB8980818F7D8083DF9172
:105CD000CF911F91FF90EF90DF90CF9008951F928A
:105CE0000F920FB60F9211242F938F939F93EF93E0
:105CF000FF93E0911908F0911A088081E0911F0844
:105D0000F091200882FD12C09081809122088F5F5F
:105D10008F7320912308821751F0E0912208F0E060
:105D2000E75FF74F958F8093220801C08081FF9134
:105D3000EF919F918F912F910F900FBE0F901F9019
:105D400018951F920F920FB60F9211242F933F9325
:105D50004F935F936F937F938F939F93AF93BF9373
:105D6000EF93FF9389E098E00E94802DFF91EF91DF
:105D7000BF91AF919F918F917F916F915F914F9163
:105D80003F912F910F900FBE0F901F90189589E0B3
:105D900098E00E94332D21E0892B09F420E0822F26
:105DA0000895E9E0F8E01382128288EE93E0A0E023
:105DB000B0E084839583A683B7838AE792E09183DA
:105DC000808385EC90E09587848784EC90E09787CA
:105DD000868780EC90E0918B808B81EC90E0938BB8
:105DE000828B82EC90E0958B848B86EC90E0978B95
:105DF000868B118E128E138E148E0895CF92DF92A1
:105E0000EF92FF920F931F93CF93DF936C017A0170
:105E10008B01C0E0D0E0CE15DF0589F0D8016D918F
:105E20008D01D601ED91FC910190F081E02DC6012C
:105E30000995892B11F47E0102C02196ECCFC70190
:105E4000DF91CF911F910F91FF90EF90DF90CF9056
:105E5000089508950E94832F0E94292F0E94F1190E
:105E6000C1E6DDE20E949D1B2097E1F30E94612DB7
:105E7000F9CF1F920F920FB60F9211242F933F93D9
:105E80008F939F93AF93BF938091A7089091A80899
:105E9000A091A908B091AA083091A60823E0230F89
:105EA0002D3720F40196A11DB11D05C026E8230F52
:105EB0000296A11DB11D2093A6088093A708909378
:105EC000A808A093A908B093AA088091AB08909164
:105ED000AC08A091AD08B091AE080196A11DB11D0E
:105EE0008093AB089093AC08A093AD08B093AE0834
:105EF000BF91AF919F918F913F912F910F900FBEC6
:105F00000F901F901895789484B5826084BD84B5F5
:105F1000816084BD85B5826085BD85B5816085BDA4
:105F2000EEE6F0E0808181608083E1E8F0E01082BD
:105F3000808182608083808181608083E0E8F0E0FE
:105F4000808181608083E1EBF0E0808184608083E8
:105F5000E0EBF0E0808181608083EAE7F0E080811F
:105F6000846080838081826080838081816080837F
:105F70008081806880831092C10008955058BB27AB
:105F8000AA270E94D62F0C9427310E94193138F08D
:105F90000E94203120F039F49F3F19F426F40C942C
:105FA00016310EF4E095E7FB0C941031E92F0E94B6
:105FB000383158F3BA17620773078407950720F042
:105FC00079F4A6F50C945A310EF4E0950B2EBA2F05
:105FD000A02D0B01B90190010C01CA01A0011124EF
:105FE000FF27591B99F0593F50F4503E68F11A169B
:105FF000F040A22F232F342F4427585FF3CF46952C
:1060000037952795A795F0405395C9F77EF41F164D
:10601000BA0B620B730B840BBAF09150A1F0FF0F17
:10602000BB1F661F771F881FC2F70EC0BA0F621F03
:10603000731F841F48F4879577956795B795F795F3
:106040009E3F08F0B0CF9395880F08F09927EE0F88
