:100000000C948D150C94B5150C94B5150C94B51570
:100010000C94B5150C94B5150C94B5150C94B51538
:100020000C94B5150C94C8260C94B5150C94B51504
:100030000C94B5150C94B5150C94B5150C94B51518
:100040000C94432B0C94B5150C94BE2E0C94B51542
:100050000C94732D0C94A52D0C94B5150C94B5151A
:100060000C94C2280C94B5150C94A9290C94B515C0
:100070000C94B5150C94B5150C94B515021E681E9C
:100080003E1E261E8B1E8B1EF81D8B1EF81D8B1E02
:10009000F81DF81DF81D8B1EF81DF81D5C21672149
:1000A0007221AF21EC21F7212122FF5D757273725D
:1000B0007373727372737372737373737373737313
:1000C0007373737373737373737373737373737300
:1000D00073737373737373737373737373737373F0
:1000E00073737373737373737373737373737373E0
:1000F00073737373737373737373737373737373D0
:1001000073737373737373737373737373737373BF
:1001100073737373737373737373737373737373AF
:10012000737373737373737373737373737373739F
:10013000737373737373737373737373737373738F
:10014000737373737373737373737373737373737F
:10015000737373737373737373737373737373736F
:10016000737373737373737373737373737373735F
:10017000737373737373737373737373737373734F
:10018000737373737373737373737373737373733F
:100190007373737373737373737373737372737330
:1001A0007273727373727372755D00A28A8D8C8D17
:1001B0008C8C8D8C8D8C8C8D8C8C8C8C8C8C8C8C7C
:1001C0008C8C8C8C8C8C8C8C8C8C8C8C8C8C8C8C6F
:1001D0008C8C8C8C8C8C8C8C8C8C8C8C8C8C8C8C5F
:1001E0008C8C8C8C8C8C8C8C8C8C8C8C8C8C8C8C4F
:1001F0008C8C8C8C8C8C8C8C8C8C8C8C8C8C8C8C3F
:100200008C8C8C8C8C8C8C8C8C8C8C8C8C8C8C8C2E
:100210008C8C8C8C8C8C8C8C8C8C8C8C8C8C8C8C1E
:100220008C8C8C8C8C8C8C8C8C8C8C8C8C8C8C8C0E
:100230008C8C8C8C8C8C8C8C8C8C8C8C8C8C8C8CFE
:100240008C8C8C8C8C8C8C8C8C8C8C8C8C8C8C8CEE
:100250008C8C8C8C8C8C8C8C8C8C8C8C8C8C8C8CDE
:100260008C8C8C8C8C8C8C8C8C8C8C8C8C8C8C8CCE
:100270008C8C8C8C8C8C8C8C8C8C8C8C8C8C8C8CBE
:100280008C8C8C8C8C8C8C8C8C8C8C8C8C8C8C8CAE
:100290008C8C8C8C8C8C8C8C8C8C8C8C8C8D8C8C9D
:1002A0008C8C8D8C8C8D8C8D8AA27F7E7E7D7D7CCE
:1002B0007C7C7B7B7A7A79797878777776767574B7
:1002C000747473727271717070706F6F6E6E6D6C2A
:1002D0006C6B6B6B6A6A696868676766666565649C
:1002E000646463636261616060605F5F5E5E5D5D08
:1002F0005C5C5B5B5A5A5959585857575656555576
:10030000545453535252515150504F4F4E4E4D4DE5
:100310004C4C4B4A4A494948484747474646454559
:10032000444343424241414140403F3F3E3D3D3CCA
:100330003C3C3B3B3A393939383837373636353536
:100340003434333332313130302F2F2E2E2D2D2DAA
:100350002C2C2B2B2A2A2929282827272625252417
:10036000242423232222212020201F1F1E1E1D1C87
:100370001C1B1B1B1A1A19181818171716161515F7
:10038000141413131211111010100F0F0E0E0D0D67
:100390000C0C0B0B0A0909090808070706060505D6
:1003A0000404030302020101FFFFFEFEFDFDFCFB4E
:1003B000FBFAFAF9F9F9F8F8F7F7F6F6F5F5F4F3C8
:1003C000F3F2F2F2F1F1F0F0EFEFEEEEEDEDECEC36
:1003D000EBEBEAEAE9E9E8E8E7E7E6E6E5E5E4E4A5
:1003E000E3E3E2E2E1E1E0DFDFDEDEDDDDDCDCDB1A
:1003F000DBDADAD9D9D8D8D8D7D7D6D5D5D4D4D38B
:10040000D3D2D2D1D1D0D0D0CFCFCECECDCDCCCCF7
:10041000CBCBCAC9C9C8C8C7C7C7C6C6C5C5C4C467
:10042000C3C3C2C2C1C1C0C0BFBFBEBEBDBCBCBBD6
:10043000BBBBBABAB9B8B8B7B7B7B6B6B5B5B4B446
:10044000B3B2B2B1B1B1B0B0AFAEAEADADACACACB9
:10045000ABABAAAAA9A9A8A8A7A7A6A6A5A5A4A424
:10046000A3A2A2A1A1A1A0A09F9E9E9D9D9C9C9C99
:100470009B9A9A999998989797969695959494930C
:1004800093929292919190908F8F8E8E8D8D8C8C75
:100490008B8B8A8A898988888787868585848483E7
:1004A0008382828281818080808081818282828336
:1004B0008384848585868787888889898A8A8B8BC7
:1004C0008C8C8D8D8E8E8F8F909091919292929335
:1004D000939494959596969797989899999A9A9BAC
:1004E0009C9C9C9D9D9E9E9FA0A0A1A1A1A2A2A319
:1004F000A4A4A5A5A6A6A7A7A8A8A9A9AAAAABAB84
:10050000ACACACADADAEAEAFB0B0B1B1B1B2B2B3F8
:10051000B4B4B5B5B6B6B7B7B7B8B8B9BABABBBB65
:10052000BBBCBCBDBEBEBFBFC0C0C1C1C2C2C3C3D5
:10053000C4C4C5C5C6C6C7C7C7C8C8C9C9CACBCB46
:10054000CCCCCDCDCECECFCFD0D0D0D1D1D2D2D3B6
:10055000D3D4D4D5D5D6D7D7D8D8D8D9D9DADADB29
:10056000DBDCDCDDDDDEDEDFDFE0E1E1E2E2E3E398
:10057000E4E4E5E5E6E6E7E7E8E8E9E9EAEAEBEB03
:10058000ECECEDEDEEEEEFEFF0F0F1F1F2F2F2F374
:10059000F3F4F5F5F6F6F7F7F8F8F9F9F9FAFAFBE6
:1005A000FBFCFDFDFEFEFFFF000001010202030354
:1005B000040405050606070708080909090A0B0BC4
:1005C0000C0C0D0D0E0E0F0F101010111112131335
:1005D0001414151516161717181818191A1A1B1BA4
:1005E0001B1C1C1D1E1E1F1F202020212222232316
:1005F0002424242525262727282829292A2A2B2B85
:100600002C2C2D2D2D2E2E2F2F30303131323333F7
:10061000343435353636373738383939393A3B3B63
:100620003C3C3C3D3D3E3F3F4040414141424243D6
:10063000434445454646474747484849494A4A4B47
:100640004C4C4D4D4E4E4F4F5050515152525353B2
:100650005454555556565757585859595A5A5B5B22
:100660005C5C5D5D5E5E5F5F606060616162636394
:100670006464646565666667676868696A6A6B6B07
:100680006B6C6C6D6E6E6F6F707070717172727377
:100690007474747576767777787879797A7A7B7BE3
:1006A0007C7C7C7D7D7E7E7F00010204050708093D
:1006B0000B0C0E0F101213151617191A1B1D1E20E6
:1006C000212224252628292A2C2D2E2F313233357C
:1006D0003637383A3B3C3D3E40414243444546472D
:1006E000494A4B4C4D4E4F50515253545556575802
:1006F00059595A5B5C5D5E5E5F606162626364640F
:1007000065666667686869696A6A6B6B6C6C6D6D53
:100710006E6E6F6F6F7070707071717171727272D6
:1007200072727272737373737373737373727272A0
:100730007272727271717171707070706F6F6F6EB2
:100740006E6D6D6C6C6B6B6A6A696968686766660A
:1007500065646463626261605F5E5E5D5C5B5A59A2
:10076000595857565554535251504F4E4D4C4B4A71
:100770004947464544434241403E3D3C3B3A383779
:1007800036353332312F2E2D2C2A292826252422A6
:1007900021201E1D1C1A191716151312100F0E0CEE
:1007A0000B0908070504020100FEFDFBFAF8F7F645
:1007B000F4F3F1F0EFEDECEAE9E8E6E5E4E2E1DF9D
:1007C000DEDDDBDAD9D7D6D5D3D2D1D0CECDCCCAE7
:1007D000C9C8C7C5C4C3C2C1BFBEBDBCBBBAB9B816
:1007E000B6B5B4B3B2B1B0AFAEADACABAAA9A8A721
:1007F000A6A6A5A4A3A2A1A1A09F9E9D9D9C9B9BF4
:100800009A9999989797969695959494939392928E
:1008100091919090908F8F8F8F8E8E8E8E8D8D8DEB
:100820008D8D8D8D8C8C8C8C8C8C8C8C8C8C8D8D02
:100830008D8D8D8D8E8E8E8E8F8F8F8F90909091CF
:100840009192929393949495959696979798999957
:100850009A9B9B9C9D9D9E9FA0A1A1A2A3A4A5A69F
:10086000A6A7A8A9AAABACADAEAFB0B1B2B3B4B5B0
:10087000B6B8B9BABBBCBDBEC0C1C2C3C4C5C7C887
:10088000C9CACCCDCED0D1D2D3D5D6D7D9DADBDD3B
:10089000DEDFE1E2E4E5E6E8E9EAECEDEFF0F1F3D2
:1008A000F4F6F7F8FAFBFDFE002F59797F7F7F7F82
:1008B0007F7874757A7F7F7F7F7F7F7C7A7A7C7F79
:1008C0007F7F7F7F7F7E7C7C7D7F7F7F7F7F7F7F41
:1008D0007D7D7D7E7F7F7F7F7F7F7E7D7D7E7F7F35
:1008E0007F7F7F7F7E7E7E7E7F7F7F7F7F7F7F7E1D
:1008F0007E7E7F7F7F7F7F7F7F7E7E7E7F7F7F7F0D
:100900007F7F7F7E7E7E7F7F7F7F7F7F7F7F7E7EFC
:100910007F7F7F7F7F7F7F7F7E7E7F7F7F7F7F7FE9
:100920007F7F7F7E7F7F7F7F7F7F7F7F7F7F7F7FD8
:100930007F7F7F7F7F7F7F7F7F7F7F7F7F7F7F7FC7
:100940007F7F7F7F7F7F7F7F7F7F7F7F7F7F7F7FB7
:100950007F7F7F7F7F7F7F7F7F7F7F7F7F7F7F7FA7
:100960007F7F7F7F7F7F7F7F7F7F7F7F7F7F7F7F97
:100C30007F7F7F7F7F7F7F7E7E7F7F7F7F7F7F7FC6
:100C40007F7E7E7F7F7F7F7F7F7F7F7E7E7F7F7FB8
:100C50007F7F7F7F7F7E7E7E7F7F7F7F7F7F7F7EA8
:100C60007E7E7F7F7F7F7F7F7F7E7E7E7E7F7F7F9A
:100C70007F7F7F7E7D7D7E7F7F7F7F7F7F7E7D7D8F
:100C80007D7F7F7F7F7F7F7F7D7C7C7E7F7F7F7F7F
:100C90007F7F7C7A7A7C7F7F7F7F7F7F7A75747895
:100CA0007F7F7F7F7F79592F00D0A68680808080CC
:100CB00080878B8A85808080808080838585838003
:100CC000808080808081838382808080808080801B
:100CD0008282828180808080808081828281808007
:100CE00080808080818181818080808080808081FF
:100CF00081818080808080808081818180808080EF
:100D000080808080818180808080808080808181DF
:100D100080808080808080808081808080808080D2
:100D200080808081808080808080808080808080C2
:100D300080808080808080808080808080808080B3
:100D400080808080808080808080808080808080A3
:100D50008080808080808080808080808080808093
:100D60008080808080808080808080808080808083
:1010200080808080808080808080808080818080BF
:1010300080808080808080818180808080808080AE
:10104000808181808080808080808081818180809B
:10105000808080808081818180808080808080818C
:10106000818180808080808080818181818080807A
:101070008080808182828180808080808081828265
:101080008280808080808080828383818080808055
:10109000808083858583808080808080858A8B871F
:1010A000808080808086A6D08080808080808080C4
:1010B0008181818181818181828282828282828218
:1010C00082838383838383838484848484848484E9
:1010D00084858585858585858686868686868686B9
:1010E0008787878787878787888888888888888888
:1010F00089898989898989898A8A8A8A8A8A8A8A58
:101100008A8B8B8B8B8B8B8B8B8C8C8C8C8C8C8C29
:101110008D8D8D8D8D8D8D8D8D8E8E8E8E8E8E8EF8
:101120008F8F8F8F8F8F8F8F9090909090909090C7
:101130009191919191919191929292929292929297
:101140009393939393939393949494949494949467
:101150009495959595959595969696969696969638
:101160009697979797979797979898989898989809
:101170009899999999999999999A9A9A9A9A9A9AD9
:101180009B9B9B9B9B9B9B9B9B9C9C9C9C9C9C9CA8
:101190009C9D9D9D9D9D9D9D9E9E9E9E9E9E9E9E78
:1011A0009F9F9F9F9F9F9F9F9FA0A0A0A0A0A0A048
:1011B000A1A1A1A1A1A1A1A1A2A2A2A2A2A2A2A217
:1011C000A3A3A3A3A3A3A3A3A4A4A4A4A4A4A4A4E7
:1011D000A4A5A5A5A5A5A5A5A6A6A6A6A6A6A6A6B8
:1011E000A7A7A7A7A7A7A7A7A8A8A8A8A8A8A8A887
:1011F000A8A9A9A9A9A9A9A9A9AAAAAAAAAAAAAA59
:10120000ABABABABABABABABACACACACACACACAC26
:10121000ADADADADADADADADAEAEAEAEAEAEAEAEF6
:10122000AFAFAFAFAFAFAFAFAFB0B0B0B0B0B0B0C7
:10123000B0B1B1B1B1B1B1B1B2B2B2B2B2B2B2B297
:10124000B3B3B3B3B3B3B3B3B4B4B4B4B4B4B4B466
:10125000B5B5B5B5B5B5B5B5B6B6B6B6B6B6B6B636
:10126000B7B7B7B7B7B7B7B7B8B8B8B8B8B8B8B806
:10127000B8B9B9B9B9B9B9B9BABABABABABABABAD7
:10128000BBBBBBBBBBBBBBBBBCBCBCBCBCBCBCBCA6
:10129000BDBDBDBDBDBDBDBDBDBEBEBEBEBEBEBE77
:1012A000BFBFBFBFBFBFBFBFC0C0C0C0C0C0C0C046
:1012B000C1C1C1C1C1C1C1C1C1C2C2C2C2C2C2C217
:1012C000C2C3C3C3C3C3C3C3C4C4C4C4C4C4C4C4E7
:1012D000C4C5C5C5C5C5C5C5C5C6C6C6C6C6C6C6B8
:1012E000C7C7C7C7C7C7C7C7C8C8C8C8C8C8C8C886
:1012F000C9C9C9C9C9C9C9C9CACACACACACACACA56
:10130000CBCBCBCBCBCBCBCBCBCCCCCCCCCCCCCC26
:10131000CCCDCDCDCDCDCDCDCDCECECECECECECEF7
:10132000CFCFCFCFCFCFCFCFD0D0D0D0D0D0D0D0C5
:10133000D1D1D1D1D1D1D1D1D2D2D2D2D2D2D2D295
:10134000D2D3D3D3D3D3D3D3D4D4D4D4D4D4D4D466
:10135000D4D5D5D5D5D5D5D5D6D6D6D6D6D6D6D636
:10136000D6D7D7D7D7D7D7D7D8D8D8D8D8D8D8D806
:10137000D9D9D9D9D9D9D9D9D9DADADADADADADAD6
:10138000DADBDBDBDBDBDBDBDCDCDCDCDCDCDCDCA6
:10139000DCDDDDDDDDDDDDDDDDDEDEDEDEDEDEDE77
:1013A000DFDFDFDFDFDFDFDFDFE0E0E0E0E0E0E046
:1013B000E1E1E1E1E1E1E1E1E2E2E2E2E2E2E2E215
:1013C000E2E3E3E3E3E3E3E3E4E4E4E4E4E4E4E4E6
:1013D000E5E5E5E5E5E5E5E5E6E6E6E6E6E6E6E6B5
:1013E000E7E7E7E7E7E7E7E7E7E8E8E8E8E8E8E886
:1013F000E9E9E9E9E9E9E9E9EAEAEAEAEAEAEAEA55
:10140000EBEBEBEBEBEBEBEBECECECECECECECEC24
:10141000ECEDEDEDEDEDEDEDEDEEEEEEEEEEEEEEF6
:10142000EEEFEFEFEFEFEFEFF0F0F0F0F0F0F0F0C5
:10143000F0F1F1F1F1F1F1F1F1F2F2F2F2F2F2F296
:10144000F3F3F3F3F3F3F3F3F4F4F4F4F4F4F4F464
:10145000F4F5F5F5F5F5F5F5F6F6F6F6F6F6F6F635
:10146000F7F7F7F7F7F7F7F7F8F8F8F8F8F8F8F804
:10147000F8F9F9F9F9F9F9F9F9FAFAFAFAFAFAFAD6
:10148000FBFBFBFBFBFBFBFBFCFCFCFCFCFCFCFCA4
:10149000FDFDFDFDFDFDFDFDFDFEFEFEFEFEFEFE75
:1014A000FFFFFFFFFFFFFFFF000000000000000044
:1014B0000001010101010101010202020202020216
:1014C00003030303030303030404040404040404E4
:1014D00005050505050505050606060606060606B4
:1014E0000707070707070707070808080808080885
:1014F00009090909090909090A0A0A0A0A0A0A0A54
:101500000B0B0B0B0B0B0B0B0B0C0C0C0C0C0C0C24
:101510000D0D0D0D0D0D0D0D0D0E0E0E0E0E0E0EF4
:101520000F0F0F0F0F0F0F0F0F10101010101010C4
:101530001011111111111111121212121212121294
:101540001313131313131313141414141414141463
:101550001515151515151515151616161616161634
:101560001717171717171717181818181818181803
:101570001919191919191919191A1A1A1A1A1A1AD4
:101580001A1B1B1B1B1B1B1B1C1C1C1C1C1C1C1CA4
:101590001D1D1D1D1D1D1D1D1E1E1E1E1E1E1E1E73
:1015A0001F1F1F1F1F1F1F1F1F2020202020202044
:1015B0002121202121222121202222222222222215
:1015C00023232323232323232424242424242424E3
:1015D00024252525252525252626262626262626B4
:1015E0002727272727272727282828282828282883
:1015F00029292929292929292A2A2A2A2A2A2A2A53
:101600002A2B2B2B2B2B2B2B2B2C2C2C2C2C2C2C24
:101610002D2D2D2D2D2D2D2D2E2E2E2E2E2E2E2EF2
:101620002E2F2F2F2F2F2F2F2F30303030303030C4
:101630003131313131313131323232323232323292
:101640003333333333333333333434343434343463
:101650003535353535353535363636363636363632
:101660003637373737373737373838383838383804
:101670003939393939393939393A3A3A3A3A3A3AD3
:101680003A3B3B3B3B3B3B3B3C3C3C3C3C3C3C3CA3
:101690003D3D3D3D3D3D3D3D3E3E3E3E3E3E3E3E72
:1016A0003F3F3F3F3F3F3F3F404040404040404042
:1016B0004141414141414141424242424242424212
:1016C00043434343434343434444444444444444E2
:1016D00045454545454545454646464646464646B2
:1016E0004647474747474747484848484848484883
:1016F00049494949494949494A4A4A4A4A4A4A4A52
:101700004A4B4B4B4B4B4B4B4C4C4C4C4C4C4C4C22
:101710004C4D4D4D4D4D4D4D4D4E4E4E4E4E4E4EF3
:101720004F4F4F4F4F4F4F4F5050505050505050C1
:101730005051515151515151525252525252525292
:101740005253535353535353545454545454545462
:101750005455555555555555565656565656565632
:101760005657575757575757585858585858585802
:101770005859595959595959595A5A5A5A5A5A5AD3
:101780005B5B5B5B5B5B5B5B5C5C5C5C5C5C5C5CA1
:101790005D5D5D5D5D5D5D5D5E5E5E5E5E5E5E5E71
:1017A0005F5F5F5F5F5F5F5F606060606060606041
:1017B0006161616161616161616262626262626212
:1017C00063636363636363636364646464646464E2
:1017D00065656565656565656566666666666666B2
:1017E0006767676767676767686868686868686881
:1017F00069696969696969696A6A6A6A6A6A6A6A51
:101800006B6B6B6B6B6B6B6B6C6C6C6C6C6C6C6C20
:101810006D6D6D6D6D6D6D6D6E6E6E6E6E6E6E6EF0
:101820006F6F6F6F6F6F6F6F7070707070707070C0
:101830007171717171717171717272727272727291
:101840007373737373737373747474747474747460
:101850007475757575757575757676767676767632
:101860007777777777777777777878787878787801
:101870007879797979797979797A7A7A7A7A7A7AD2
:101880007B7B7B7B7B7B7B7B7C7C7C7C7C7C7C7CA0
:101890007D7D7D7D7D7D7D7D7D7E7E7E7E7E7E7E71
:1018A0007F7F7F7F7F7F7F7F00000000010101013C
:1018B00002020202030303030404040404050505F1
:1018C00005060606070707070808080809090909A1
:1018D0000A0A0A0A0B0B0B0B0B0C0C0C0D0D0D0D51
:1018E0000E0E0E0E0F0F0F0F101010101111111100
:1018F00011121212121313131314141414151515B4
:101900001516161616171717181818181919191961
:101910001A1A1A1A1B1B1B1B1C1C1C1C1D1D1D1D0F
:101920001E1E1E1E1F1F1F1F2020202020212120C1
:10193000222222222323232324242424252525256F
:101940002626262627272727282828282829292920
:10195000292A2A2A2A2B2B2B2C2C2C2C2D2D2D2DD1
:101960002E2E2E2E2F2F2F2F30303030313131317F
:101970003132323233333333343434343435353531
:1019800036363636363737373838383838393939E1
:101990003A3A3A3A3B3B3B3B3C3C3C3C3C3D3D3D90
:1019A0003E3E3E3E3E3F3F3F3F4040404141414141
:1019B00041424242424343434444444445454545F1
:1019C000464646464747474748484848494949499F
:1019D000494A4A4A4A4B4B4B4C4C4C4C4D4D4D4D51
:1019E0004D4E4E4E4E4F4F4F505050505151515101
:1019F00051525252535353535454545455555555B0
:101A00005556565656575757585858585859595961
:101A10005A5A5A5A5B5B5B5B5C5C5C5C5C5D5D5D0F
:101A20005E5E5E5E5F5F5F5F5F60606061616161BF
:101A3000626262626363636363646464656565656F
:101A40006566666666676767676868686969696921
:101A5000696A6A6A6A6B6B6B6C6C6C6C6D6D6D6DD0
:101A60006E6E6E6E6F6F6F6F70707070707171717F
:101A70007172727272737373737474747475757532
:101A800075767676777777777878787878797979E0
:101A90007A7A7A7A7B7B7B7B7C7C7C7C7D7D7D7D8E
:101AA0007D7E7E7E7F7F7F7F7F7F7F7E7E7E7E7E50
:101AB0007D7D7D7D7C7C7C7C7B7B7B7B7A7A7A7A6E
:101AC000797979797878787877777777767676769E
:101AD00075757575747474747373737372727271CF
:101AE000717171707070706F6F6F6F6E6E6E6E6D02
:101AF0006D6D6D6D6C6C6C6C6B6B6B6B6A6A6A692F
:101B0000696969686868686867676766666666665F
:101B10006565656564646463636363626262626190
:101B200061616160606060605F5F5F5E5E5E5E5DC0
:101B30005D5D5D5C5C5C5C5B5B5B5B5B5A5A5A5AEF
:101B4000595959595858585857575757565656561D
:101B5000555555545454545453535353525252514F
:101B6000515151505050504F4F4F4F4E4E4E4E4E80
:101B70004D4D4D4D4C4C4C4C4B4B4B4A4A4A4A4AAE
:101B800049494949484848484747474746464645DE
:101B9000454545454444444443434343424242410E
:101BA000414141414040403F3F3F3F3F3E3E3E3E3E
:101BB0003D3D3D3C3C3C3C3C3B3B3B3B3A3A3A3A6E
:101BC000393939383838383837373737363636369E
:101BD00035353535343434333333333232323232CF
:101BE000313131313030302F2F2F2F2E2E2E2E2EFF
:101BF0002D2D2D2D2C2C2C2B2B2B2B2A2A2A2A2930
:101C0000292929292828282827272726262626265D
:101C1000252525242424242423232322222222218F
:101C200021202121202020201F1F1F1F1E1E1E1EBD
:101C30001D1D1D1D1C1C1C1B1B1B1B1B1A1A1A19EE
:101C4000191919191818181817171717161616161C
:101C5000151515151414141313131313121212124D
:101C600011111110101010100F0F0F0F0E0E0E0E7D
:101C70000D0D0D0D0C0C0C0C0B0B0B0B0A0A0A0AAC
:101C800009090909080808080707070606060605DE
:101C9000050505050404040403030303020202010D
:101CA0000101010100000000FFFFFFFEFEFEFEFD3E
:101CB000FDFDFDFCFCFCFCFBFBFBFBFAFAFAFAFA6F
:101CC000F9F9F9F8F8F8F8F8F7F7F7F7F6F6F6F59E
:101CD000F5F5F5F4F4F4F4F4F3F3F3F3F2F2F2F1CE
:101CE000F1F1F1F1F0F0F0F0EFEFEFEEEEEEEEEDFE
:101CF000EDEDEDEDECECECEBEBEBEBEBEAEAEAEA2D
:101D0000E9E9E9E9E8E8E8E7E7E7E7E7E6E6E6E65C
:101D1000E5E5E5E4E4E4E4E3E3E3E3E3E2E2E2E18E
:101D2000E1E1E1E0E0E0E0E0DFDFDFDFDEDEDEDDBD
:101D3000DDDDDDDCDCDCDCDCDBDBDBDADADADAD9EE
:101D4000D9D9D9D8D8D8D8D8D7D7D7D7D6D6D6D51D
:101D5000D5D5D5D4D4D4D4D3D3D3D3D2D2D2D2D14F
:101D6000D1D1D1D0D0D0D0D0CFCFCFCFCECECECE7C
:101D7000CDCDCDCDCCCCCCCBCBCBCBCACACACAC9AE
:101D8000C9C9C9C8C8C8C8C7C7C7C7C6C6C6C6C5DF
:101D9000C5C5C5C4C4C4C4C4C3C3C3C3C2C2C2C10D
:101DA000C1C1C1C1C0C0C0C0BFBFBFBFBEBEBEBD3C
:101DB000BDBDBDBDBCBCBCBCBBBBBBBBBABABABA6B
:101DC000B9B9B9B9B8B8B8B8B7B7B7B7B6B6B6B69B
:101DD000B5B5B5B5B4B4B4B4B3B3B3B3B2B2B2B2CB
:101DE000B1B1B1B1B0B0B0B0AFAFAFAEAEAEAEAEFC
:101DF000ADADADADACACACABABABABAAAAAAAAA92E
:101E0000A9A9A9A8A8A8A8A7A7A7A7A7A6A6A6A55D
:101E1000A5A5A5A5A4A4A4A3A3A3A3A2A2A2A2A18D
:101E2000A1A1A1A1A0A0A0A09F9F9F9F9E9E9E9EBA
:101E30009D9D9D9D9C9C9C9C9B9B9B9B9A9A9A9AEA
:101E4000999999989898989797979797969696961C
:101E5000959595949494949393939393929292924C
:101E6000919191919090908F8F8F8F8F8E8E8E8E7B
:101E70008D8D8D8C8C8C8C8B8B8B8B8A8A8A8A89AE
:101E800089898989888888888787878686868686DB
:101E9000858585858484848483838382828282810C
:101EA000818181818080808080808080818181812A
:101EB00081828282838383838384848485858585EC
:101EC000868686868787878787888888888989899C
:101ED0008A8A8A8A8A8B8B8B8C8C8C8C8D8D8D8D4B
:101EE0008D8E8E8E8E8F8F8F9090909091919191FC
:101EF00092929292939393939494949495959595AA
:101F0000969696969797979797989898999999995A
:101F10009A9A9A9A9A9B9B9B9C9C9C9C9D9D9D9D0A
:101F20009E9E9E9E9F9F9F9F9FA0A0A0A1A1A1A1BA
:101F3000A1A2A2A2A2A3A3A3A4A4A4A4A4A5A5A56C
:101F4000A5A6A6A6A7A7A7A7A7A8A8A8A9A9A9A91B
:101F5000AAAAAAAAAAABABABACACACACACADADADCB
:101F6000AEAEAEAEAEAFAFAFAFB0B0B0B1B1B1B17B
:101F7000B2B2B2B2B2B3B3B3B3B4B4B4B5B5B5B52B
:101F8000B6B6B6B6B6B7B7B7B7B8B8B8B9B9B9B9DB
:101F9000BABABABABBBBBBBBBCBCBCBCBDBDBDBD89
:101FA000BEBEBEBEBEBFBFBFC0C0C0C0C0C1C1C13B
:101FB000C2C2C2C2C2C3C3C3C3C4C4C4C5C5C5C5EB
:101FC000C6C6C6C6C6C7C7C7C7C8C8C8C8C9C9C99C
:101FD000C9CACACACBCBCBCBCBCCCCCCCCCDCDCD4C
:101FE000CDCECECECFCFCFCFCFD0D0D0D1D1D1D1FB
:101FF000D2D2D2D2D2D3D3D3D3D4D4D4D4D5D5D5AC
:10200000D5D6D6D6D7D7D7D7D8D8D8D8D8D9D9D95A
:10201000D9DADADADBDBDBDBDBDCDCDCDCDDDDDD0B
:10202000DEDEDEDEDEDFDFDFE0E0E0E0E1E1E1E1B9
:10203000E1E2E2E2E3E3E3E3E4E4E4E4E4E5E5E56A
:10204000E5E6E6E6E6E7E7E7E8E8E8E8E9E9E9E91A
:10205000E9EAEAEAEBEBEBEBECECECECEDEDEDEDC9
:10206000EDEEEEEEEFEFEFEFF0F0F0F0F1F1F1F179
:10207000F2F2F2F2F3F3F3F3F3F4F4F4F5F5F5F529
:10208000F5F6F6F6F7F7F7F7F8F8F8F8F9F9F9F9D9
:10209000FAFAFAFAFBFBFBFBFBFCFCFCFDFDFDFD89
:1020A000FEFEFEFEFFFFFFFF000000010101020235
:1020B00003030304040505050606070707080809C6
:1020C00009090A0A0A0B0B0C0C0C0D0D0E0E0E0F53
:1020D0000F101010111112121213131314141515DE
:1020E00015161617171718181819191A1A1A1B1B6C
:1020F0001C1C1C1D1D1D1E1E1F1F1F2020202121FA
:102100002222222323242424252525262627272787
:1021100028282829292A2A2A2B2B2B2C2C2C2D2D18
:102120002E2E2E2F2F2F30303031313232323333AA
:10213000333434343535363636373737383838393E
:1021400039393A3A3A3B3B3B3C3C3D3D3D3E3E3ED5
:102150003F3F3F404040414141424242434343446C
:102160004444454545464646474747484848494907
:10217000494A4A4A4A4B4B4B4C4C4C4D4D4D4E4EA6
:102180004E4F4F4F4F505050515151525252535346
:1021900053535454545555555556565657575757EB
:1021A000585858595959595A5A5A5B5B5B5B5C5C91
:1021B0005C5C5D5D5D5E5E5E5E5F5F5F5F6060603C
:1021C00060616161616262626263636363646464EB
:1021D000646565656566666666676767676768689C
:1021E000686869696969696A6A6A6A6B6B6B6B6B53
:1021F0006C6C6C6C6C6D6D6D6D6D6E6E6E6E6E6F0D
:102200006F6F6F6F707070707071717171717172CA
:10221000727272727373737373737474747474748C
:102220007575757575757576767676767677777752
:10223000777777777778787878787878797979791F
:10224000797979797A7A7A7A7A7A7A7A7A7B7B7BEF
:102250007B7B7B7B7B7B7B7C7C7C7C7C7C7C7C7CC5
:102260007C7C7D7D7D7D7D7D7D7D7D7D7D7D7D7E9F
:102270007E7E7E7E7E7E7E7E7E7E7E7E7E7E7E7E7E
:102280007F7F7F7F7F7F7F7F7F7F7F7F7F7F7F7F5E
:102290007F7F7F7F7F7F7F7F7F7F7F7F7F7F7F7F4E
:1022A0007F7F7F7F7F7F7F7F7F7F7F7F7F7F7F7F3E
:1022B0007F7F7F7F7F7F7F7F7F7F7F7F7F7F7F7F2E
:1022C0007F7F7F7F7F7F7F7F7F7F7F7F7F7F7F7F1E
:1022D0007F7E7E7E7E7E7E7E7E7E7E7E7E7E7E7E1D
:1022E0007E7E7D7D7D7D7D7D7D7D7D7D7D7D7D7C1D
:1022F0007C7C7C7C7C7C7C7C7C7C7B7B7B7B7B7B24
:102300007B7B7B7B7A7A7A7A7A7A7A7A7A7979792C
:10231000797979797978787878787878777777773C
:102320007777777676767676767675757575757550
:102330007574747474747473737373737372727268
:10234000727271717171717170707070706F6F6F86
:102350006F6F6E6E6E6E6E6D6D6D6D6D6C6C6C6CA8
:102360006C6B6B6B6B6B6A6A6A6A6A6969696968CC
:1023700068686867676767676666666665656565F6
:102380006464646463636363626262626161616125
:10239000606060605F5F5F5F5E5E5E5E5D5D5D5C56
:1023A0005C5C5C5B5B5B5B5A5A5A5959595958588B
:1023B00058575757575656565555555554545453C4
:1023C0005353535252525151515050504F4F4F4FFF
:1023D0004E4E4E4D4D4D4C4C4C4B4B4B4A4A4A4A3F
:1023E0004949494848484747474646464545454480
:1023F00044444343434242424141414040403F3FC5
:102400003F3E3E3E3D3D3D3C3C3B3B3B3A3A3A390C
:102410003939383838373737363636353534343455
:1024200033333332323231313030302F2F2F2E2EA2
:102430002E2D2D2C2C2C2B2B2B2A2A2A29292828EF
:10244000282727272626252525242424232322223E
:102450002222212120201F1F1F1E1E1D1D1D1C1C8E
:102460001C1B1B1A1A1A19191818181717171616E1
:102470001515151414131313121212111110101034
:102480000F0F0E0E0E0D0D0C0C0C0B0B0A0A0A0989
:1024900009090808070707060605050504040303DC
:1024A0000302020101010000FFFFFFFEFEFEFDFD31
:1024B000FCFCFCFBFBFAFAFAF9F9F8F8F8F7F7F686
:1024C000F6F6F5F5F5F4F4F3F3F3F2F2F1F1F1F0D9
:1024D000F0EFEFEFEEEEEDEDEDECECECEBEBEAEA2E
:1024E000EAE9E9E8E8E8E7E7E7E6E6E5E5E5E4E480
:1024F000E3E3E3E2E2E2E1E1E0E0E0DFDFDFDEDED2
:10250000DDDDDDDCDCDBDBDBDADADAD9D9D8D8D823
:10251000D7D7D7D6D6D6D5D5D4D4D4D3D3D3D2D271
:10252000D1D1D1D0D0D0CFCFCFCECECDCDCDCCCCC0
:10253000CCCBCBCBCACAC9C9C9C8C8C8C7C7C7C60C
:10254000C6C6C5C5C5C4C4C4C3C3C2C2C2C1C1C155
:10255000C0C0C0BFBFBFBEBEBEBDBDBDBCBCBCBB9E
:10256000BBBBBABABAB9B9B9B8B8B8B7B7B7B6B6E3
:10257000B6B5B5B5B5B4B4B4B3B3B3B2B2B2B1B124
:10258000B1B0B0B0B0AFAFAFAEAEAEADADADACAC64
:10259000ACACABABABAAAAAAAAA9A9A9A8A8A8A89F
:1025A000A7A7A7A6A6A6A6A5A5A5A4A4A4A4A3A3D9
:1025B000A3A3A2A2A2A1A1A1A1A0A0A0A09F9F9F0E
:1025C0009F9E9E9E9E9D9D9D9D9C9C9C9C9B9B9B3F
:1025D0009B9A9A9A9A99999999989898989897976E
:1025E0009797969696969695959595949494949497
:1025F00093939393939292929292919191919190BD
:10260000909090908F8F8F8F8F8E8E8E8E8E8E8DDE
:102610008D8D8D8D8C8C8C8C8C8C8B8B8B8B8B8BFC
:102620008A8A8A8A8A8A8A89898989898989888815
:102630008888888888878787878787878686868629
:102640008686868685858585858585858584848439
:102650008484848484848483838383838383838343
:102660008383828282828282828282828282828149
:10267000818181818181818181818181818181814A
:10268000808080808080808080808080808080804A
:10269000808080808080808080808080808080803A
:1026A000808080808080808080808080808080802A
:1026B000808080808080808080808080808080801A
:1026C000808080808080808080808080808080800A
:1026D00080818181818181818181818181818181EB
:1026E00081818282828282828282828282828283CB
:1026F00083838383838383838383848484848484A4
:10270000848484848585858585858585858686867A
:10271000868686868687878787878787888888884A
:10272000888888888989898989898A8A8A8A8A8A17
:102730008A8B8B8B8B8B8B8C8C8C8C8C8C8D8D8DDE
:102740008D8D8E8E8E8E8E8E8F8F8F8F8F909090A0
:10275000909091919191919292929292939393935E
:102760009394949494949595959596969696969719
:102770009797979898989898999999999A9A9A9AD0
:102780009B9B9B9B9C9C9C9C9D9D9D9D9E9E9E9E81
:102790009F9F9F9FA0A0A0A0A1A1A1A1A2A2A2A330
:1027A000A3A3A3A4A4A4A4A5A5A5A6A6A6A6A7A7DB
:1027B000A7A8A8A8A8A9A9A9AAAAAAAAABABABAC82
:1027C000ACACACADADADAEAEAEAFAFAFB0B0B0B027
:1027D000B1B1B1B2B2B2B3B3B3B4B4B4B5B5B5B5C7
:1027E000B6B6B6B7B7B7B8B8B8B9B9B9BABABABB66
:1027F000BBBBBCBCBCBDBDBDBEBEBEBFBFBFC0C001
:10280000C0C1C1C1C2C2C2C3C3C4C4C4C5C5C5C698
:10281000C6C6C7C7C7C8C8C8C9C9C9CACACBCBCB2F
:10282000CCCCCCCDCDCDCECECFCFCFD0D0D0D1D1C2
:10283000D1D2D2D3D3D3D4D4D4D5D5D5D6D6D7D755
:10284000D7D8D8D8D9D9DADADADBDBDBDCDCDDDDE6
:10285000DDDEDEDEDFDFE0E0E0E1E1E2E2E2E3E375
:10286000E3E4E4E5E5E5E6E6E7E7E7E8E8E8E9E903
:10287000EAEAEAEBEBECECECEDEDEDEEEEEFEFEF90
:10288000F0F0F1F1F1F2F2F3F3F3F4F4F5F5F5F61B
:10289000F6F6F7F7F8F8F8F9F9FAFAFAFBFBFCFCA8
:1028A000FCFDFDFEFEFEFFFF0000000076A9080013
:1028B000512D090004B90900054D0A00D3E90A00A9
:1028C000F48F0B00F63F0C0070FA0C0000C00D00F6
:1028D0004F910E00116F0F00025A1000EC521100C0
:1028E000A35A1200087213000A9A1400A6D3150006
:1028F000E91F1700ED7F1800E0F4190000801B00AD
:102900009E221D0022DE1E0004B42000D8A5220055
:1029100046B5240010E42600153429004DA72B00ED
:10292000D23F2E00DAFF3000C0E93300FFFF36004F
:102930003D453A0044BC3D0008684100AF4B4500AE
:102940008C6A490020C84D002A6852009C4E5700EE
:10295000A47F5C00B4FF610080D36700FFFF6D00BF
:102960007B8A740089787B0011D082005F978A008F
:1029700018D5920041909B0053D0A400339DAE0027
:1029800046FFB80069FFC30000A7CF00FDFFDB00D2
:10299000F414E9000BF1F60020A00501BE2E15018C
:1029A00030AA250182203701A6A04901663A5D01BF
:1029B0008CFE7101D2FE8701004E9F01FAFFB70124
:1029C000F229D20120E2ED0140400B027C5D2A0297
:1029D0004C544B0204416E024C419302CC74BA0237
:1029E00028FDE302A4FD0F03009C3E03F4FF6F03E8
:1029F000E453A40340C4DB0380801604F8BA5404F3
:102A000098A896040882DC049882260598E9740543
:102A100030FAC70548FB1F0600387D06E8FFDF06D1
:102A2000C8A748078088B70700012D08F075A908D6
:102A300030512D091004B90930054D0AA0D3E90A17
:102A4000A0F48F0B00F63F0CC06FFA0C70FFBF0DA7
:102A5000804E910EB0106F0FA0015A10E0EB521192
:102A600060A25A1220087213600A9A1440A7D31564
:102A700040E81F1700EC7F1880DFF419E0FE7F1B91
:102A8000009D221D6021DE1E4003B420C0D7A52278
:102A9000C044B5244010E426C0143429804EA72B2E
:102AA00080D23F2E00D8FF3001000002000003005A
:102AB00004000501020408102040800102040810EF
:102AC0002040800102040810204080010204081008
:102AD00020408002020202020202020404040404F2
:102AE00004040403030303030303030101010101BD
:102AF000010101000020002300260029000000221F
:102B000000250028002B0000002100240027002AB7
:102B1000000073240328F428D52D11241FBECFEF05
:102B2000D0E1DEBFCDBF11E0A0E0B1E0EAEAF3E61C
:102B300002C005900D92A83DB107D9F728E0A8ED95
:102B4000B1E001C01D92AC31B207E1F715E1CDE86B
:102B5000D5E104C02197FE010E94A431C938D107F4
:102B6000C9F70E94AF2E0C94D3310C94000065304D
:102B700099F018F4613031F00895673049F164310B
:102B800051F1089550E0440F551F4F5F5F4F509330
:102B90003D0240933C020895423020F081E0809352
:102BA0004F0202C010924F0288E0489FA0011124FA
:102BB000052E000C660B770B23E0769567955795ED
:102BC00047952A95D1F75093B5024093B4020895E2
:102BD0004093A701089550E0FA01EE0FFF1FEE0F9A
:102BE000FF1FE850FF4F80819181A281B3818093C4
:102BF000AC019093AD01A093AE01B093AF01440F2F
:102C0000551F440F551FFA01E05FFE4F80819181EF
:102C1000A281B3818093A8019093A901A093AA01F6
:102C2000B093AB0108956D3F71053CF46A3F7105A7
:102C300054F4683F710589F406C09B012E5F310989
:102C40002230310550F4DC018D919C91DC01ED9135
:102C5000FC910190F081E02D09940895DC01ED9143
:102C6000FC910190F081E02D0994DC01ED91FC9143
:102C70000190F081E02D0994FC0180819181DB01BC
:102C8000A81BB90B20853185428553850E94CB3125
:102C9000BB2797FDBA95A92F982F872F24813581BF
:102CA000820F931F08958F929F92AF92BF92CF92FF
:102CB000DF92EF92FF921F93CF93DF93FC0111817C
:102CC00024813581C681D781D901AC1BBD0B82819E
:102CD00093816901032E000CEE08FF08AB01421B33
:102CE000530B4A01550FAA08BB089C010E94B93139
:102CF000BB2797FDBA95A92F982F872FA50194017F
:102D0000280F391F4A1F5B1FA12FB0E00E94C0315E
:102D1000BB2797FDBA95A92F982F872F8C0D9D1D46
:102D2000AE1DBF1D95838483BC016C1B7D0B169F5C
:102D3000C001179F900D1124892F990F990B8C0FAB
:102D40009D1F97838683DF91CF911F91FF90EF9016
:102D5000DF90CF90BF90AF909F908F900895EF92AB
:102D6000FF920F931F93CF93DF9380E890E00E9430
:102D70001227C5E4D4E026E042E15AE760E070E0C3
:102D80008CA19DA10E940E2D1EA218A61FA21FA6F7
:102D90001EA61DA61CA68FEF9FEF99AB88AB9BAB21
:102DA0008AAB1092FF041FAA1EAA1DAA18AE19AE64
:102DB000E9E7F4E0808181708260816080838BE04C
:102DC00099E19B838A839983888389E198E19D8730
:102DD0008C8787EB95E19F838E831092B5021092CA
:102DE000B402EEEFF2E04AEF4587458B458F51E0A4
:102DF00055A315A60CE010E0108B0787E080F1804A
:102E00009701ACE0B0E00E94AA31618B728B838B9A
:102E1000948BCEEDDFE0D08FC78BAEEDBFE00E948C
:102E2000AA31618F728F838F948FE5ECF2E0458732
:102E3000458B458F55A315A6108B0787408151817F
:102E40009A01ACE0B0E00E94AA31618B728B838B57
:102E5000948BD08FC78BAEEDBFE00E94AA31618FFB
:102E6000728F838F948FDF91CF911F910F91FF907D
:102E7000EF900895CF92DF92EF92FF920F931F93FE
:102E8000A09148028AE0A89FD0011124FD01E551DC
:102E9000FC4F0481158126813781408151816281F7
:102EA0007381400F511F621F731F408351836283E0
:102EB0007383CB0197700084F185E02DE80FF91F33
:102EC0006491062E000C770B7093600260935F0292
:102ED000AF56BC4F1496CD90DD90ED90FC901797B7
:102EE0000D911D912D913C9113970C0D1D1D2E1DC3
:102EF0003F1D0D931D932D933C931397C90197701C
:102F00001896ED91FC911997E80FF91F8491082EFE
:102F1000000C990B90935E0280935D0210915A020F
:102F200089E692E00E945316212F30E0DC010E94D6
:102F3000B9316B017C011091590260915D02709171
:102F40005E0281E692E00E945316212F30E0DC0100
:102F50000E94B931DC01CB018C0D9D1DAE1DBF1D42
:102F600024E0B595A795979587952A95D1F71F9158
:102F70000F91FF90EF90DF90CF9008950C94A226D0
:102F8000FC012FB7F894CB01770FAA0BBB0B3DE0E8
:102F9000880F991FAA1FBB1F3A95D1F78483958389
:102FA000A683B7832FBF0895FC0180AD8823C9F0A5
:102FB0002FB7F89484A995A9A6A9B7A940A951A9A2
:102FC00062A973A9840F951FA61FB71F80AB91AB91
:102FD000A2ABB3AB2FBF80A991A9A2A9B3A98A2F95
:102FE000089580E008950F931F93CF938C01CB0138
:102FF000BA01CFB7F89420E030E040E055E40E94F9
:10300000E63020E030E040E858E30E94E63020E07F
:1030100030E040E857E40E94E6300E942930F80191
:103020006483758386839783CFBFCF911F910F9160
:103030000895CF92DF92EF92FF920F931F93CF9359
:10304000DF9300914B0210914C02C0914902D09144
:103050004A0216161706ACF4072E000C880B990BC3
:103060000E945A3020E030E040E059E30E94E63010
:103070002091AC013091AD014091AE015091AF0172
:1030800017C061157105D9F1072E000C880B990B3B
:103090000E945A3020E030E040E059E30E94E630E0
:1030A0002091A8013091A9014091AA015091AB0152
:1030B0000E94E63020E030E040E85FE30E94442FC9
:1030C0006B017C01B801110F880B990B0E945A30DB
:1030D000A70196010E94E630609354027093550256
:1030E0008093560290935702BE01DD0F880B990B17
:1030F0000E945A30A70196010E94E63014C0B80120
:10310000110F880B990B0E945A30609354027093F0
:1031100055028093560290935702BE01DD0F880B33
:10312000990B0E945A306093500270935102809321
:103130005202909353024091540250915502609173
:1031400056027091570280914802CAE0C89FC001A0
:10315000112485519C4F0E94F317409150025091C9
:103160005102609152027091530280914802C89FAF
:10317000C00111248F569C4FDF91CF911F910F9169
:10318000FF90EF90DF90CF900C94F317CF92DF92E7
:10319000EF92FF920F931F93CF93DF93EC018B017C
:1031A0001B821A82FB01818192819D838C83C8A836
:1031B000D9A8EAA8FBA86781862F90E0A0E0B0E03C
:1031C000DC0199278827BC01CD016C197D098E0986
:1031D0009F0923813481458156810E9485312CAB22
:1031E0003DAB4EAB5FAB1FA70EA7DF91CF911F91F9
:1031F0000F91FF90EF90DF90CF900895CF93DF93E2
:10320000EC01BC016A5F7F4F0E94C61881E088AF65
:10321000DF91CF9108953F924F925F926F927F928C
:103220008F929F92AF92BF92CF92DF92EF92FF92D6
:103230000F931F93CF93DF93C62FD0E0411128C087
:103240008091B2019091B301C817D90761F46CE184
:1032500073E08EEF92E00E94C61881E890E09093B0
:10326000B3018093B2018091B0019091B101C81770
:10327000D90709F0E4C063EE72E085EC92E00E94A9
:10328000C61881E890E09093B1018093B001D7C057
:1032900020914F02862F90E0A0E0B0E0342E330C56
:1032A000222309F454C07C01DD24CC24C701B601DB
:1032B0000E94FB286093B6027093B7028093B80215
:1032C0009093B9020091B4021091B5024090BD02F2
:1032D0005090BE026090BF027090C0020E945830B1
:1032E0004B015C01C301B2010E9458309B01AC014B
:1032F000C501B4010E94432F4B015C01B801012EAE
:10330000000C880B990B0E9458309B01AC01C50141
:10331000B4010E94B02F0E9422306093C1027093CA
:10332000C2028093C3029093C4021093B30200932D
:10333000B20281E08093BA02D093B101C093B00190
:1033400080914F02811169C0C701B6014BC0209125
:10335000B2013091B3012138310559F02091B40107
:103360002230D1F52091B0013091B10121383105E1
:103370009CF5D093B301C093B201772766270E94D2
:10338000FB280E94583020E030E040E857E30E94DC
:10339000E6300E94223070934C0260934B022091E1
:1033A00048024AE0249F90011124C90185519C4F95
:1033B0000E94C01730920B033092130330921B030C
:1033C000C1E0C093230310922B038EEF92E00E9482
:1033D000FE18C093B40133C0D093B101C093B001C3
:1033E000772766270E94FB280E94583020E030E0B3
:1033F00040E857E30E94E6300E94223070934A0270
:1034000060934902209148024AE0249F90011124D0
:10341000C9018F569C4F0E94C0173092D202309241
:10342000DA023092E20281E08093EA021092F20224
:1034300085EC92E00E94FE1882E08093B401DF9157
:10344000CF911F910F91FF90EF90DF90CF90BF90A1
:10345000AF909F908F907F906F905F904F903F9034
:103460000895FC01228133812F5F3F4F33832283F4
:10347000448155812417350710F00C94C61808951F
:10348000DC019E96ED91FC919F972081223099F06E
:1034900028F4222341F0213051F00895233079F0AF
:1034A000243091F00895BC01625F7F4F0BC0BC01D6
:1034B0006A5E7F4F07C0BC01625E7F4F03C0BC01E4
:1034C0006A5D7F4F0C94311AFC0110AE0895DC0147
:1034D000D6968D919C91D797813F910509F4BCC0F8
:1034E0003CF5803B910509F45FC07CF4803991057F
:1034F000E9F1803A910509F474C08038910509F02A
:10350000D8C0ED91FC91119770C0803D910509F4F0
:1035100078C02CF4803C910509F478C00895803E71
:10352000910509F446C0803F910509F47CC00895D7
:103530008A3F910529F174F4833F910509F4A4C0F1
:103540000CF48FC0863F910509F4A7C0883F910510
:1035500091F008958C3F9105E9F0BCF08E3F910504
:10356000F1F08F3F910509F49DC008951296ED91F9
:10357000FC9113973AC05896ED91FC91599796C0DB
:103580005A96ED91FC915B9791C05C96ED91FC9100
:103590005D978CC05E96ED91FC915F9787C0909689
:1035A000ED91FC91919782C01696ED91FC91179741
:1035B0001CC01C96ED91FC911D97309709F479C0C1
:1035C000D9966C91D9976F7720E8629FB00111244A
:1035D000D8968C91D8978F77682B7052D5968C910E
:1035E00009941496ED91FC911597309709F461C0F8
:1035F000D9964C91D997D8966C91D897D5968C91AD
:1036000009941A96ED91FC911B9704C01896ED91C0
:10361000FC911997309709F44CC0D8966C91D897C3
:10362000D5968C9109941E96ED91FC911F97309739
:1036300009F43FC0D9966C91D99770E0762F662730
:10364000D8968C91D897682B6138710510F060E896
:1036500070E0CD01CA9609945096ED91FC91519776
:1036600017C05296ED91FC915397309711F1D9966E
:103670008C91D9978F7720E8829FC0011124D8962A
:103680002C912F77822B09945496ED91FC915597AC
:10369000309779F0D8968C9109945696ED91FC91DB
:1036A000579704C09296ED91FC919397309709F04B
:1036B000099408959C018F7C8038910561F0203D2C
:1036C000310549F081E0203E310539F0203C3105DB
:1036D00021F080E0089581E00895089587FF0DC0EE
:1036E0009CE0980F923048F0982F9B7F993F29F0EB
:1036F000803F08F4807F90E0089580E090E0089596
:10370000CF92DF92EF92FF920F931F93CF93DF93AD
:103710001F92CDB7DEB76C01DC0194968D919C9120
:103720009597DC01ED91FC910480F581E02D0995E0
:10373000892B09F4A6C1F60184A195A1DC01ED91C4
:10374000FC910680F781E02D09958C018B7F893FE4
:1037500009F497C1F60126A537A52115310509F011
:10376000C3C001A7F7A08F2D0E946E1B0E945A1B99
:10377000882379F007FD0DC0D6019996FC929997A0
:103780009A960C939A9781E090E09F969C938E93E3
:103790009E97F60111A5812F0E946E1B813F910516
:1037A00009F463C094F5803B910509F466C06CF49C
:1037B0008039910509F461C0803A910509F45DC032
:1037C0008038910509F05FC058C0803D910509F42B
:1037D0004CC02CF4803C910509F447C054C0803E95
:1037E000910509F44AC0803F910509F04CC020E8DA
:1037F00030E0D6019D963C932E939C9797961C9211
:10380000979720EFDA962C9345C0883F9105A9F051
:1038100044F4833F910549F184F1863F910569F0B5
:1038200032C08A3F91057CF18D3F910534F09C01B7
:103830002E5F31092230310530F5D601D7969C93A1
:103840008E93D697D5961C92D597D8961C92D897DA
:10385000D9961C92F601E654FF4F81E08083F60171
:1038600017A616A615A614A60DC122E030E0D601B3
:103870009D963C932E939C970DC023E030E0F6017B
:1038800035A724A707C0F60117A616A615A614A6E5
:1038900017A2F7C0D6019E962D913C919F979C96BA
:1038A0004D915C919D97415051092417350708F4BB
:1038B000E3C0D7969C938E93D6971F701F5FD596C3
:1038C0001C93D5979A968C919A97D8968C93D89763
:1038D000D9961C92D9979F961C921E929E979D9660
:1038E0001C921E929C9725C007FF4EC0C8019927C5
:1038F0008D3F91055CF48A3F910574F4873F9105F3
:10390000F1F0883F910509F03FC006C0AC014E5F61
:10391000510942305105C0F5D601D7969C938E933C
:10392000D697D8961C92D897D9961C92D997D596A7
:103930001C92F601E654FF4F81E08083A3C0F6019C
:1039400082AD803FB9F5C9010196E20FF31F47EF41
:1039500042AF20EF30E0D601D7963C932E93D69716
:10396000D8968C93D897D9969C93D997D5961C9234
:10397000F601E654FF4F81E08083F60117A616A6F4
:1039800015A614A617A27EC0F60181A5E20FF31FAB
:10399000803FE1F402AFD6019C96ED90FC909D979C
:1039A000C70101972817390708F466C099962C912A
:1039B000203F71F4D6019F961C921E929E979D9671
:1039C0001C921E929C9797961C925BC001A7E3CF16
:1039D000822F29830E946E1B8C01F60197AB86AB68
:1039E0000E945A1B2981882339F0822F8F708F5FA4
:1039F000D601D5968C9302C0F60115AAD6019A96E7
:103A00008C919A97D8968C93B3E0EB16F10419F445
:103A1000F60183A501C080E0D601D9968C93D99791
:103A20009F961C921E929E979D961C921E929C970A
:103A300081E0F601E654FF4F8083003B1105A1F0C1
:103A400054F40039110581F0003A110569F000388D
:103A5000110569F409C0003D110531F0003E110562
:103A600019F0003C110519F4F60127A303C0D60193
:103A700097961C9281E006C02F5F3F4FF60137A753
:103A800026A780E00F90DF91CF911F910F91FF90BB
:103A9000EF90DF90CF900895CF92DF92EF92FF9258
:103AA0000F93CF93DF9300D0CDB7DEB77C016B01CE
:103AB0000150003108F04FC0603871050CF44BC064
:103AC000613E7105B4F5F70184A195A1DC01ED918A
:103AD000FC91602B0190F081E02D2A8349830995A8
:103AE000F70184A195A1DC01ED91FC914981642F3E
:103AF0006F770190F081E02D0995E894C4F82A8150
:103B0000B0ECCB16D10439F1F70184A195A1DC0109
:103B1000ED91FC91622F6F770190F081E02D0F9075
:103B20000F90DF91CF910F91FF90EF90DF90CF90AA
:103B30000994CB01885F9109089768F4C7018496BE
:103B40000F900F90DF91CF910F91FF90EF90DF904A
:103B5000CF900C9413160F900F90DF91CF910F918F
:103B6000FF90EF90DF90CF900895EF92FF920F9328
:103B70001F93CF93DF93EC019CA9292F217090FF15
:103B8000CAC0892F8E7F09F4C6C0362F6EA97FA9BF
:103B9000AB014058510941365105F8F40DA90317FE
:103BA00019F021E0311120E09695892F90E08230C4
:103BB000910539F08330910541F0019709F0ABC0D0
:103BC00006C0222309F4A7C002C02111A4C029AD58
:103BD00048ADCE010E944C1D9EC0FB01E05FF10983
:103BE000E031F10508F097C0E25CFF4F0C94A4317E
:103BF000CE018496DF91CF911F910F91FF90EF90AE
:103C00000C9413168E01065C1F4F780129AD30E02D
:103C1000322F222788ADA901482BCA01813891058E
:103C200010F080E890E0080F191FE016F10609F483
:103C300072C08CA19DA1D7016D917D01DC01ED9138
:103C4000FC910190F081E02D0995EFCF18AD8CA18A
:103C50009DA1DC01ED91FC910190F081E02D63EFDD
:103C600009951F77612F70E08CA19DA1DF91CF9105
:103C70001F910F91FF90EF900C94351609ADB0E8AD
:103C80000B9F8001112488AD082B8CA19DA1DC0124
:103C9000ED91FC910190F081E02D62EF0995B80162
:103CA0006F7777278CA19DA10E942E16B801660F11
:103CB000672F661F770B71956F7777278CA19DA172
:103CC000DF91CF911F910F91FF90EF900C942E16E2
:103CD00088AD8770B0E18B9FC001112419AD1F70B2
:103CE000182B8CA19DA1DC01ED91FC910190F0813C
:103CF000E02D61EF09958CA19DA1DC01ED91FC9176
:103D00000190F081E02D612FDF91CF911F910F91F4
:103D1000FF90EF900994DF91CF911F910F91FF9049
:103D2000EF9008954F925F926F927F928F929F9241
:103D3000AF92BF92CF92DF92EF92FF920F931F93B9
:103D4000CF93DF93CDB7DEB72D970FB6F894DEBFD4
:103D50000FBECDBF8091AF02882351F060E084E0B8
:103D60000E94A22B60E084E00E94DE2B1092AF0242
:103D700084E00E940E2C2091AD023091AE02892B7E
:103D800039F02F5F3F4F3093AE022093AD0213C046
:103D90003093B1022093B0021092AE021092AD02A5
:103DA00061E084E00E94A22B61E084E00E94DE2BAF
:103DB00081E08093AF028091B00289838091AA0252
:103DC000882351F060E08AE00E94A22B60E08AE044
:103DD0000E94DE2B1092AA028AE00E940E2C2091F3
:103DE000A8023091A902892B39F02F5F3F4F309301
:103DF000A9022093A80213C03093AC022093AB0217
:103E00001092A9021092A80261E08AE00E94A22BFF
:103E100061E08AE00E94DE2B81E08093AA0280911B
:103E2000AB028A838091A502882351F060E08BE089
:103E30000E94A22B60E08BE00E94DE2B1092A50274
:103E40008BE00E940E2C2091A3023091A402892BBA
:103E500039F02F5F3F4F3093A4022093A30213C089
:103E60003093A7022093A6021092A4021092A302FC
:103E700061E08BE00E94A22B61E08BE00E94DE2BD0
:103E800081E08093A5028091A6028B838091A0029D
:103E9000882351F060E08EE00E94A22B60E08EE06B
:103EA0000E94DE2B1092A0028EE00E940E2C209128
:103EB0009E0230919F02892B39F02F5F3F4F309344
:103EC0009F0220939E0213C03093A2022093A1026E
:103ED00010929F0210929E0261E08EE00E94A22B3F
:103EE00061E08EE00E94DE2B81E08093A002809151
:103EF000A1028C8380919B02882351F060E08FE0C7
:103F00000E94A22B60E08FE00E94DE2B10929B02A9
:103F10008FE00E940E2C2091990230919A02892BF9
:103F200039F02F5F3F4F30939A022093990213C0CC
:103F300030939D0220939C0210929A021092990253
:103F400061E08FE00E94A22B61E08FE00E94DE2BF7
:103F500081E080939B0280919C028D8380919602E8
:103F6000882351F060E080E10E94A22B60E080E1B4
:103F70000E94DE2B1092960280E10E940E2C20916E
:103F8000940230919502892B39F02F5F3F4F309387
:103F900095022093940213C03093980220939702C5
:103FA000109295021092940261E080E10E94A22B8F
:103FB00061E080E10E94DE2B81E080939602809197
:103FC00097028E8380919102882351F060E081E115
:103FD0000E94A22B60E081E10E94DE2B10929102F0
:103FE00081E10E940E2C20918F0230919002892B4A
:103FF00039F02F5F3F4F3093900220938F0213C010
:1040000030939302209392021092900210928F02AA
:1040100061E081E10E94A22B61E081E10E94DE2B40
:1040200081E080939102809192028F8380918C0233
:10403000882351F060E082E10E94A22B60E082E1DF
:104040000E94DE2B10928C0282E10E940E2C2091A5
:104050008A0230918B02892B39F02F5F3F4F3093CA
:104060008B0220938A0213C030938E0220938D021C
:1040700010928B0210928A0261E082E10E94A22BD0
:1040800061E082E10E94DE2B81E080938C028091CE
:104090008D02888780918702882351F060E083E158
:1040A0000E94A22B60E083E10E94DE2B1092870227
:1040B00083E10E940E2C2091850230918602892B8B
:1040C00039F02F5F3F4F309386022093850213C053
:1040D0003093890220938802109286021092850202
:1040E00061E083E10E94A22B61E083E10E94DE2B6C
:1040F00081E0809387028091880289878091820283
:10410000882351F060E084E10E94A22B60E084E10A
:104110000E94DE2B1092820284E10E940E2C2091DC
:10412000800230918102892B39F02F5F3F4F30930D
:1041300081022093800213C0309384022093830273
:10414000109281021092800261E084E10E94A22B11
:1041500061E084E10E94DE2B81E080938202809105
:1041600083028A8780917D02882351F060E085E197
:104170000E94A22B60E085E10E94DE2B10927D025E
:1041800085E10E940E2C20917B0230917C02892BCC
:1041900039F02F5F3F4F30937C0220937B0213C096
:1041A00030937F0220937E0210927C0210927B0259
:1041B00061E085E10E94A22B61E085E10E94DE2B97
:1041C00081E080937D0280917E028B8780917802CE
:1041D000882351F060E086E10E94A22B60E086E136
:1041E0000E94DE2B1092780286E10E940E2C209114
:1041F000760230917702892B39F02F5F3F4F309351
:1042000077022093760213C030937A0220937902CA
:10421000109277021092760261E086E10E94A22B52
:1042200061E086E10E94DE2B81E08093780280913C
:1042300079028C8780917302882351F060E087E1D6
:104240000E94A22B60E087E10E94DE2B1092730295
:1042500087E10E940E2C2091710230917202892B0D
:1042600039F02F5F3F4F309372022093710213C0D9
:1042700030937502209374021092720210927102B0
:1042800061E087E10E94A22B61E087E10E94DE2BC2
:1042900081E080937302809174028D87E091A60182
:1042A0008E2F90E0FC013197E730F10508F0E4C073
:1042B000E25BFF4F0C94A4318EE10E949228BC0176
:1042C0008CE292E00E943C1680934802D5C08FE1B8
:1042D0000E949228BC0180E292E00E943C168093EA
:1042E0004702CAC088E10E949228BC0184E192E0A2
:1042F0000E943C1690934602809345026C01E12C8B
:10430000F12C73E0F694E794D794C7947A95D1F79B
:10431000D0920603C0920503A091FE02B091FF0265
:10432000A70196010E94C0316093070370930803B0
:104330008093090390930A03D092CD02C092CC02DD
:10434000A091C502B091C6020E94C0316093CE0216
:104350007093CF028093D0029093D1028DC089E1F7
:104360000E949228BC0188E092E00E943C16909343
:104370004402809343026C01E12CF12C63E0F6943B
:10438000E794D794C7946A95D1F7D0921E03C09250
:104390001D03A091FE02B091FF02A70196010E94A9
:1043A000C03160931F037093200380932103909387
:1043B0002203D092E502C092E402A091C502B0911E
:1043C000C6020E94C0316093E6027093E7028093B8
:1043D000E8029093E90250C08AE10E949228BC0151
:1043E0008CEF91E00E943C168093420245C08BE125
:1043F0000E949228BC0180EF91E00E943C169093AD
:104400004102809340022091420230E04FB7F8947D
:10441000092E000CAA0BBB0B5BE0880F991FAA1F8B
:10442000BB1F5A95D1F75AE0529FF001539FF00DF0
:104430001124E95CFC4F84839583A683B7834FBF27
:104440001BC08DE10E949228BC0188ED91E00E9482
:104450003C1690933B0280933A02209138023091AF
:1044600039028217930741F0909339028093380202
:1044700090933D0280933C028091A6018F5F88302B
:1044800018F48093A60102C01092A6018CE10E944C
:104490009228BC0184EE91E00E943C1690933F026A
:1044A00080933E02E09142022AE0E29FF001112453
:1044B000E95CFC4F0481158126813781408151815F
:1044C00062817381400F511F621F731F40835183AC
:1044D000628373839B0131700084F185E02DE20FCC
:1044E000F31FE4910E2E000CFF0BE058FF4F40919C
:1044F0003C0250913D02E49F9001E59F300DF49FF6
:10450000300D1124432F30935802489F9001499F4A
:10451000300D1124232F3327821B930B90935C02C1
:1045200080935B0280936A0240916902982F909574
:10453000949F90011124232F3327240F311D309392
:104540006C0220936B028093620220916102929F21
:10455000C0011124892F9927820F911D9093640225
:1045600080936302809148028150843028F483E272
:10457000809369028093610210916B041131E8F419
:1045800085E494E00E94801B8823B9F080917B042D
:1045900090917C04805891098136910508F09EC164
:1045A00080917A04811709F499C1112309F496C105
:1045B000612F85E494E00E94B51DCE0101965C0157
:1045C00008E911E0E12CF12CCC24C39471E8872E8A
:1045D000912CE2E07E2EFDE05F2EAAE06A2EB0EF85
:1045E000DB2EF50181915F01F801882309F46DC08C
:1045F0008081813009F095C080914702F701589E73
:10460000E00DF11D1124EE0FFF1FE05DFE4F6081F4
:10461000718170934E0260934D02F8011082809177
:10462000B2019091B3018138910559F08091B401A4
:10463000823039F58091B0019091B10181389105B6
:1046400004F5F092B301E092B20170934C026093D2
:104650004B0280914802689EC001112485519C4FF5
:104660000E94C017D0920B03D0921303D0921B0369
:10467000C092230310922B038EEF92E00E94FE184B
:104680004EC080914F0281114CC0F092B101E09276
:10469000B00170934A026093490280914802689E7B
:1046A000C00111248F569C4F0E94C017D092D20295
:1046B000D092DA02D092E202C092EA021092F202A2
:1046C00085EC92E00E94FE1816C08081811129C0FD
:1046D000F801C0828091B2019091B301E816F90609
:1046E00069F46CE173E08EEF92E00E94C61890923C
:1046F000B3018092B2017092B40113C08091B001F5
:104700009091B101E816F90661F463EE72E085EC70
:1047100092E00E94C6189092B1018092B001C092BE
:10472000B401FFEFEF1AFF0A0F5F1F4F2DE0E216F3
:10473000F10409F056CF8EEF92E00E94401A85EC0A
:1047400092E00E94401A1091A7018EEF92E00E9421
:10475000D417189FC001112490935A0280914F02E0
:10476000882309F499C08091BA02882309F454C0BF
:104770008091B2029091B30201979093B30280931B
:10478000B20297FF49C0C090B402D090B5020D2C80
:10479000000CEE08FF086091B6027091B70280919C
:1047A000B8029091B9022FB7F8946093BD0270934C
:1047B000BE028093BF029093C0022FBF4090BD0203
:1047C0005090BE026090BF027090C0020E945830AC
:1047D0004B015C01C301B2010E9458309B01AC0146
:1047E000C501B4010E94432F4B015C01C701B60112
:1047F0000E9458309B01AC01C501B4010E94B02F4A
:104800000E9422306093C1027093C2028093C3025F
:104810009093C4021092BA022FB7F8944091BD024F
:104820005091BE026091BF027091C0028091C1029E
:104830009091C202A091C302B091C402840F951F4F
:10484000A61FB71F8093BD029093BE02A093BF0224
:10485000B093C0022FBF8091BD029091BE02A09183
:10486000BF02B091C0022091480230E04FB7F894E7
:1048700053E0B695A795979587955A95D1F75AE045
:10488000529FF001539FF00D1124EF56FC4F84838B
:104890009583A683B7834FBF1091A70185EC92E063
:1048A0000E94D417189FC0011124909359022D968D
:1048B0000FB6F894DEBF0FBECDBFDF91CF911F9131
:1048C0000F91FF90EF90DF90CF90BF90AF909F90AF
:1048D0008F907F906F905F904F90089585E494E063
:1048E0000E94671A65CECF92DF92EF92FF92CF932C
:1048F000DF93E5E4F4E086E797E095A384A316A2AE
:1049000017A210A615A614A617A616A68FEF9FEF3E
:1049100091AB80AB93AB82AB83E08093790415AA13
:1049200017AA16AA10AE11AE1092FF0480E8AFE7E6
:10493000B4E0ED0119928A95E9F711821082138291
:1049400012821582148217821682118610861386AF
:1049500012861586148617861686118A108A138A7F
:10496000128A158A148A178A168A118E108E138E4F
:10497000128E158E148E178E168E11A210A213A2EF
:1049800012A268EA70E2709344046093430448EA18
:1049900058E150933A044093390428EA30E13093C7
:1049A000300420932F0488EA98E0909326048093A3
:1049B00025041092F4031092F303CAE0EBE3F4E051
:1049C000A5EFB3E001900D92CA95E1F7CAE0E1E3EB
:1049D000F4E0AFEFB3E001900D92CA95E1F7CAE0C1
:1049E000E7E2F4E0A9E0B4E001900D92CA95E1F7A6
:1049F000CAE0EDE1F4E0A3E1B4E001900D92CA95C4
:104A0000E1F77093EA036093E9035093E003409366
:104A1000DF033093D6032093D5039093CC03809388
:104A2000CB0310929A03109299038AE0E1EEF3E02F
:104A3000ABE9B3E001900D928A95E1F78AE0E7EDEA
:104A4000F3E0A5EAB3E001900D928A95E1F78AE0E0
:104A5000EDECF3E0AFEAB3E001900D928A95E1F757
:104A60008AE0E3ECF3E0A9EBB3E001900D928A95C4
:104A7000E1F788EA96E09093900380938F0388EAA9
:104A800094E090938603809385038AEA92E0909362
:104A90007C0380937B038AEA90E090937203809377
:104AA00071031092400310923F038AE0E7E8F3E0BD
:104AB000A1E4B3E001900D928A95E1F78AE0EDE779
:104AC000F3E0ABE4B3E001900D928A95E1F78AE060
:104AD000E3E7F3E0A5E5B3E001900D928A95E1F7F5
:104AE0008AE0E9E6F3E0AFE5B3E001900D928A9544
:104AF000E1F7EEEFF2E021E030E03183208316822F
:104B000081E0868752E0568B43E0468F94E096A37F
:104B100015A2E5ECF2E03183208316828687568B5E
:104B2000468F96A315A244E85EE15093BC024093E1
:104B3000BB02EDEAF2E011821082828314821382BA
:104B4000E8EAF2E011821082828314821382E3EA9F
:104B5000F2E011821082828314821382EEE9F2E085
:104B600011821082828314821382E9E9F2E01182B9
:104B70001082828314821382E4E9F2E011821082AF
:104B8000828314821382EFE8F2E011821082828322
:104B900014821382EAE8F2E0118210828283148286
:104BA0001382E5E8F2E0118210828283148213827C
:104BB000E0E8F2E011821082828314821382EBE734
:104BC000F2E011821082828314821382E6E7F2E01F
:104BD00011821082828314821382E1E7F2E0118253
:104BE0001082828314821382ECE2F2E0118210823E
:104BF00080E094E0938382833583248347E050E010
:104C00005783468341E050E060E070E04087518781
:104C100062877387E0E2F2E01182108293838283DD
:104C200015821482A5E0B0E0B783A6834087518740
:104C300062877387E4E1F2E01182108293838283BA
:104C4000CCE1D0E0D583C483C4ECD9E0D783C6835C
:104C5000CAE6CC2EC2E0DC2EE12CF12CC086D18637
:104C6000E286F386E8E0F2E0118210829383828389
:104C7000C9E1D0E0D583C483C8EBDBE0D783C6832A
:104C8000D7EECD2ED2E0DD2EE12CF12CC086D186E0
:104C9000E286F386ECEFF1E0118210829383828347
:104CA00035832483B783A6834087518762877387C0
:104CB000E0EFF1E0118210829383828315821482E7
:104CC00048E755E0578346834EE551E060E070E0E9
:104CD0004087518762877387E4EEF1E0118210828A
:104CE000938382834EE150E05583448344EB50E04C
:104CF0005783468345E250E060E070E0408751878B
:104D000062877387E8EDF1E01182108293838283DA
:104D10003583248380E091E0978386838FE390E05E
:104D2000A0E0B0E080879187A287B387DF91CF9121
:104D3000FF90EF90DF90CF90089508950E94921E0B
:104D40000C9488289091190780911807981306C031
:104D500090911B0780911A07981319C00E943A1767
:104D600020911907E22FF0E0EE0FFF1FE85EFA4FE7
:104D7000905E918380832F5F20931907211107C0D4
:104D800090911B0781E0892780931B070895089560
:104D90001F920F920FB60F9211242F933F938F9370
:104DA0009F93AF93BF93EF93FF9380911807E82FE2
:104DB000F0E0EE0FFF1FE85EFA4F208131818F5F38
:104DC00080931807811119C090911A0781E08927F3
:104DD00080931A0780911C0790911D07A0911E07D0
:104DE000B0911F070196A11DB11D80931C079093E0
:104DF0001D07A0931E07B0931F07C901880F991FB5
:104E0000909388002F7720938A00FF91EF91BF91B4
:104E1000AF919F918F913F912F910F900FBE0F9067
:104E20001F901895AF92BF92CF92DF92EF92FF92B0
:104E30000F931F93CF93DF93EC0180E00E944D28E6
:104E400084B58093170585B58093160587B5809343
:104E500015050EE610E0F8018081809314059E018F
:104E600040E050E060E472E48FE090E00E94853121
:104E7000DA01C90140E06EE976E20E94E62A0E946A
:104E80003D2B84B580930B0585B580930A0587B5C6
:104E900080930905F801808180930805C0E8D0E07F
:104EA00088818093130581E8E82EF12CF701808139
:104EB0008093120598E8C92ED12CF601808191814A
:104EC000809311052FE6A22EB12CF50180818093ED
:104ED000100561E08DE00E94A22B61E08CE00E9451
:104EE000A22B0CE617E0F801128298E1938382E08E
:104EF0008483F7019083888380E890E0A0E0B0E0AD
:104F000021E02093690790936B0780936A07909341
:104F100087008093860089E1808361E08DE00E94B4
:104F2000A22B9881F8018481892B80688883F601FF
:104F30001182108290916907F8018381892BF70112
:104F4000808361E08CE00E94A22B9881F80184812B
:104F5000892B8062888310928B0010928A00909136
:104F600069078381892BF7018083888180930705F6
:104F7000808180930605F6018081918180930505EB
:104F8000F50180818093040530EBC32ED12CF6010E
:104F9000808180930F0541EBE42EF12CF701808195
:104FA00080930E0503EB10E0F801808180930D05DE
:104FB000C0E7D0E0888180930C0560ED73E080E06D
:104FC00090E00E94462A8DE996E20E94362A0E94CD
:104FD000E22AF601808180930305F70180818093A6
:104FE0000205F80180818093010588818093000586
:104FF000DF91CF911F910F91FF90EF90DF90CF90B5
:10500000BF90AF9008951092180710921907109250
:105010001A0710921B070895811109C080917A0028
:10502000846080937A0080917A008D7F1AC08130ED
:1050300071F480917A008B7F80937A0080917A005E
:10504000826080937A0080917A0081600FC0823004
:1050500079F480917A008B7F80937A0080917A0036
:10506000826080937A0080917A008E7F80937A00AC
:10507000089580E090E061E070E040917E009B0147
:10508000082E01C0220F0A94EAF7242B20937E00F9
:1050900001968830910589F70895EAE7F0E090815C
:1050A000986090830E940C280C9439288770806443
:1050B00080937C00EAE7F0E080818064808308953B
:1050C000CF93DF931F92CDB7DEB7809128079091E1
:1050D00029078F3F2FEF920761F0FC01E05EF84F48
:1050E000208129830197909329078093280789813C
:1050F00001C08FEF8093B6018091B6018F3F21F000
:105100008091B6010E9456280F90DF91CF910895AB
:105110008091B6018F3F29F40E94602881E080933E
:10512000B50108958E3008F08E50209128073091F7
:1051300029072730310554F42F5F3F4F309329075B
:1051400020932807F901E05EF84F8083E82FF0E014
:10515000EE0FFF1FE65DF84F808191810895EAE729
:10516000F0E08081806480830895E091B6018091B1
:10517000780090917900EE0FFF0BE65DF84F918378
:10518000808308951F920F920FB60F9211242F93D0
:105190003F934F935F936F937F938F939F93AF93BF
:1051A000BF93EF93FF938091B501882329F00E946C
:1051B000AF281092B50107C00E94B5280E94602850
:1051C00081E08093B501FF91EF91BF91AF919F91E5
:1051D0008F917F916F915F914F913F912F910F90A0
:1051E0000FBE0F901F9018958FEF9FEF9093290798
:1051F000809328070895CF92DF92EF92FF920F934A
:105200001F9344E0849F90011124F901E855F74D64
:10521000C590D590E590F490F901E455F74D0591CE
:10522000159125913491A90198012C193D094E0938
:105230005F098827992721153105E1E04E075105BF
:1052400058F0232F342F452F55270E945331BB2769
:10525000A92F982F872F04C00E945331AA27BB275C
:10526000BC01CD016C0D7D1D8E1D9F1D1F910F91E9
:10527000FF90EF90DF90CF90089582E080936507D4
:105280008FEF809340071092420780913A07815038
:105290008093410780913B07880F8160809363076B
:1052A00085EE8093BC00089584E0809365078FEFBE
:1052B000809340071092420780913C0780934107FA
:1052C000A0913D07B0913E0723E437E0F9019E2FFE
:1052D000921B981718F49D919193F9CF80913F07F5
:1052E00090E0880F991F8093630785EE8093BC0040
:1052F000089585ED8093BC008091BC0084FDFCCFB7
:105300008091650780936407109265078091640718
:10531000833011F40C94542980916407813011F486
:105320000C943D29089585EC8093BC00809165071D
:10533000809364071092650780916407833011F4AD
:105340000C94542980916407813011F40C943D2908
:1053500008951F920F920FB60F9211242F933F932F
:105360004F935F936F937F938F939F93AF93BF936D
:10537000EF93FF938091B900887F883239F170F400
:10538000803109F130F4882309F45BC08830D9F00A
:105390005CC08831D9F0803261F157C08034C1F1EE
:1053A00050F4803331F1883309F04FC080934007C7
:1053B0000E9493294AC08035F9F08835A9F18834D4
:1053C00009F043C040C08091630710C0909142072C
:1053D000809141079817B8F5E091420781E08E0F60
:1053E00080934207F0E0ED5BF84F80818093BB0033
:1053F00015C08093400727C0E091420781E08E0FDF
:10540000809342078091BB00F0E0ED5BF84F808312
:105410009091420780914107981710F485EC01C0E4
:1054200085E88093BC0011C0E091420781E08E0FB7
:10543000809342078091BB00F0E0ED5BF84F8083E2
:1054400002C0109240070E947929FF91EF91BF910D
:10545000AF919F918F917F916F915F914F913F910C
:105460002F910F900FBE0F901F9018959093680783
:1054700080936707892B21F080917000826003C0C0
:10548000809170008D7F809370000895CF92DF929D
:10549000EF92FF926B017C01672B682B692B21F443
:1054A000C12CD12C7601C3942AE030E0B701A601CB
:1054B00086E797E00E949C2E81E0C816D806E1049A
:1054C000F10420F42FEF2C0D81E065C081E0C816B7
:1054D00088E0D806E104F10458F443E0F694E79438
:1054E000D794C7944A95D1F72FEF2C0D82E053C083
:1054F00081E0C81680E2D806E104F10458F435E0F2
:10550000F694E794D794C7943A95D1F72FEF2C0DE2
:1055100083E041C081E0C81680E4D806E104F104CC
:1055200058F426E0F694E794D794C7942A95D1F7D7
:105530002FEF2C0D84E02FC081E0C81680E8D8063C
:10554000E104F10458F497E0F694E794D794C794F3
:105550009A95D1F72FEF2C0D85E01DC081E0C8167C
:10556000D104E806F10420F42FEF2D0D86E013C0DE
:1055700081E0C816D10484E0E806F10450F48AE022
:10558000F694E794D794C7948A95D1F72FEF2C0D12
:1055900001C02FEF87E01092B1001092B00010927E
:1055A000B2009091B6009F7D9093B6002093B30017
:1055B00092E09093B0008093B100FF90EF90DF9065
:1055C000CF90089581E0809366070895CF92DF928F
:1055D000EF92FF927093740760937307409375077F
:1055E000A0E0B0E034E0880F991FAA1FBB1F3A95D6
:1055F000D1F720E030E0F901E855F54DE491EE23D4
:1056000081F06C017D01022E04C0F694E794D794DA
:10561000C7940A94D2F751E0C516D506E104F10407
:1056200038F02F5F3F4F2B30310529F780E020C045
:10563000A1E0B0E002C0AA0FBB1F2A95E2F7A701C4
:1056400096010E94CB31DC01CB0124E0B595A795F2
:10565000979587952A95D1F7909372078093710754
:1056600010926E0082E084BDE5BDCA94C7BC81E0A3
:10567000FF90EF90DF90CF900895EEE6F0E080810C
:1056800082608083089578941F920F920FB60F92D4
:1056900011242F933F934F935F936F937F938F9337
:1056A0009F93AF93BF93EF93FF9310926E00E0919F
:1056B0007307F09174070995F89480917507882312
:1056C00011F016BCA99A80916E00826080936E00E2
:1056D000FF91EF91BF91AF919F918F917F916F91CA
:1056E0005F914F913F912F910F900FBE0F901F90A0
:1056F0001895833081F028F4813099F08230A1F040
:1057000008958730A9F08830B9F08430D1F48091C1
:1057100080008F7D03C0809180008F778093800010
:10572000089584B58F7702C084B58F7D84BD0895B8
:105730008091B0008F7703C08091B0008F7D8093FF
:10574000B0000895CF93DF9390E0FC01ED54F54D48
:105750002491FC01ED52F54D8491882361F190E094
:10576000880F991FFC01E95FF44DC591D491FC01AC
:10577000E350F54DA591B491611109C09FB7F8941C
:105780008881209582238883EC912E230BC0623080
:1057900061F49FB7F8943881822F809583238883A2
:1057A000EC912E2B2C939FBF06C08FB7F894E88105
:1057B0002E2B28838FBFDF91CF9108951F93CF9316
:1057C000DF93282F30E0F901ED54F54D8491F90174
:1057D000ED54F54DD491F901ED52F54DC491CC2322
:1057E000C9F0162F81110E94792BEC2FF0E0EE0FFB
:1057F000FF1FE350F54DA591B4918FB7F8941111A7
:1058000005C09C91ED2FE095E92302C0EC91ED2BB2
:10581000EC938FBFDF91CF911F910895CF93DF93CA
:10582000282F30E0F901ED54F54D8491F901ED5444
:10583000F54DD491F901ED52F54DC491CC2391F081
:1058400081110E94792BEC2FF0E0EE0FFF1FED503D
:10585000F54DA591B491EC91ED2381E090E021F418
:1058600080E002C080E090E0DF91CF910895FC01DC
:10587000918D228D892F90E0805C9F4F821B910932
:105880008F7399270895FC01918D828D981731F0BF
:10589000828DE80FF11D858D90E008958FEF9FEFC9
:1058A0000895FC01918D828D981761F0828DDF0142
:1058B000A80FB11D5D968C91928D9F5F9F73928F03
:1058C00090E008958FEF9FEF08958BEC9DE2892B78
:1058D00041F080E090E0892B21F00E94CB2D8111D6
:1058E0000DC080E090E0892B71F080E090E0892B82
:1058F00051F00E940000811104C008950E94000030
:10590000F0CF0C9400000895FC01848DDF01A80FF6
:10591000B11DA35ABF4F2C91848D90E001968F73D7
:105920009927848FA689B7892C93A089B1898C91F6
:1059300080648C93938D848D981306C00288F389BC
:10594000E02D80818F7D80830895CF93DF93EC01DC
:10595000888D8823C9F0EA89FB89808185FD05C08F
:10596000A889B9898C9186FD0FC00FB607FCF5CFC9
:10597000808185FFF2CFA889B9898C9185FFEDCF11
:10598000CE010E94842CE7CFDF91CF910895EF9252
:10599000FF920F931F93CF93DF93EC0181E0888FE9
:1059A0009B8D8C8D981305C0E889F989808185FDD0
:1059B00024C0F62E0B8D10E00F5F1F4F0F731127C1
:1059C000E02E8C8DE8120CC00FB607FCFACFE889E8
:1059D000F989808185FFF5CFCE010E94842CF1CF1B
:1059E0008B8DFE01E80FF11DE35AFF4FF0820B8F04
:1059F000EA89FB898081806207C0EE89FF89608324
:105A0000E889F98980818064808381E090E0DF917A
:105A1000CF911F910F91FF90EF900895CF92DF9259
:105A2000EF92FF921F93CF93DF93EC016A017B010A
:105A3000122FE889F98982E080834115514E610572
:105A40007105B1F060E079E08DE390E0A701960187
:105A50000E946331DA01C9010197A109B109B69524
:105A6000A79597958795AC01411580E15807A8F057
:105A7000E889F989108260E874E88EE190E0A70176
:105A800096010E946331BA01A9014150510961098F
:105A900071097695679557954795EC85FD855083F7
:105AA000EE85FF854083188EEC89FD891083EA8995
:105AB000FB89808180618083EA89FB89808188609D
:105AC0008083EA89FB89808180688083EA89FB89F9
:105AD00080818F7D8083DF91CF911F91FF90EF9028
:105AE000DF90CF9008951F920F920FB60F9211245E
:105AF0002F938F939F93EF93FF93E0918607F091FD
:105B000087078081E0918C07F0918D0782FD12C09C
:105B1000908180918F078F5F8F73209190078217FC
:105B200051F0E0918F07F0E0EA58F84F958F80939D
:105B30008F0701C08081FF91EF919F918F912F91ED
:105B40000F900FBE0F901F9018951F920F920FB6D7
:105B50000F9211242F933F934F935F936F937F93F3
:105B60008F939F93AF93BF93EF93FF9386E797E055
:105B70000E94842CFF91EF91BF91AF919F918F91E3
:105B80007F916F915F914F913F912F910F900FBE39
:105B90000F901F90189586E797E00E94372C21E020
:105BA000892B09F420E0822F0895E6E7F7E01382BD
:105BB000128288EE93E0A0E0B0E084839583A68310
:105BC000B7838BEB91E09183808385EC90E09587A0
:105BD000848784EC90E09787868780EC90E0918BB7
:105BE000808B81EC90E0938B828B82EC90E0958BA4
:105BF000848B86EC90E0978B868B118E128E138EA1
:105C0000148E0895CF92DF92EF92FF920F931F931D
:105C1000CF93DF936C017A018B01C0E0D0E0CE1509
:105C2000DF0589F0D8016D918D01D601ED91FC91D0
:105C30000190F081E02DC6010995892B11F47E01B8
:105C400002C02196ECCFC701DF91CF911F910F9138
:105C5000FF90EF90DF90CF9008956115710579F076
:105C6000FB0101900020E9F73197AF01461B570B6C
:105C7000DC01ED91FC910280F381E02D099480E03C
:105C800090E0089567EC71E00C942D2E4F925F9296
:105C90006F927F92EF92FF920F931F93CF93DF93B8
:105CA000CDB7DEB7A1970FB6F894DEBF0FBECDBF5C
:105CB0007C01FA01CB0119A2223008F42AE08E01FE
:105CC0000F5D1F4F422E512C612C712CBF01A3017F
:105CD00092010E946331F901CA01015011096A3031
:105CE00014F4605D01C0695CD8016C93232B242BF4
:105CF000252B61F7B801C7010E942D2EA1960FB682
:105D0000F894DEBF0FBECDBFDF91CF911F910F91F1
:105D1000FF90EF907F906F905F904F9008952115C6
:105D2000310541F4DC01ED91FC910190F081E02D11
:105D3000642F09940C94462E0F931F93CF93DF93F7
:105D4000EC010E948F2E8C01CE010E94422E800F0A
:105D5000911FDF91CF911F910F91089508950E9497
:105D6000082F0E94AE2E0E94AF16C5E6DCE20E940C
:105D7000BE172097E1F30E94652CF9CF1F920F9276
:105D80000FB60F9211242F933F938F939F93AF934E
:105D9000BF938091140890911508A0911608B091B6
:105DA00017083091130823E0230F2D3720F40196B4
:105DB000A11DB11D05C026E8230F0296A11DB11D2E
:105DC000209313088093140890931508A093160845
:105DD000B09317088091180890911908A0911A089B
:105DE000B0911B080196A11DB11D809318089093D6
:105DF0001908A0931A08B0931B08BF91AF919F9107
:105E00008F913F912F910F900FBE0F901F9018957B
:105E1000789484B5826084BD84B5816084BD85B585
:105E2000826085BD85B5816085BDEEE6F0E080814C
:105E300081608083E1E8F0E010828081826080836D
:105E4000808181608083E0E8F0E0808181608083F0
:105E5000E1EBF0E0808184608083E0EBF0E0808122
:105E600081608083EAE7F0E08081846080838081C4
:105E7000826080838081816080838081806880836C
:105E80001092C10008955058BB27AA270E945B2F8B
:105E90000C94AC300E949E3038F00E94A53020F067
:105EA00039F49F3F19F426F40C949B300EF4E095DE
:105EB000E7FB0C949530E92F0E94BD3058F3BA17D8
:105EC000620773078407950720F079F4A6F50C9410
:105ED000DF300EF4E0950B2EBA2FA02D0B01B90187
:105EE00090010C01CA01A0011124FF27591B99F050
:105EF000593F50F4503E68F11A16F040A22F232F5C
:105F0000342F4427585FF3CF469537952795A795AB
:105F1000F0405395C9F77EF41F16BA0B620B730B52
:105F2000840BBAF09150A1F0FF0FBB1F661F771FC3
:105F3000881FC2F70EC0BA0F621F731F841F48F478
:105F4000879577956795B795F7959E3F08F0B0CF01
:105F50009395880F08F09927EE0F979587950895E8
:105F60000E94C42F0C94AC300E94A53058F00E94BF
:105F70009E3040F029F45F3F29F00C949530511188
:105F80000C94E0300C949B300E94BD3068F3992350
:105F9000B1F3552391F3951B550BBB27AA27621725
:105FA0007307840738F09F5F5F4F220F331F441F32
:105FB000AA1FA9F335D00E2E3AF0E0E832D0915066
:105FC0005040E695001CCAF72BD0FE2F29D0660F53
:105FD000771F881FBB1F261737074807AB07B0E896
:105FE00009F0BB0B802DBF01FF2793585F4F3AF09C
:105FF0009E3F510578F00C9495300C94E0305F3F53
:10600000E4F3983ED4F3869577956795B795F79521
:106010009F5FC9F7880F911D9695879597F9089509
:10602000E1E0660F771F881FBB1F621773078407A5
:10603000BA0720F0621B730B840BBA0BEE1F88F7B4
:10604000E09508950E9429306894B1110C94E030D5
