:100000000C9478150C94A0150C94A0150C94A015C4
:100010000C94A0150C94A0150C94A0150C94A0158C
:100020000C94A0150C94E62A0C94A0150C94A01521
:100030000C94A0150C94A0150C94A0150C94A0156C
:100040000C94F42F0C94A0150C94C0380C94A015AB
:100050000C94DF340C947B350C94A0150C94A015F3
:100060000C94012D0C94A0150C94112E0C94A01539
:100070000C941B350C94B6350C94A01500000001AF
:100080000101020203030304040505050606070730
:100090000708080909090A0A0A0B0B0C0C0C0D0DBC
:1000A0000E0E0E0F0F101010111112121213131347
:1000B0001414151515161617171718181819191AD4
:1000C0001A1A1B1B1C1C1C1D1D1D1E1E1F1F1F2062
:1000D00020202121222222232324242425252526F1
:1000E0002627272728282829292A2A2A2B2B2B2C80
:1000F0002C2C2D2D2E2E2E2F2F2F30303031313213
:1001000032323333333434343535363636373737A5
:100110003838383939393A3A3A3B3B3B3C3C3D3D3B
:100120003D3E3E3E3F3F3F404040414141424242D2
:10013000434343444444454545464646474747486C
:1001400048484949494A4A4A4A4B4B4B4C4C4C4D0A
:100150004D4D4E4E4E4F4F4F4F50505051515152AA
:10016000525253535353545454555555555656564D
:1001700057575757585858595959595A5A5A5B5BF3
:100180005B5B5C5C5C5C5D5D5D5E5E5E5E5F5F5F9D
:100190005F6060606061616161626262626363634B
:1001A00063646464646565656566666666676767FB
:1001B00067676868686869696969696A6A6A6A6BB1
:1001C0006B6B6B6B6C6C6C6C6C6D6D6D6D6D6E6E6A
:1001D0006E6E6E6F6F6F6F6F707070707071717127
:1001E00071717172727272727373737373737474E8
:1001F00074747474757575757575757676767676AE
:100200007677777777777777777878787878787878
:1002100079797979797979797A7A7A7A7A7A7A7A46
:100220007A7B7B7B7B7B7B7B7B7B7B7C7C7C7C7C1A
:100230007C7C7C7C7C7C7D7D7D7D7D7D7D7D7D7DF4
:100240007D7D7D7E7E7E7E7E7E7E7E7E7E7E7E7ED1
:100250007E7E7E7E7F7F7F7F7F7F7F7F7F7F7F7FB2
:100260007F7F7F7F7F7F7F7F7F7F7F7F7F7F7F7F9E
:100270007F7F7F7F7F7F7F7F7F7F7F7F7F7F7F7F8E
:100280007F7F7F7F7F7F7F7F7F7F7F7F7F7F7F7F7E
:100290007F7F7F7F7F7F7F7F7F7F7F7F7F7F7F7F6E
:1002A0007F7F7F7F7F7E7E7E7E7E7E7E7E7E7E7E69
:1002B0007E7E7E7E7E7E7D7D7D7D7D7D7D7D7D7D68
:1002C0007D7D7D7C7C7C7C7C7C7C7C7C7C7C7B7B6D
:1002D0007B7B7B7B7B7B7B7B7A7A7A7A7A7A7A7A76
:1002E0007A79797979797979797878787878787884
:1002F0007777777777777776767676767676757599
:1003000075757575757474747474747373737373AD
:1003100073727272727271717171717170707070CA
:10032000706F6F6F6F6F6E6E6E6E6E6D6D6D6D6DEB
:100330006C6C6C6C6C6B6B6B6B6B6A6A6A6A6A690F
:100340006969696868686867676767676666666637
:100350006565656564646464636363636262626265
:1003600061616161606060605F5F5F5F5E5E5E5E95
:100370005D5D5D5C5C5C5C5B5B5B5B5A5A5A5959CA
:100380005959585858575757575656565555555501
:10039000545454535353535252525151515050503C
:1003A0004F4F4F4F4E4E4E4D4D4D4C4C4C4B4B4B7B
:1003B0004A4A4A4A494949484848474747464646BB
:1003C0004545454444444343434242424141414000
:1003D00040403F3F3F3E3E3E3D3D3D3C3C3B3B3B46
:1003E0003A3A3A3939393838383737373636363590
:1003F0003534343433333332323231313030302FDC
:100400002F2F2E2E2E2D2D2C2C2C2B2B2B2A2A2A27
:100410002929282828272727262625252524242476
:10042000232322222222212120201F1F1F1E1E1DC6
:100430001D1D1C1C1C1B1B1A1A1A19191818181719
:10044000171716161515151414131313121212116B
:10045000111010100F0F0E0E0E0D0D0C0C0C0B0BBF
:100460000A0A0A0909090808070707060605050513
:10047000040403030302020101010000FFFFFFFE69
:10048000FEFEFDFDFCFCFCFBFBFAFAFAF9F9F8F8BC
:10049000F8F7F7F6F6F6F5F5F5F4F4F3F3F3F2F210
:1004A000F1F1F1F0F0EFEFEFEEEEEDEDEDECECEC65
:1004B000EBEBEAEAEAE9E9E8E8E8E7E7E7E6E6E5B8
:1004C000E5E5E4E4E3E3E3E2E2E2E1E1E0E0E0DF0A
:1004D000DFDFDEDEDDDDDDDCDCDBDBDBDADADAD95B
:1004E000D9D8D8D8D7D7D7D6D6D6D5D5D4D4D4D3AB
:1004F000D3D3D2D2D1D1D1D0D0D0CFCFCFCECECDF9
:10050000CDCDCCCCCCCBCBCBCACAC9C9C9C8C8C845
:10051000C7C7C7C6C6C6C5C5C5C4C4C4C3C3C2C28F
:10052000C2C1C1C1C0C0C0BFBFBFBEBEBEBDBDBDD8
:10053000BCBCBCBBBBBBBABABAB9B9B9B8B8B8B71E
:10054000B7B7B6B6B6B5B5B5B5B4B4B4B3B3B3B260
:10055000B2B2B1B1B1B0B0B0B0AFAFAFAEAEAEADA0
:10056000ADADACACACACABABABAAAAAAAAA9A9A9DD
:10057000A8A8A8A8A7A7A7A6A6A6A6A5A5A5A4A417
:10058000A4A4A3A3A3A3A2A2A2A1A1A1A1A0A0A04D
:10059000A09F9F9F9F9E9E9E9E9D9D9D9D9C9C9C7F
:1005A0009C9B9B9B9B9A9A9A9A99999999989898AF
:1005B00098989797979796969696969595959594D9
:1005C0009494949493939393939292929292919100
:1005D00091919190909090908F8F8F8F8F8E8E8E23
:1005E0008E8E8E8D8D8D8D8D8C8C8C8C8C8C8B8B42
:1005F0008B8B8B8B8A8A8A8A8A8A8A89898989895C
:10060000898988888888888888878787878787876F
:100610008686868686868686858585858585858582
:10062000858484848484848484848483838383838E
:100630008383838383838282828282828282828294
:100640008282828181818181818181818181818197
:100650008181818180808080808080808080808096
:10066000808080808080808080808080808080808A
:10067000808080808080808080808080808080807A
:10068000808080808080808080808080808080806A
:10069000808080808080808080808080808080805A
:1006A000808080808081818181818181818181813F
:1006B0008181818181818282828282828282828220
:1006C00082828283838383838383838383838484FB
:1006D00084848484848484848585858585858585D2
:1006E00085868686868686868687878787878787A4
:1006F00088888888888888888989898989898A8A70
:100700008A8A8A8A8A8B8B8B8B8B8B8C8C8C8C8C39
:100710008C8D8D8D8D8D8E8E8E8E8E8E8F8F8F8FFC
:100720008F909090909091919191919292929292BB
:100730009393939393949494949495959595969676
:10074000969696979797979898989898999999992F
:100750009A9A9A9A9B9B9B9B9C9C9C9C9D9D9D9DE1
:100760009E9E9E9E9F9F9F9FA0A0A0A0A1A1A1A191
:10077000A2A2A2A3A3A3A3A4A4A4A4A5A5A5A6A63C
:10078000A6A6A7A7A7A8A8A8A8A9A9A9AAAAAAAAE5
:10079000ABABABACACACACADADADAEAEAEAFAFAF8A
:1007A000B0B0B0B0B1B1B1B2B2B2B3B3B3B4B4B42B
:1007B000B5B5B5B5B6B6B6B7B7B7B8B8B8B9B9B9CB
:1007C000BABABABBBBBBBCBCBCBDBDBDBEBEBEBF66
:1007D000BFBFC0C0C0C1C1C1C2C2C2C3C3C4C4C400
:1007E000C5C5C5C6C6C6C7C7C7C8C8C8C9C9C9CA96
:1007F000CACBCBCBCCCCCCCDCDCDCECECFCFCFD02A
:10080000D0D0D1D1D1D2D2D3D3D3D4D4D4D5D5D5BD
:10081000D6D6D7D7D7D8D8D8D9D9DADADADBDBDB4E
:10082000DCDCDDDDDDDEDEDEDFDFE0E0E0E1E1E2DD
:10083000E2E2E3E3E3E4E4E5E5E5E6E6E7E7E7E86B
:10084000E8E8E9E9EAEAEAEBEBECECECEDEDEDEEF9
:10085000EEEFEFEFF0F0F1F1F1F2F2F3F3F3F4F485
:10086000F5F5F5F6F6F6F7F7F8F8F8F9F9FAFAFA11
:10087000FBFBFCFCFCFDFDFEFEFEFFFF000000009C
:100880000101010102020202030303030404040440
:1008900004050505050606060707070708080808F2
:1008A000090909090A0A0A0A0B0B0B0B0B0C0C0CA1
:1008B0000D0D0D0D0E0E0E0E0F0F0F0F1010101050
:1008C0001111111111121212121313131314141403
:1008D00014151515151616161617171718181818B3
:1008E000191919191A1A1A1A1B1B1B1B1C1C1C1C60
:1008F0001D1D1D1D1E1E1E1E1F1F1F1F2020202010
:1009000020212120222222222323232324242424C1
:10091000252525252626262627272727282828286F
:1009200028292929292A2A2A2A2B2B2B2C2C2C2C22
:100930002D2D2D2D2E2E2E2E2F2F2F2F30303030CF
:100940003131313131323232333333333434343480
:100950003435353536363636363737373838383831
:10096000383939393A3A3A3A3B3B3B3B3C3C3C3CE0
:100970003C3D3D3D3E3E3E3E3E3F3F3F3F40404092
:100980004141414141424242424343434444444441
:1009900045454545464646464747474748484848EF
:1009A00049494949494A4A4A4A4B4B4B4C4C4C4CA1
:1009B0004D4D4D4D4D4E4E4E4E4F4F4F5050505051
:1009C0005151515151525252535353535454545400
:1009D00055555555555656565657575758585858B1
:1009E000585959595A5A5A5A5B5B5B5B5C5C5C5C60
:1009F0005C5D5D5D5E5E5E5E5F5F5F5F5F60606011
:100A000061616161626262626363636363646464BF
:100A10006565656565666666666767676768686871
:100A200069696969696A6A6A6A6B6B6B6C6C6C6C20
:100A30006D6D6D6D6E6E6E6E6F6F6F6F70707070CE
:100A40007071717171727272727373737374747482
:100A50007475757575767676777777777878787830
:100A6000787979797A7A7A7A7B7B7B7B7C7C7C7CDF
:100A70007D7D7D7D7D7E7E7E7F7F7F7F7F7F7F7E94
:100A80007E7E7E7E7D7D7D7D7C7C7C7C7B7B7B7B9E
:100A90007A7A7A7A797979797878787877777777CE
:100AA00076767676757575757474747473737373FE
:100AB00072727271717171707070706F6F6F6F6E32
:100AC0006E6E6E6D6D6D6D6D6C6C6C6C6B6B6B6B5F
:100AD0006A6A6A6969696968686868686767676691
:100AE00066666666656565656464646363636362C0
:100AF0006262626161616160606060605F5F5F5EF1
:100B00005E5E5E5D5D5D5D5C5C5C5C5B5B5B5B5B20
:100B10005A5A5A5A5959595958585858575757574D
:100B2000565656565555555454545454535353537E
:100B300052525251515151505050504F4F4F4F4EB1
:100B40004E4E4E4E4D4D4D4D4C4C4C4C4B4B4B4ADE
:100B50004A4A4A4A4949494948484848474747470D
:100B6000464646454545454544444444434343433E
:100B700042424241414141414040403F3F3F3F3F6F
:100B80003E3E3E3E3D3D3D3C3C3C3C3C3B3B3B3B9E
:100B90003A3A3A3A393939383838383837373737CE
:100BA00036363636353535353434343333333332FF
:100BB00032323232313131313030302F2F2F2F2E2F
:100BC0002E2E2E2E2D2D2D2D2C2C2C2B2B2B2B2A5F
:100BD0002A2A2A292929292928282828272727268F
:100BE00026262626252525242424242423232322BF
:100BF0002222222121202121202020201F1F1F1FEF
:100C00001E1E1E1E1D1D1D1D1C1C1C1B1B1B1B1B1D
:100C10001A1A1A191919191918181818171717174D
:100C2000161616161515151514141413131313137D
:100C30001212121211111110101010100F0F0F0FAD
:100C40000E0E0E0E0D0D0D0D0C0C0C0C0B0B0B0BDC
:100C50000A0A0A0A0909090908080808070707060D
:100C6000060606050505050504040404030303033D
:100C7000020202010101010100000000FFFFFFFE6E
:100C8000FEFEFEFDFDFDFDFCFCFCFCFBFBFBFBFAA0
:100C9000FAFAFAFAF9F9F9F8F8F8F8F8F7F7F7F7CD
:100CA000F6F6F6F5F5F5F5F4F4F4F4F4F3F3F3F3FE
:100CB000F2F2F2F1F1F1F1F1F0F0F0F0EFEFEFEE2E
:100CC000EEEEEEEDEDEDEDEDECECECEBEBEBEBEB5E
:100CD000EAEAEAEAE9E9E9E9E8E8E8E7E7E7E7E78D
:100CE000E6E6E6E6E5E5E5E4E4E4E4E3E3E3E3E3BE
:100CF000E2E2E2E1E1E1E1E0E0E0E0E0DFDFDFDFEE
:100D0000DEDEDEDDDDDDDDDCDCDCDCDCDBDBDBDA1E
:100D1000DADADAD9D9D9D9D8D8D8D8D8D7D7D7D74D
:100D2000D6D6D6D5D5D5D5D4D4D4D4D3D3D3D3D27F
:100D3000D2D2D2D1D1D1D1D0D0D0D0D0CFCFCFCFAD
:100D4000CECECECECDCDCDCDCCCCCCCBCBCBCBCADD
:100D5000CACACAC9C9C9C9C8C8C8C8C7C7C7C7C60F
:100D6000C6C6C6C5C5C5C5C4C4C4C4C4C3C3C3C33D
:100D7000C2C2C2C1C1C1C1C1C0C0C0C0BFBFBFBF6C
:100D8000BEBEBEBDBDBDBDBDBCBCBCBCBBBBBBBB9C
:100D9000BABABABAB9B9B9B9B8B8B8B8B7B7B7B7CB
:100DA000B6B6B6B6B5B5B5B5B4B4B4B4B3B3B3B3FB
:100DB000B2B2B2B2B1B1B1B1B0B0B0B0AFAFAFAE2C
:100DC000AEAEAEAEADADADADACACACABABABABAA5D
:100DD000AAAAAAA9A9A9A9A8A8A8A8A7A7A7A7A78E
:100DE000A6A6A6A5A5A5A5A5A4A4A4A3A3A3A3A2BE
:100DF000A2A2A2A1A1A1A1A1A0A0A0A09F9F9F9FEC
:100E00009E9E9E9E9D9D9D9D9C9C9C9C9B9B9B9B1A
:100E10009A9A9A9A9999999898989897979797974C
:100E2000969696969595959494949493939393937C
:100E300092929292919191919090908F8F8F8F8FAB
:100E40008E8E8E8E8D8D8D8C8C8C8C8B8B8B8B8ADD
:100E50008A8A8A898989898988888888878787860C
:100E6000868686868585858584848484838383823B
:100E70008282828181818181808080808080808067
:100E8000818181818182828283838383838484843C
:100E900085858585868686868787878787888888EB
:100EA000888989898A8A8A8A8A8B8B8B8C8C8C8C9C
:100EB0008D8D8D8D8D8E8E8E8E8F8F8F909090904C
:100EC00091919191929292929393939394949494FA
:100ED00095959595969696969797979797989898AB
:100EE000999999999A9A9A9A9A9B9B9B9C9C9C9C5B
:100EF0009D9D9D9D9E9E9E9E9F9F9F9F9FA0A0A00B
:100F0000A1A1A1A1A1A2A2A2A2A3A3A3A4A4A4A4BB
:100F1000A4A5A5A5A5A6A6A6A7A7A7A7A7A8A8A86C
:100F2000A9A9A9A9AAAAAAAAAAABABABACACACAC1A
:100F3000ACADADADAEAEAEAEAEAFAFAFAFB0B0B0CC
:100F4000B1B1B1B1B2B2B2B2B2B3B3B3B3B4B4B47B
:100F5000B5B5B5B5B6B6B6B6B6B7B7B7B7B8B8B82B
:100F6000B9B9B9B9BABABABABBBBBBBBBCBCBCBCD9
:100F7000BDBDBDBDBEBEBEBEBEBFBFBFC0C0C0C08A
:100F8000C0C1C1C1C2C2C2C2C2C3C3C3C3C4C4C43C
:100F9000C5C5C5C5C6C6C6C6C6C7C7C7C7C8C8C8EB
:100FA000C8C9C9C9C9CACACACBCBCBCBCBCCCCCC9C
:100FB000CCCDCDCDCDCECECECFCFCFCFCFD0D0D04C
:100FC000D1D1D1D1D2D2D2D2D2D3D3D3D3D4D4D4FB
:100FD000D4D5D5D5D5D6D6D6D7D7D7D7D8D8D8D8AB
:100FE000D8D9D9D9D9DADADADBDBDBDBDBDCDCDC5C
:100FF000DCDDDDDDDEDEDEDEDEDFDFDFE0E0E0E00B
:10100000E1E1E1E1E1E2E2E2E3E3E3E3E4E4E4E4B9
:10101000E4E5E5E5E5E6E6E6E6E7E7E7E8E8E8E86B
:10102000E9E9E9E9E9EAEAEAEBEBEBEBECECECEC19
:10103000EDEDEDEDEDEEEEEEEFEFEFEFF0F0F0F0C9
:10104000F1F1F1F1F2F2F2F2F3F3F3F3F3F4F4F479
:10105000F5F5F5F5F5F6F6F6F7F7F7F7F8F8F8F829
:10106000F9F9F9F9FAFAFAFAFBFBFBFBFBFCFCFCD9
:10107000FDFDFDFDFEFEFEFEFFFFFFFF8080808088
:101080008080808081818181818181818282828250
:101090008282828282838383838383838484848421
:1010A00084848484848585858585858586868686F1
:1010B00086868686878787878787878788888888C0
:1010C0008888888889898989898989898A8A8A8A90
:1010D0008A8A8A8A8A8B8B8B8B8B8B8B8B8C8C8C62
:1010E0008C8C8C8C8D8D8D8D8D8D8D8D8D8E8E8E31
:1010F0008E8E8E8E8F8F8F8F8F8F8F8F9090909000
:1011000090909090919191919191919192929292CF
:10111000929292929393939393939393949494949F
:101120009494949494959595959595959696969670
:101130009696969696979797979797979798989841
:10114000989898989899999999999999999A9A9A11
:101150009A9A9A9A9B9B9B9B9B9B9B9B9B9C9C9CE0
:101160009C9C9C9C9C9D9D9D9D9D9D9D9E9E9E9EB0
:101170009E9E9E9E9F9F9F9F9F9F9F9F9FA0A0A080
:10118000A0A0A0A0A1A1A1A1A1A1A1A1A2A2A2A24F
:10119000A2A2A2A2A3A3A3A3A3A3A3A3A4A4A4A41F
:1011A000A4A4A4A4A4A5A5A5A5A5A5A5A6A6A6A6F0
:1011B000A6A6A6A6A7A7A7A7A7A7A7A7A8A8A8A8BF
:1011C000A8A8A8A8A8A9A9A9A9A9A9A9A9AAAAAA91
:1011D000AAAAAAAAABABABABABABABABACACACAC5F
:1011E000ACACACACADADADADADADADADAEAEAEAE2F
:1011F000AEAEAEAEAFAFAFAFAFAFAFAFAFB0B0B000
:10120000B0B0B0B0B0B1B1B1B1B1B1B1B2B2B2B2CF
:10121000B2B2B2B2B3B3B3B3B3B3B3B3B4B4B4B49E
:10122000B4B4B4B4B5B5B5B5B5B5B5B5B6B6B6B66E
:10123000B6B6B6B6B7B7B7B7B7B7B7B7B8B8B8B83E
:10124000B8B8B8B8B8B9B9B9B9B9B9B9BABABABA0F
:10125000BABABABABBBBBBBBBBBBBBBBBCBCBCBCDE
:10126000BCBCBCBCBDBDBDBDBDBDBDBDBDBEBEBEAF
:10127000BEBEBEBEBFBFBFBFBFBFBFBFC0C0C0C07E
:10128000C0C0C0C0C1C1C1C1C1C1C1C1C1C2C2C24F
:10129000C2C2C2C2C2C3C3C3C3C3C3C3C4C4C4C41F
:1012A000C4C4C4C4C4C5C5C5C5C5C5C5C5C6C6C6F0
:1012B000C6C6C6C6C7C7C7C7C7C7C7C7C8C8C8C8BE
:1012C000C8C8C8C8C9C9C9C9C9C9C9C9CACACACA8E
:1012D000CACACACACBCBCBCBCBCBCBCBCBCCCCCC5F
:1012E000CCCCCCCCCCCDCDCDCDCDCDCDCDCECECE30
:1012F000CECECECECFCFCFCFCFCFCFCFD0D0D0D0FE
:10130000D0D0D0D0D1D1D1D1D1D1D1D1D2D2D2D2CD
:10131000D2D2D2D2D2D3D3D3D3D3D3D3D4D4D4D49E
:10132000D4D4D4D4D4D5D5D5D5D5D5D5D6D6D6D66E
:10133000D6D6D6D6D6D7D7D7D7D7D7D7D8D8D8D83E
:10134000D8D8D8D8D9D9D9D9D9D9D9D9D9DADADA0E
:10135000DADADADADADBDBDBDBDBDBDBDCDCDCDCDE
:10136000DCDCDCDCDCDDDDDDDDDDDDDDDDDEDEDEAF
:10137000DEDEDEDEDFDFDFDFDFDFDFDFDFE0E0E07E
:10138000E0E0E0E0E1E1E1E1E1E1E1E1E2E2E2E24D
:10139000E2E2E2E2E2E3E3E3E3E3E3E3E4E4E4E41E
:1013A000E4E4E4E4E5E5E5E5E5E5E5E5E6E6E6E6ED
:1013B000E6E6E6E6E7E7E7E7E7E7E7E7E7E8E8E8BE
:1013C000E8E8E8E8E9E9E9E9E9E9E9E9EAEAEAEA8D
:1013D000EAEAEAEAEBEBEBEBEBEBEBEBECECECEC5D
:1013E000ECECECECECEDEDEDEDEDEDEDEDEEEEEE2F
:1013F000EEEEEEEEEEEFEFEFEFEFEFEFF0F0F0F0FE
:10140000F0F0F0F0F0F1F1F1F1F1F1F1F1F2F2F2CE
:10141000F2F2F2F2F3F3F3F3F3F3F3F3F4F4F4F49C
:10142000F4F4F4F4F4F5F5F5F5F5F5F5F6F6F6F66D
:10143000F6F6F6F6F7F7F7F7F7F7F7F7F8F8F8F83C
:10144000F8F8F8F8F8F9F9F9F9F9F9F9F9FAFAFA0E
:10145000FAFAFAFAFBFBFBFBFBFBFBFBFCFCFCFCDC
:10146000FCFCFCFCFDFDFDFDFDFDFDFDFDFEFEFEAD
:10147000FEFEFEFEFFFFFFFFFFFFFFFF000000007C
:10148000000000000001010101010101010202024E
:10149000020202020303030303030303040404041C
:1014A00004040404050505050505050506060606EC
:1014B00006060606070707070707070707080808BD
:1014C0000808080809090909090909090A0A0A0A8C
:1014D0000A0A0A0A0B0B0B0B0B0B0B0B0B0C0C0C5D
:1014E0000C0C0C0C0D0D0D0D0D0D0D0D0D0E0E0E2D
:1014F0000E0E0E0E0F0F0F0F0F0F0F0F0F101010FD
:1015000010101010101111111111111112121212CC
:10151000121212121313131313131313141414149B
:10152000141414141515151515151515151616166C
:10153000161616161717171717171717181818183B
:10154000181818181919191919191919191A1A1A0C
:101550001A1A1A1A1A1B1B1B1B1B1B1B1C1C1C1CDC
:101560001C1C1C1C1D1D1D1D1D1D1D1D1E1E1E1EAB
:101570001E1E1E1E1F1F1F1F1F1F1F1F1F2020207C
:10158000202020202121202121222121202222224D
:10159000222222222323232323232323242424241B
:1015A00024242424242525252525252526262626EC
:1015B00026262626272727272727272728282828BB
:1015C0002828282829292929292929292A2A2A2A8B
:1015D0002A2A2A2A2A2B2B2B2B2B2B2B2B2C2C2C5D
:1015E0002C2C2C2C2D2D2D2D2D2D2D2D2E2E2E2E2B
:1015F0002E2E2E2E2E2F2F2F2F2F2F2F2F303030FD
:1016000030303030313131313131313132323232CA
:10161000323232323333333333333333333434349B
:10162000343434343535353535353535363636366A
:10163000363636363637373737373737373838383C
:10164000383838383939393939393939393A3A3A0B
:101650003A3A3A3A3A3B3B3B3B3B3B3B3C3C3C3CDB
:101660003C3C3C3C3D3D3D3D3D3D3D3D3E3E3E3EAA
:101670003E3E3E3E3F3F3F3F3F3F3F3F404040407A
:10168000404040404141414141414141424242424A
:10169000424242424343434343434343444444441A
:1016A00044444444454545454545454546464646EA
:1016B00046464646464747474747474748484848BB
:1016C0004848484849494949494949494A4A4A4A8A
:1016D0004A4A4A4A4A4B4B4B4B4B4B4B4C4C4C4C5B
:1016E0004C4C4C4C4C4D4D4D4D4D4D4D4D4E4E4E2C
:1016F0004E4E4E4E4F4F4F4F4F4F4F4F50505050FA
:1017000050505050505151515151515152525252CA
:10171000525252525253535353535353545454549A
:10172000545454545455555555555555565656566A
:10173000565656565657575757575757585858583A
:10174000585858585859595959595959595A5A5A0B
:101750005A5A5A5A5B5B5B5B5B5B5B5B5C5C5C5CD9
:101760005C5C5C5C5D5D5D5D5D5D5D5D5E5E5E5EA9
:101770005E5E5E5E5F5F5F5F5F5F5F5F6060606079
:10178000606060606161616161616161616262624A
:10179000626262626363636363636363636464641A
:1017A00064646464656565656565656565666666EA
:1017B00066666666676767676767676768686868B9
:1017C0006868686869696969696969696A6A6A6A89
:1017D0006A6A6A6A6B6B6B6B6B6B6B6B6C6C6C6C59
:1017E0006C6C6C6C6D6D6D6D6D6D6D6D6E6E6E6E29
:1017F0006E6E6E6E6F6F6F6F6F6F6F6F70707070F9
:1018000070707070717171717171717171727272C9
:101810007272727273737373737373737474747498
:10182000747474747475757575757575757676766A
:101830007676767677777777777777777778787839
:10184000787878787879797979797979797A7A7A0A
:101850007A7A7A7A7B7B7B7B7B7B7B7B7C7C7C7CD8
:101860007C7C7C7C7D7D7D7D7D7D7D7D7D7E7E7EA9
:101870007E7E7E7E7F7F7F7F7F7F7F7F002F597977
:101880007F7F7F7F7F7874757A7F7F7F7F7F7F7C8C
:101890007A7A7C7F7F7F7F7F7F7E7C7C7D7F7F7F6E
:1018A0007F7F7F7F7D7D7D7E7F7F7F7F7F7F7E7D52
:1018B0007D7E7F7F7F7F7F7F7E7E7E7E7F7F7F7F3F
:1018C0007F7F7F7E7E7E7F7F7F7F7F7F7F7E7E7E2E
:1018D0007F7F7F7F7F7F7F7E7E7E7F7F7F7F7F7F1B
:1018E0007F7F7E7E7F7F7F7F7F7F7F7F7E7E7F7F0C
:1018F0007F7F7F7F7F7F7F7E7F7F7F7F7F7F7F7FF9
:101900007F7F7F7F7F7F7F7F7F7F7F7F7F7F7F7FE7
:101910007F7F7F7F7F7F7F7F7F7F7F7F7F7F7F7FD7
:101920007F7F7F7F7F7F7F7F7F7F7F7F7F7F7F7FC7
:101930007F7F7F7F7F7F7F7F7F7F7F7F7F7F7F7FB7
:101C00007F7F7F7F7F7F7F7F7F7F7F7E7E7F7F7FE6
:101C10007F7F7F7F7F7E7E7F7F7F7F7F7F7F7F7ED7
:101C20007E7F7F7F7F7F7F7F7F7E7E7E7F7F7F7FC8
:101C30007F7F7F7E7E7E7F7F7F7F7F7F7F7E7E7EBA
:101C40007E7F7F7F7F7F7F7E7D7D7E7F7F7F7F7FAB
:101C50007F7E7D7D7D7F7F7F7F7F7F7F7D7C7C7EA4
:101C60007F7F7F7F7F7F7C7A7A7C7F7F7F7F7F7F94
:101C70007A7574787F7F7F7F7F79592F00D0A68611
:101C80008080808080878B8A858080808080808330
:101C9000858583808080808080818383828080802E
:101CA000808080808282828180808080808081822A
:101CB000828180808080808081818181808080801D
:101CC000808080818181808080808080808181810E
:101CD0008080808080808080818180808080808002
:101CE00080808181808080808080808080818080F1
:101CF00080808080808080818080808080808080E3
:101D000080808080808080808080808080808080D3
:101D100080808080808080808080808080808080C3
:101D200080808080808080808080808080808080B3
:101D300080808080808080808080808080808080A3
:1020000080818080808080808080808181808080CD
:1020100080808080808181808080808080808081BD
:1020200081818080808080808081818180808080AB
:10203000808080818181808080808080808181819A
:102040008180808080808081828281808080808089
:102050008081828282808080808080808283838170
:102060008080808080808385858380808080808060
:10207000858A8B87808080808086A6D000010204BC
:10208000050708090B0C0E0F101213151617191A55
:102090001B1D1E20212224252628292A2C2D2E2FE7
:1020A000313233353637383A3B3C3D3E404142438E
:1020B00044454647494A4B4C4D4E4F50515253545C
:1020C0005556575859595A5B5C5D5E5E5F60616258
:1020D0006263646465666667686869696A6A6B6B8F
:1020E0006C6C6D6D6E6E6F6F6F7070707071717102
:1020F00071727272727272727373737373737373B9
:1021000073727272727272727171717170707070BA
:102110006F6F6F6E6E6D6D6C6C6B6B6A6A69696800
:102120006867666665646463626261605F5E5E5D87
:102130005C5B5A59595857565554535251504F4E4B
:102140004D4C4B4A4947464544434241403E3D3C45
:102150003B3A383736353332312F2E2D2C2A292869
:102160002625242221201E1D1C1A191716151312AC
:10217000100F0E0C0B0908070504020100FEFDFB01
:10218000FAF8F7F6F4F3F1F0EFEDECEAE9E8E6E55A
:10219000E4E2E1DFDEDDDBDAD9D7D6D5D3D2D1D0A8
:1021A000CECDCCCAC9C8C7C5C4C3C2C1BFBEBDBCE1
:1021B000BBBAB9B8B6B5B4B3B2B1B0AFAEADACABF3
:1021C000AAA9A8A7A6A6A5A4A3A2A1A1A09F9E9DD7
:1021D0009D9C9B9B9A999998979796969595949480
:1021E0009393929291919090908F8F8F8F8E8E8EED
:1021F0008E8D8D8D8D8D8D8D8C8C8C8C8C8C8C8C16
:102200008C8C8D8D8D8D8D8D8E8E8E8E8F8F8F8FF4
:10221000909090919192929393949495959696978D
:10222000979899999A9B9B9C9D9D9E9FA0A1A1A2E6
:10223000A3A4A5A6A6A7A8A9AAABACADAEAFB0B102
:10224000B2B3B4B5B6B8B9BABBBCBDBEC0C1C2C3E7
:10225000C4C5C7C8C9CACCCDCED0D1D2D3D5D6D7A4
:10226000D9DADBDDDEDFE1E2E4E5E6E8E9EAECED40
:10227000EFF0F1F3F4F6F7F8FAFBFDFE80808181D0
:1022800082828283838484858586878788888989FA
:102290008A8A8B8B8C8C8D8D8E8E8F8F9090919166
:1022A00092929293939494959596969797989899DD
:1022B000999A9A9B9C9C9C9D9D9E9E9FA0A0A1A14B
:1022C000A1A2A2A3A4A4A5A5A6A6A7A7A8A8A9A9B8
:1022D000AAAAABABACACACADADAEAEAFB0B0B1B129
:1022E000B1B2B2B3B4B4B5B5B6B6B7B7B7B8B8B99A
:1022F000BABABBBBBBBCBCBDBEBEBFBFC0C0C1C108
:10230000C2C2C3C3C4C4C5C5C6C6C7C7C7C8C8C977
:10231000C9CACBCBCCCCCDCDCECECFCFD0D0D0D1E7
:10232000D1D2D2D3D3D4D4D5D5D6D7D7D8D8D8D95B
:10233000D9DADADBDBDCDCDDDDDEDEDFDFE0E1E1CC
:10234000E2E2E3E3E4E4E5E5E6E6E7E7E8E8E9E935
:10235000EAEAEBEBECECEDEDEEEEEFEFF0F0F1F1A5
:10236000F2F2F2F3F3F4F5F5F6F6F7F7F8F8F9F917
:10237000F9FAFAFBFBFCFDFDFEFEFFFF0000010188
:1023800002020303040405050606070708080909F5
:10239000090A0B0B0C0C0D0D0E0E0F0F1010101167
:1023A00011121313141415151616171718181819D7
:1023B0001A1A1B1B1B1C1C1D1E1E1F1F2020202148
:1023C00022222323242424252526272728282929B7
:1023D0002A2A2B2B2C2C2D2D2D2E2E2F2F30303129
:1023E0003132333334343535363637373838393996
:1023F000393A3B3B3C3C3C3D3D3E3F3F4040414108
:102400004142424343444545464647474748484979
:10241000494A4A4B4C4C4D4D4E4E4F4F50505151E6
:102420005252535354545555565657575858595954
:102430005A5A5B5B5C5C5D5D5E5E5F5F60606061C5
:10244000616263636464646565666667676868693A
:102450006A6A6B6B6B6C6C6D6E6E6F6F70707071A7
:102460007172727374747475767677777878797917
:102470007A7A7B7B7C7C7C7D7D7E7E7F7F7E7E7D91
:102480007D7C7C7C7B7B7A7A7979787877777676B5
:102490007574747473727271717070706F6F6E6E28
:1024A0006D6C6C6B6B6B6A6A69686867676666659A
:1024B0006564646463636261616060605F5F5E5E07
:1024C0005D5D5C5C5B5B5A5A595958585757565674
:1024D0005555545453535252515150504F4F4E4EE4
:1024E0004D4D4C4C4B4A4A49494848474747464658
:1024F0004545444343424241414140403F3F3E3DC8
:102500003D3C3C3C3B3B3A39393938383737363635
:1025100035353434333332313130302F2F2E2E2DA8
:102520002D2D2C2C2B2B2A2A292928282727262514
:102530002524242423232222212020201F1F1E1E85
:102540001D1C1C1B1B1B1A1A1918181817171616F6
:102550001515141413131211111010100F0F0E0E65
:102560000D0D0C0C0B0B0A090909080807070606D4
:1025700005050404030302020101FFFFFEFEFDFD49
:10258000FCFBFBFAFAF9F9F9F8F8F7F7F6F6F5F5C6
:10259000F4F3F3F2F2F2F1F1F0F0EFEFEEEEEDED35
:1025A000ECECEBEBEAEAE9E9E8E8E7E7E6E6E5E5A3
:1025B000E4E4E3E3E2E2E1E1E0DFDFDEDEDDDDDC17
:1025C000DCDBDBDADAD9D9D8D8D8D7D7D6D5D5D489
:1025D000D4D3D3D2D2D1D1D0D0D0CFCFCECECDCDF7
:1025E000CCCCCBCBCAC9C9C8C8C7C7C7C6C6C5C566
:1025F000C4C4C3C3C2C2C1C1C0C0BFBFBEBEBDBCD4
:10260000BCBBBBBBBABAB9B8B8B7B7B7B6B6B5B545
:10261000B4B4B3B2B2B1B1B1B0B0AFAEAEADADACB7
:10262000ACACABABAAAAA9A9A8A8A7A7A6A6A5A522
:10263000A4A4A3A2A2A1A1A1A0A09F9E9E9D9D9C97
:102640009C9C9B9A9A999998989797969695959409
:10265000949393929292919190908F8F8E8E8D8D74
:102660008C8C8B8B8A8A89898888878786858584E4
:1026700084838382828281818080FF5D7572737220
:10268000737372737273737273737373737373731D
:10269000737373737373737373737373737373730A
:1026A00073737373737373737373737373737373FA
:1026B00073737373737373737373737373737373EA
:1026C00073737373737373737373737373737373DA
:1026D00073737373737373737373737373737373CA
:1026E00073737373737373737373737373737373BA
:1026F00073737373737373737373737373737373AA
:102700007373737373737373737373737373737399
:102710007373737373737373737373737373737389
:102720007373737373737373737373737373737379
:102730007373737373737373737373737373737369
:102740007373737373737373737373737373737359
:102750007373737373737373737373737373737349
:10276000737373737373737373737373737273733A
:102770007273727373727372755D00A28A8D8C8D21
:102780008C8C8D8C8D8C8C8D8C8C8C8C8C8C8C8C86
:102790008C8C8C8C8C8C8C8C8C8C8C8C8C8C8C8C79
:1027A0008C8C8C8C8C8C8C8C8C8C8C8C8C8C8C8C69
:1027B0008C8C8C8C8C8C8C8C8C8C8C8C8C8C8C8C59
:1027C0008C8C8C8C8C8C8C8C8C8C8C8C8C8C8C8C49
:1027D0008C8C8C8C8C8C8C8C8C8C8C8C8C8C8C8C39
:1027E0008C8C8C8C8C8C8C8C8C8C8C8C8C8C8C8C29
:1027F0008C8C8C8C8C8C8C8C8C8C8C8C8C8C8C8C19
:102800008C8C8C8C8C8C8C8C8C8C8C8C8C8C8C8C08
:102810008C8C8C8C8C8C8C8C8C8C8C8C8C8C8C8CF8
:102820008C8C8C8C8C8C8C8C8C8C8C8C8C8C8C8CE8
:102830008C8C8C8C8C8C8C8C8C8C8C8C8C8C8C8CD8
:102840008C8C8C8C8C8C8C8C8C8C8C8C8C8C8C8CC8
:102850008C8C8C8C8C8C8C8C8C8C8C8C8C8C8C8CB8
:102860008C8C8C8C8C8C8C8C8C8C8C8C8C8D8C8CA7
:102870008C8C8D8C8C8D8C8D8AA20000000076A9AA
:102880000800512D090004B90900054D0A00D3E9DB
:102890000A00F48F0B00F63F0C0070FA0C0000C029
:1028A0000D004F910E00116F0F00025A1000EC52F4
:1028B0001100A35A1200087213000A9A1400A6D33A
:1028C0001500E91F1700ED7F1800E0F419000080E3
:1028D0001B009E221D0022DE1E0004B42000D8A58D
:1028E000220046B5240010E42600153429004DA727
:1028F0002B00D23F2E00DAFF3000C0E93300FFFF8B
:1029000036003D453A0044BC3D0008684100AF4BED
:1029100045008C6A490020C84D002A6852009C4E30
:102920005700A47F5C00B4FF610080D36700FFFF05
:102930006D007B8A740089787B0011D082005F97DC
:102940008A0018D5920041909B0053D0A400339D7B
:10295000AE0046FFB80069FFC30000A7CF00FDFF2F
:10296000DB00F414E9000BF1F60020A00501BE2EF7
:10297000150130AA250182203701A6A04901663A37
:102980005D018CFE7101D2FE8701004E9F01FAFFAE
:10299000B701F229D20120E2ED0140400B027C5D3B
:1029A0002A024C544B0204416E024C419302CC74F7
:1029B000BA0228FDE302A4FD0F03009C3E03F4FFCE
:1029C0006F03E453A40340C4DB0380801604F8BA09
:1029D000540498A896040882DC049882260598E995
:1029E000740530FAC70548FB1F0600387D06E8FF6E
:1029F000DF06C8A748078088B70700012D08F075D3
:102A0000A90830512D091004B90930054D0AA0D389
:102A1000E90AA0F48F0B00F63F0CC06FFA0C70FFB0
:102A2000BF0D804E910EB0106F0FA0015A10E0EB59
:102A3000521160A25A1220087213600A9A1440A719
:102A4000D31540E81F1700EC7F1880DFF419E0FE73
:102A50007F1B009D221D6021DE1E4003B420C0D7D5
:102A6000A522C044B5244010E426C0143429804E69
:102A7000A72B80D23F2E00D8FF30010000020000BB
:102A8000030004000500002100240027002A0000A4
:102A9000002200250028002B000000200023002633
:102AA00000290002020202020202020404040404D9
:102AB00004040403030303030303030101010101ED
:102AC00001010101020408102040800102040810E5
:102AD00020408001020408102040800102040810F8
:102AE00020408000351B2E2B432D8F31223794310F
:102AF00011241FBECFEFD0E1DEBFCDBF12E0A0E0BA
:102B0000B1E0E2E4F7E702C005900D92A430B1070E
:102B1000D9F719E0A4E0B2E001C01D92A83DB107C9
:102B2000E1F71AE2CEEEDAE204C02297FE010E943B
:102B3000903BC43ED107C9F70E94C4370C94943B24
:102B40000C9400001F939B0116161706B4F4B901EC
:102B5000882777FD8095982F0E94433A20E030E047
:102B600040E059E30E94CF3A2091090130910A01D7
:102B700040910B0150910C011DC06115710529F4A4
:102B800060E070E080E89FE31DC0B901882777FD11
:102B90008095982F0E94433A20E030E040E059E3CE
:102BA0000E94CF3A20910D0130910E0140910F010A
:102BB000509110010E94CF3A20E030E040E85FE3FE
:102BC0000E944439609305017093060180930701C8
:102BD0009093080120916603223009F467C02330E6
:102BE00020F4213009F070C107C0233009F4B8C0C7
:102BF000243009F069C10EC11FB7F89420915E031B
:102C000030915F0340916003509161030E94CF3A7D
:102C100020E030E040E055E40E94CF3A20E030E090
:102C200040E858E30E94CF3A20E030E040E857E423
:102C30000E94CF3A0E94153A6093080270930902ED
:102C400080930A0290930B021FBF1FB7F894609104
:102C500062037091630380916403909165032091F6
:102C600005013091060140910701509108010E9431
:102C7000CF3A20E030E040E055E40E94CF3A20E037
:102C800030E040E858E30E94CF3A20E030E040E8EE
:102C900057E40E94CF3A0E94153A60933002709335
:102CA000310280933202909333020DC11FB7F89422
:102CB00020915E0330915F03409160035091610366
:102CC0000E94CF3A20E030E040E055E40E94CF3A45
:102CD00020E030E040E858E30E94CF3A20E030E0C6
:102CE00040E857E40E94CF3A0E94153A60931202DE
:102CF0007093130280931402909315021FBF1FB7A5
:102D0000F8946091620370916303809164039091E1
:102D10006503209105013091060140910701509112
:102D200008010E94CF3A20E030E040E055E40E94E4
:102D3000CF3A20E030E040E858E30E94CF3A20E06C
:102D400030E040E857E40E94CF3A0E94153A609381
:102D50003A0270933B0280933C0290933D02B3C0D1
:102D60001FB7F89420915E0330915F034091600398
:102D7000509161030E94CF3A20E030E040E055E4FA
:102D80000E94CF3A20E030E040E858E30E94CF3A7A
:102D900020E030E040E857E40E94CF3A0E94153A24
:102DA00060931C0270931D0280931E0290931F0279
:102DB0001FBF1FB7F8946091620370916303809105
:102DC00064039091650320910501309106014091C3
:102DD0000701509108010E94CF3A20E030E040E026
:102DE00055E40E94CF3A20E030E040E858E30E94EA
:102DF000CF3A20E030E040E857E40E94CF3A0E940A
:102E0000153A609344027093450280934602909372
:102E1000470259C01FB7F89420915E0330915F03B9
:102E200040916003509161030E94CF3A20E030E06E
:102E300040E055E40E94CF3A20E030E040E858E31B
:102E40000E94CF3A20E030E040E857E40E94CF3AB9
:102E50000E94153A609326027093270280932802FD
:102E6000909329021FBF1FB7F8946091620370917D
:102E70006303809164039091650320910501309173
:102E8000060140910701509108010E94CF3A20E0CD
:102E900030E040E055E40E94CF3A20E030E040E8E6
:102EA00058E30E94CF3A20E030E040E857E40E9427
:102EB000CF3A0E94153A60934E0270934F0280936E
:102EC0005002909351021FBF1F9108956530B1F0D9
:102ED000663020F4613009F059C006C0673059F1FE
:102EE000643109F053C02EC0842F90E0880F991FE1
:102EF000019690937203809371030895442321F007
:102F000081E080935B0302C010925B03842F90E00A
:102F100043E0880F991F4A95E1F7A0E0B0E033E065
:102F2000B695A795979587953A95D1F79093F10225
:102F30008093F0020895842F90E0880F991F80936A
:102F400011010895E42FF0E0EE0FFF1FEE0FFF1FB9
:102F5000DF01A757BE4F8D919D910D90BC91A02D83
:102F60008093090190930A01A0930B01B0930C0187
:102F7000E354FE4F80819181A281B38180930D0142
:102F800090930E01A0930F01B093100108954F92FA
:102F90005F926F927F928F929F92AF92BF92CF92E9
:102FA000DF92EF92FF920F931F93DF93CF9300D0A6
:102FB00000D0CDB7DEB780916603823009F461C0DE
:102FC000833020F4813009F062C107C0833009F4F6
:102FD000ACC0843009F05BC1FCC0809108029091C4
:102FE0000902A0910A02B0910B02209104023091D3
:102FF00005024091060250910702820F931FA41F01
:10300000B51F8093040290930502A0930602B0932B
:103010000702CD01AA27BB279770E0910C02F0911F
:103020000D02E80FF91FE4918E2F992787FD9095E7
:103030009093530380935203809130029091310218
:10304000A0913202B091330220912C0230912D02D6
:1030500040912E0250912F02820F931FA41FB51F83
:1030600080932C0290932D02A0932E02B0932F02F6
:10307000CD01AA27BB279770E0913402F091350269
:10308000FBC08091120290911302A0911402B091A2
:10309000150220910E0230910F02409110025091C2
:1030A0001102820F931FA41FB51F80930E029093ED
:1030B0000F02A0931002B0931102CD01AA27BB27E3
:1030C0009770E0911602F0911702E80FF91FE49152
:1030D0008E2F992787FD90959093530380935203E9
:1030E00080913A0290913B02A0913C02B0913D0246
:1030F00020913602309137024091380250913902C6
:10310000820F931FA41FB51F80933602909337023E
:10311000A0933802B0933902CD01AA27BB2797703C
:10312000E0913E02F0913F02A7C080911C02909175
:103130001D02A0911E02B0911F0220911802309131
:10314000190240911A0250911B02820F931FA41F73
:10315000B51F8093180290931902A0931A02B0939E
:103160001B02CD01AA27BB279770E0912002F091A6
:103170002102E80FF91FE4918E2F992787FD909582
:10318000909353038093520380914402909145029F
:10319000A0914602B0914702209140023091410235
:1031A0004091420250914302820F931FA41FB51F0A
:1031B0008093400290934102A0934202B093430255
:1031C000CD01AA27BB279770E0914802F0914902F0
:1031D00053C08091260290912702A0912802B091BD
:1031E0002902209122023091230240912402509121
:1031F0002502820F931FA41FB51F80932202909374
:103200002302A0932402B0932502CD01AA27BB2755
:103210009770E0912A02F0912B02E80FF91FE491D8
:103220008E2F992787FD9095909353038093520397
:1032300080914E0290914F02A0915002B0915102A4
:1032400020914A0230914B0240914C0250914D0224
:10325000820F931FA41FB51F80934A0290934B02C5
:10326000A0934C02B0934D02CD01AA27BB279770C3
:10327000E0915202F0915302E80FF91FE4918E2F72
:10328000992787FD9095909355038093540320913F
:103290005803822F90E0A0E0B0E089839A83AB834B
:1032A000BC8300914603109147038090480390909F
:1032B0004903E0904303FF24B8016819790988277E
:1032C00077FD8095982F209144033091450340E08D
:1032D00050E00E94323B672F782F892F992787FD76
:1032E0009A952091520330915303201B310B4427B0
:1032F00037FD4095542F620F731F841F951F970150
:10330000442737FD4095542F0E94323B672F782F7A
:10331000892F992787FD9A95060F171F109347034A
:1033200000934603081919090E9D50010F9DB00C1A
:103330001E9DB00C1124AB2CBB0CBB08A80CB91CF7
:10334000B0924903A09248036090590377248824DF
:10335000992400914E0310914F03409050035090D8
:103360005103E0904B03FF24B801641975098827C5
:1033700077FD8095982F20914C0330914D0340E0CC
:1033800050E00E94323B672F782F892F992787FDC5
:103390009A952091540330915503201B310B4427FB
:1033A00037FD4095542F620F731F841F951F97019F
:1033B000442737FD4095542F0E94323B672F782FCA
:1033C000892F992787FD9A95060F171F10934F0392
:1033D00000934E03041915090E9DB0010F9D700D49
:1033E0001E9D700D1124672F770F770B640D751DCF
:1033F0007093510360935003882777FD8095982F31
:10340000A40193010E94323B7B018C01CC24B7FCC8
:10341000C094DC2CC601B50129813A814B815C81C5
:103420000E94323BE60EF71E081F191F64E0159537
:103430000795F794E7946A95D1F7C7010F900F901D
:103440000F900F90CF91DF911F910F91FF90EF9010
:10345000DF90CF90BF90AF909F908F907F906F90B4
:103460005F904F9008950F931F938C01FC0113827E
:103470001282878190859583848320A931A942A9EE
:1034800053A9658570E080E090E0CB01772766273F
:10349000621B730B840B950B218532854385548504
:1034A0000E94733BC901DA01F80184AB95ABA6AB6E
:1034B000B7ABC801069697A786A781E080AF1F919A
:1034C0000F9108956F927F928F929F92AF92BF92C9
:1034D000CF92DF92EF92FF920F931F93CF93DF93E0
:1034E000EC018885882309F43DC088819981019782
:1034F0009983888397FF36C06C817D818E819F81FF
:103500006A807B80882477FC8094982C2FB7F8946D
:103510006B877C878D879E872FBFEB84FC840D850E
:103520001E850E94413A5B016C01C801B7010E94EF
:10353000413A9B01AC01C601B5010E9443397B01B0
:103540008C01C401B3010E94413A9B01AC01C80146
:10355000B7010E94A8390E94103A6F87788B898B37
:103560009A8B18866FB7F8948B859C85AD85BE8540
:103570002F85388949895A89820F931FA41FB51F47
:103580008B879C87AD87BE876FBF2B853C854D851C
:103590005E85B901CA01DF91CF911F910F91FF9014
:1035A000EF90DF90CF90BF90AF909F908F907F90E3
:1035B0006F9008950F931F93CF93DF93EC018B01CE
:1035C0008A819B8101969B838A832C813D8182170E
:1035D000930720F11B821A82FB01818192819D83D6
:1035E0008C8328A939A94AA95BA9678170E080E08A
:1035F00090E0CB0177276627621B730B840B950B3A
:1036000023813481458156810E94733BC901DA01CF
:103610008CAB9DABAEABBFAB1FA70EA7DF91CF911D
:103620001F910F910895DC019E96ED91FC919F975B
:10363000E081E23081F0E33028F4EE2341F0E13024
:1036400099F407C0E33049F0E43071F40BC01E96E2
:1036500005C0569603C05E9601C09696BD010E94B5
:10366000DA1A0895D8961C9208950F931F936CE769
:1036700070E070930D0260930C024CE758E0509399
:103680001702409316022CE730E130932102209379
:1036900020028CE798E190932B0280932A0270938A
:1036A00035026093340250933F0240933E023093C0
:1036B00049022093480290935302809352028CE770
:1036C00090E290935D0280935C028CE792E290938B
:1036D0006702809366028CE794E290937102809374
:1036E00070028AE796E290937B0280937A0201E06F
:1036F00010E010937D0200937C021092820221E080
:1037000020938A0232E03093920293E090939A02DF
:1037100084E08093A2021092A1021093B60200935B
:10372000B5021092BB022093C3023093CB02909358
:10373000D3028093DB021092DA0284E89EE1909338
:10374000F8028093F7021092020310920103209373
:1037500003031092050310920403109207031092C2
:1037600006032093080310920A0310920903109293
:103770000C0310920B0320930D0310920F03109271
:103780000E03109211031092100320931203109253
:103790001403109213031092160310921503209332
:1037A0001703109219031092180310921B03109222
:1037B0001A0320931C0310921E0310921D031092F3
:1037C000200310921F0320932103109223031092D1
:1037D00022031092250310922403209326031092B3
:1037E00028031092270310922A0310922903209392
:1037F0002B0310922D0310922C0310922F03109282
:103800002E03209330031092320310923103109252
:103810003403109233032093350310923703109230
:103820003603109239031092380320933A03109212
:103830003C0310923B0310923E0310923D032093F1
:103840003F031092410310924003109278031092AC
:10385000770360E074E070937A03609379031093C8
:103860007C0300937B0387E090E090937E0380933A
:103870007D0321E030E040E050E020937F0330936F
:10388000800340938103509382031092840310922B
:1038900083037093860360938503109288031092CC
:1038A0008703E5E0F0E0F0938A03E0938903209337
:1038B0008B0330938C0340938D0350938E031092AF
:1038C000900310928F0370939203609391038CE1A5
:1038D00090E0909394038093930384EC99E0909309
:1038E0009603809395038AE692E0A0E0B0E080938F
:1038F000970390939803A0939903B0939A0310921F
:103900009C0310929B0370939E0360939D0389E137
:1039100090E09093A00380939F0388EB9BE09093AB
:10392000A2038093A10387EE92E0A0E0B0E0809331
:10393000A3039093A403A093A503B093A6031092AE
:10394000A8031092A7037093AA036093A90310938E
:10395000AC030093AB03F093AE03E093AD0320936D
:10396000AF033093B0034093B1035093B20310926E
:10397000B4031092B3037093B6036093B50310922F
:10398000B8031092B70388E795E09093BA03809349
:10399000B9038EE591E0A0E0B0E08093BB03909383
:1039A000BC03A093BD03B093BE031092C00310925A
:1039B000BF037093C2036093C1038EE190E09093C4
:1039C000C4038093C30384EB90E09093C603809379
:1039D000C50385E290E0A0E0B0E08093C703909338
:1039E000C803A093C903B093CA031092CC031092EA
:1039F000CB037093CE036093CD031093D003009359
:103A0000CF0380E091E09093D2038093D1038FE3C2
:103A100090E0A0E0B0E08093D3039093D403A09310
:103A2000D503B093D6031F910F9108950E94322CB5
:103A300008952F923F924F925F926F927F928F9252
:103A40009F92AF92BF92CF92DF92EF92FF920F932D
:103A50001F93DF93CF93CDB7DEB72D970FB6F894B2
:103A6000DEBF0FBECDBF80910303882351F084E0F9
:103A700060E00E94F83384E060E00E9437341092E6
:103A8000030384E00E948B34892B51F08091010361
:103A9000909102030196909302038093010317C053
:103AA0008091010390910203909305038093040396
:103AB000109202031092010384E061E00E94F83347
:103AC00084E061E00E94373481E0809303036090DA
:103AD000040380910803882351F08AE060E00E948B
:103AE000F8338AE060E00E943734109208038AE0DD
:103AF0000E948B34892B51F080910603909107032B
:103B00000196909307038093060317C080910603E4
:103B10009091070390930A0380930903109207037F
:103B2000109206038AE061E00E94F8338AE061E0C7
:103B30000E94373481E080930803709009038091DC
:103B40000D03882351F08BE060E00E94F8338BE096
:103B500060E00E94373410920D038BE00E948B349A
:103B6000892B51F080910B0390910C030196909357
:103B70000C0380930B0317C080910B0390910C03EF
:103B800090930F0380930E0310920C0310920B037B
:103B90008BE061E00E94F8338BE061E00E943734F3
:103BA00081E080930D03B0900E038091120388236F
:103BB00051F08EE060E00E94F8338EE060E00E94F9
:103BC0003734109212038EE00E948B34892B51F00F
:103BD00080911003909111030196909311038093AB
:103BE000100317C080911003909111039093140358
:103BF0008093130310921103109210038EE061E082
:103C00000E94F8338EE061E00E94373481E08093B7
:103C100012038090130380911703882351F08FE0E3
:103C200060E00E94F8338FE060E00E943734109229
:103C300017038FE00E948B34892B51F0809115037C
:103C4000909116030196909316038093150317C065
:103C50008091150390911603909319038093180394
:103C600010921603109215038FE061E00E94F83362
:103C70008FE061E00E94373481E0809317039090D9
:103C8000180380911C03882351F080E160E00E94BA
:103C9000F83380E160E00E94373410921C0380E129
:103CA0000E948B34892B51F080911A0390911B0351
:103CB000019690931B0380931A0317C080911A03F7
:103CC00090911B0390931E0380931D0310921B037E
:103CD00010921A0380E161E00E94F83380E161E014
:103CE0000E94373481E080931C03A0901D038091D3
:103CF0002103882351F081E160E00E94F83381E1E3
:103D000060E00E9437341092210381E10E948B34DD
:103D1000892B51F080911F0390912003019690937D
:103D2000200380931F0317C080911F0390912003ED
:103D300090932303809322031092200310921F0379
:103D400081E161E00E94F83381E161E00E94373453
:103D500081E080932103C090220380912603882371
:103D600051F082E160E00E94F83382E160E00E945D
:103D700037341092260382E10E948B34892B51F054
:103D800080912403909125030196909325038093BD
:103D9000240317C080912403909125039093280356
:103DA00080932703109225031092240382E161E09F
:103DB0000E94F83382E161E00E94373481E0809311
:103DC0002603D090270380912B03882351F083E1B1
:103DD00060E00E94F83383E160E00E943734109283
:103DE0002B0383E10E948B34892B51F080912903AE
:103DF00090912A03019690932A038093290317C078
:103E00008091290390912A0390932D0380932C0392
:103E100010922A031092290383E161E00E94F83393
:103E200083E161E00E94373481E080932B03E090CE
:103E30002C0380913003882351F084E160E00E94DC
:103E4000F83384E160E00E9437341092300384E15B
:103E50000E948B34892B51F080912E0390912F0377
:103E6000019690932F0380932E0317C080912E0309
:103E700090912F03909332038093310310922F037C
:103E800010922E0384E161E00E94F83384E161E046
:103E90000E94373481E08093300300913103809198
:103EA0003503882351F085E160E00E94F83385E115
:103EB00060E00E9437341092350385E10E948B3414
:103EC000892B51F0809133039091340301969093A4
:103ED00034038093330317C08091330390913403EC
:103EE0009093370380933603109234031092330378
:103EF00085E161E00E94F83385E161E00E9437349A
:103F000081E080933503F090360380913A03882353
:103F100051F086E160E00E94F83386E160E00E94A3
:103F2000373410923A0386E10E948B34892B51F08A
:103F300080913803909139030196909339038093CF
:103F4000380317C0809138039091390390933C0354
:103F500080933B03109239031092380386E161E0AD
:103F60000E94F83386E161E00E94373481E080935B
:103F70003A0310913B0380913F03882351F087E17E
:103F800060E00E94F83387E160E00E9437341092CD
:103F90003F0387E10E948B34892B51F080913D03D0
:103FA00090913E03019690933E0380933D0317C08A
:103FB00080913D0390913E03909341038093400391
:103FC00010923E0310923D0387E161E00E94F833B6
:103FD00087E161E00E94373481E080933F03809164
:103FE0004003FE0131969DE0DF011D929A95E9F7AD
:103FF00069827A82BB828C829D82AE82CF82D88691
:10400000E9860A87FB861C878D87809112018430A0
:1040100009F4C7C0853048F48230C9F1833008F014
:104020005EC0813009F00DC20AC0863009F443C178
:10403000863008F418C1873009F003C2CAC18EE186
:104040000E94E52C2091770330917803821B930B1B
:10405000AA2797FDA095BA2F20917F033091800366
:104060004091810350918203BC01CD010E94323BFB
:10407000672F782F892F992787FD9A9520917B03A9
:1040800030917C03260F371F20936603DAC18FE13E
:104090000E94E52C2091830330918403821B930BB3
:1040A000AA2797FDA095BA2F20918B0330918C03FE
:1040B00040918D0350918E03BC01CD010E94323B93
:1040C000672F782F892F992787FD9A95209187034D
:1040D00030918803260F371F20936703B2C188E110
:1040E0000E94E52C20918F0330919003821B930B4B
:1040F000AA2797FDA095BA2F209197033091980396
:104100004091990350919A03BC01CD010E94323B2A
:10411000672F782F892F992787FD9A95E090930331
:10412000F0909403E60EF71EF0926903E0926803A4
:1041300000E010E033E016950795F794E7943A9580
:10414000D1F7F0928402E09283025701CC24DD245F
:1041500020917C0230917D0240E050E0C601B50123
:104160000E94323B6093850270938602809387029F
:1041700090938802F092BD02E092BC022091B502B9
:104180003091B60240E050E0C601B5010E94323BDA
:104190006093BE027093BF028093C0029093C102ED
:1041A00050C189E10E94E52C20919B0330919C0332
:1041B000821B930BAA2797FDA095BA2F2091A303EA
:1041C0003091A4034091A5035091A603BC01CD01F9
:1041D0000E94323B672F782F892F992787FD9A9568
:1041E000E0909F03F090A003E60EF71EF0926B03A1
:1041F000E0926A0300E010E083E016950795F794DB
:10420000E7948A95D1F7F0929C02E0929B025701C5
:10421000CC24DD2420917C0230917D0240E050E0EE
:10422000C601B5010E94323B60939D0270939E02CD
:1042300080939F029093A002F092D502E092D40264
:104240002091B5023091B60240E050E0C601B501C0
:104250000E94323B6093D6027093D7028093D802BB
:104260009093D902EEC08AE10E94E52C2091A70329
:104270003091A803821B930BAA2797FDA095BA2F14
:104280002091AF033091B0034091B1035091B2033C
:10429000BC01CD010E94323B672F782F892F9927CF
:1042A00087FD9A952091AB033091AC03260F371F01
:1042B00020936C03C6C08BE10E94E52C2091B303D0
:1042C0003091B403821B930BAA2797FDA095BA2FB8
:1042D0002091BB033091BC034091BD035091BE03BC
:1042E000BC01CD010E94323B672F782F892F99277F
:1042F00087FD9A952091B7033091B803260F371F99
:1043000030936E0320936D038FB7F894442737FDE5
:104310004095542FFBE0220F331F441F551FFA9581
:10432000D1F7209358023093590240935A02509388
:104330005B028FBF2FB7F89480916D0390916E034D
:10434000AA2797FDA095BA2FEBE0880F991FAA1F07
:10435000BB1FEA95D1F78093620290936302A0930A
:104360006402B09365022FBF2FB7F89480916D035C
:1043700090916E03AA2797FDA095BA2F7BE0880F36
:10438000991FAA1FBB1F7A95D1F780936C02909357
:104390006D02A0936E02B0936F022FBF2FB7F894F7
:1043A00080916D0390916E03AA2797FDA095BA2F77
:1043B0006BE0880F991FAA1FBB1F6A95D1F78093E6
:1043C000760290937702A0937802B09379022FBF80
:1043D00038C08DE10E94E52C2091CB033091CC03B5
:1043E000821B930BAA2797FDA095BA2F2091D30388
:1043F0003091D4034091D5035091D603BC01CD0137
:104400000E94323B672F782F892F992787FD9A9535
:104410002091CF033091D003260F371F30937403C0
:1044200020937303809175039091760328173907C1
:1044300041F03093760320937503309372032093F9
:104440007103809112018F5F80931201883010F008
:10445000109212018CE10E94E52C2091BF03309153
:10446000C003821B930BAA2797FDA095BA2F20911A
:10447000C7033091C8034091C9035091CA03BC01DE
:10448000CD010E94323B672F782F892F992787FD16
:104490009A952091C3033091C403260F371F3093A0
:1044A000700320936F0380916C03823091F183300D
:1044B00020F4813009F0B5C007C0833009F44EC044
:1044C000843009F0AEC06FC08091580290915902BB
:1044D000A0915A02B0915B02209154023091550292
:1044E0004091560250915702820F931FA41FB51F8F
:1044F0008093540290935502A0935602B0935702B2
:10450000CD01AA27BB279170E0915C02F0915D027A
:104510006EC08091620290916302A0916402B0919A
:10452000650220915E0230915F02409160025091DD
:104530006102820F931FA41FB51F80935E029093A8
:104540005F02A0936002B0936102CD01AA27BB274E
:104550009170E0916602F091670249C080916C020F
:1045600090916D02A0916E02B0916F02209168024D
:104570003091690240916A0250916B02820F931F41
:10458000A41FB51F8093680290936902A0936A02EA
:10459000B0936B02CD01AA27BB279170E091700206
:1045A000F091710224C08091760290917702A091DF
:1045B0007802B09179022091720230917302409199
:1045C000740250917502820F931FA41FB51F809330
:1045D000720290937302A0937402B0937502CD019E
:1045E000AA27BB279170E0917A02F0917B02E80F35
:1045F000F91FE4916E2F772767FD709560587F4F04
:10460000882777FD8095982F209171033091720350
:1046100040E050E00E94323B672F770F770B6093AA
:104620005A0320916F033091700380915A0390E0F8
:10463000FC01E29FC001E39F900DF29F900D1124B9
:10464000892F9927281B390B309357032093560342
:10465000209343034091420350E0822F809590E0E5
:10466000BC01649FC001659F900D749F900D112443
:10467000892F9927840F951F9093450380934403B6
:1046800020934B0340914A0350E0649FC001659F13
:10469000900D749F900D1124892F9927840F951FD9
:1046A00090934D0380934C0380916603823049F0D0
:1046B000833018F4813051F404C0833011F0843019
:1046C00029F483E28093420380934A038DE496E0C9
:1046D0000E94C73333E1C32E31E0D32EEE24FF24F2
:1046E0001E010894211C311CAA24A3942EE0822EC2
:1046F000912C9AE9692E92E0792E82E0B82E0DE095
:10470000402E512C00EFF101EE0DFF1D8081F601CE
:104710009081882309F411C2913009F0A2C28091DE
:10472000670390E0849DF001859DF00D949DF00D50
:104730001124EE0DFF1DEE0FFF1FEF5DFE4F808178
:10474000918190935D0380935C03D6011C928091CC
:104750000101909102010E9779F080910001823061
:1047600031F480910301909104010E972CF0809117
:104770005B03882309F400C1F0920201E092010179
:1047800080915B0320915C0330915D03882391F459
:10479000B901882777FD8095982F0E94433A209190
:1047A00005013091060140910701509108010E94D6
:1047B000CF3A07C0B901882777FD8095982F0E94CE
:1047C000433A60935E0370935F038093600390931A
:1047D00061031FB7F89460915E0370915F0380914D
:1047E0006003909161032091050130910601409191
:1047F0000701509108010E94CF3A20E030E040E0EC
:1048000055E40E94CF3A20E030E040E858E30E94AF
:10481000CF3A20E030E040E857E40E94CF3A0E94CF
:10482000153A609308027093090280930A029093EC
:104830000B021FBF1FB7F89460915E0370915F0376
:1048400080916003909161032091050130910601F0
:1048500040910701509108010E94CF3A20E030E0DA
:1048600040E055E40E94CF3A20E030E040E858E3D1
:104870000E94CF3A20E030E040E857E40E94CF3A6F
:104880000E94153A60931C0270931D0280931E02D1
:1048900090931F021FBF1FB7F89460915E03709141
:1048A0005F03809160039091610320910501309135
:1048B000060140910701509108010E94CF3A20E083
:1048C00030E040E055E40E94CF3A20E030E040E89C
:1048D00058E30E94CF3A20E030E040E857E40E94DD
:1048E000CF3A0E94153A609312027093130280939C
:1048F0001402909315021FBF1FB7F89460915E03D6
:1049000070915F0380916003909161032091050194
:104910003091060140910701509108010E94CF3A61
:1049200020E030E040E055E40E94CF3A20E030E063
:1049300040E858E30E94CF3A20E030E040E857E4F6
:104940000E94CF3A0E94153A609326027093270284
:1049500080932802909329021FBF0093890200933D
:10496000910200939902A092A1021092A9028CE7F1
:1049700092E00E94331A73C1F0920401E0920301A5
:1049800060915C0370915D03882777FD8095982F77
:104990000E94433A609362037093630380936403BD
:1049A000909365031FB7F89420910501309106019B
:1049B00040910701509108010E94CF3A20E030E079
:1049C00040E055E40E94CF3A20E030E040E858E370
:1049D0000E94CF3A20E030E040E857E40E94CF3A0E
:1049E0000E94153A60933002709331028093320234
:1049F000909333021FBF1FB7F894609162037091C8
:104A000063038091640390916503209105013091C7
:104A1000060140910701509108010E94CF3A20E021
:104A200030E040E055E40E94CF3A20E030E040E83A
:104A300058E30E94CF3A20E030E040E857E40E947B
:104A4000CF3A0E94153A60933A0270933B028093EA
:104A50003C0290933D021FBF1FB7F8946091620320
:104A60007091630380916403909165032091050127
:104A70003091060140910701509108010E94CF3A00
:104A800020E030E040E055E40E94CF3A20E030E002
:104A900040E858E30E94CF3A20E030E040E857E495
:104AA0000E94CF3A0E94153A6093440270934502E7
:104AB00080934602909347021FBF1FB7F8946091FE
:104AC0006203709163038091640390916503209168
:104AD00005013091060140910701509108010E94A3
:104AE000CF3A20E030E040E055E40E94CF3A20E0A9
:104AF00030E040E858E30E94CF3A20E030E040E860
:104B000057E40E94CF3A0E94153A60934E02709388
:104B10004F0280935002909351021FBF0093C20234
:104B20000093CA020093D202A092DA021092E2022B
:104B300085EB92E00E94331A49C0992309F091C095
:104B4000F601A0828091010190910201E816F90618
:104B500009F03FC010927F0210927E0280919B026A
:104B600090919C0290938102809380022091AC02EC
:104B70003091AD024091AE025091AF026091A1021E
:104B800070E080E090E0CB0177276627621B730B13
:104B9000840B950B20919D0230919E0240919F02C3
:104BA0005091A0020E94733BC901DA018093B002C8
:104BB0009093B102A093B202B093B3027092AB0291
:104BC0006092AA029092020180920101B0920001CB
:104BD00048C08091030190910401E816F90609F09C
:104BE00040C01092B8021092B7028091D402909106
:104BF000D5029093BA028093B9022091E5023091D8
:104C0000E6024091E7025091E8026091DA0270E01A
:104C100080E090E0CB0177276627621B730B840B43
:104C2000950B2091D6023091D7024091D802509135
:104C3000D9020E94733BC901DA018093E902909383
:104C4000EA02A093EB02B093EC0223ED32E0309342
:104C5000E4022093E3029092040180920301A09267
:104C600000010894E11CF11C0894C11CD11C3DE01A
:104C7000E316F10409F047CD8CE792E00E94131B84
:104C800085EB92E00E94131B80915B03882309F45B
:104C900058C08EEE92E00E94621A2FB7F894F3E0AB
:104CA0009695879577956795FA95D1F76093300239
:104CB0007093310280933202909333022FBF8EEEB5
:104CC00092E00E94621A2FB7F894E3E096958795D8
:104CD00077956795EA95D1F760933A0270933B0216
:104CE00080933C0290933D022FBF8EEE92E00E9493
:104CF000621A2FB7F89453E0969587957795679544
:104D00005A95D1F76093440270934502809346020E
:104D1000909347022FBF8EEE92E00E94621A2FB747
:104D2000F89443E096958795779567954A95D1F7DE
:104D300060934E0270934F02809350029093510201
:104D40002FBF709111018091B402882361F16FB778
:104D5000F8942091AC023091AD024091AE02509196
:104D6000AF028091B0029091B102A091B202B091D5
:104D7000B302820F931FA41FB51F8093AC029093C0
:104D8000AD02A093AE02B093AF026FBF8091AC02B0
:104D90009091AD02A091AE02B091AF02CD01BB27C0
:104DA00097FDB095AB2F879FC0011124892F990FD4
:104DB000990B80935803709111018091ED02882323
:104DC00061F16FB7F8942091E5023091E6024091CD
:104DD000E7025091E8028091E9029091EA02A091E5
:104DE000EB02B091EC02820F931FA41FB51F8093BA
:104DF000E5029093E602A093E702B093E8026FBF4A
:104E00008091E5029091E602A091E702B091E8025C
:104E1000CD01BB2797FDB095AB2F879FC001112413
:104E2000892F990F990B809359032D960FB6F894FB
:104E3000DEBF0FBECDBFCF91DF911F910F91FF90CD
:104E4000EF90DF90CF90BF90AF909F908F907F902A
:104E50006F905F904F903F902F9008958F929F9208
:104E6000AF92BF92CF92DF92EF92FF920F931F9378
:104E700080E890E00E943C2B0DE416E0C80160E061
:104E80000E94CC33C80160EE77E20E945830C8011E
:104E900061EE7AE20E945230C80162EA75E10E9436
:104EA0006430C80166E677E10E945E301092F1023C
:104EB0001092F002BAEFDB2ED0928902D0929102CA
:104EC000D0929902CC24C394C092A1021092A9025C
:104ED000ACE08A2E912C90928C0280928B02E09012
:104EE0007C02F0907D0200E010E0C801B7012CE0E8
:104EF00030E040E050E00E94323B60938D027093BE
:104F00008E0280938F0290939002FEEDAF2EFFE011
:104F1000BF2EB0929402A0929302C801B7012EED69
:104F20003FE040E050E00E94323B60939502709376
:104F300096028093970290939802D092C202D092E8
:104F4000CA02D092D202C092DA021092E202909289
:104F5000C5028092C402E090B502F090B60200E073
:104F600010E0C801B7012CE030E040E050E00E94C2
:104F7000323B6093C6027093C7028093C80290933D
:104F8000C902B092CD02A092CC02C801B7012EEDA9
:104F90003FE040E050E00E94323B6093CE027093CD
:104FA000CF028093D0029093D1021F910F91FF9076
:104FB000EF90DF90CF90BF90AF909F908F9008952B
:104FC0008F929F92AF92BF92CF92DF92EF92FF9219
:104FD0000F931F93CF93DF93962E842E442309F0D3
:104FE00093C0C62FD0E08091010190910201C817B3
:104FF000D90709F040C010927F0210927E02809182
:105000009B0290919C029093810280938002209158
:10501000AC023091AD024091AE025091AF0260916E
:10502000A10270E080E090E0CB0177276627621B49
:10503000730B840B950B20919D0230919E02409141
:105040009F025091A0020E94733BC901DA01809334
:10505000B0029093B102A093B202B093B3028AE976
:1050600092E09093AB028093AA028EE090E090933E
:105070000201809301018091030190910401C817FE
:10508000D90709F091C21092B8021092B70280912C
:10509000D4029091D5029093BA028093B9022091E4
:1050A000E5023091E6024091E7025091E8026091FA
:1050B000DA0270E080E090E0CB0177276627621B80
:1050C000730B840B950B2091D6023091D70240913F
:1050D000D8025091D9020E94733BC901DA01809332
:1050E000E9029093EA02A093EB02B093EC0283ED05
:1050F00092E09093E4028093E3028EE090E090933C
:1051000004018093030150C280915B03882309F45A
:105110005BC070E080E090E0CB01772766270E94BB
:105120004A2D6093F2027093F3028093F4029093FD
:10513000F502E090F902F090FA020091FB02109162
:10514000FC020E94413A5B016C01C801B7010E9458
:10515000413A9B01AC01C601B5010E9443397B0174
:105160008C01C090F002D090F102B601882777FD43
:105170008095982F0E94413A9B01AC01C801B7016C
:105180000E94A8390E94103A6093FD027093FE02BB
:105190008093FF0290930003D092EF02C092EE0240
:1051A00021E02093F6029092030110920401882DD1
:1051B00090E0880F991F8093C2028093CA02809367
:1051C000D2022093DA02E7C180910101909102019D
:1051D0000E9761F080910001823009F0F6C0809155
:1051E0000301909104010E970CF0EFC09092010121
:1051F00010920201692D70E080E090E0CB017727EA
:1052000066270E944A2D0E94413A20E030E040E8A3
:1052100057E30E94CF3A60935E0370935F038093DD
:105220006003909361031FB7F894209105013091BA
:10523000060140910701509108010E94CF3A20E0F9
:1052400030E040E055E40E94CF3A20E030E040E812
:1052500058E30E94CF3A20E030E040E857E40E9453
:10526000CF3A0E94153A6093080270930902809326
:105270000A0290930B021FBF1FB7F89460915E0360
:1052800070915F038091600390916103209105010B
:105290003091060140910701509108010E94CF3AD8
:1052A00020E030E040E055E40E94CF3A20E030E0DA
:1052B00040E858E30E94CF3A20E030E040E857E46D
:1052C0000E94CF3A0E94153A60931C0270931D020F
:1052D00080931E0290931F021FBF1FB7F894609126
:1052E0005E0370915F038091600390916103209150
:1052F00005013091060140910701509108010E947B
:10530000CF3A20E030E040E055E40E94CF3A20E080
:1053100030E040E858E30E94CF3A20E030E040E837
:1053200057E40E94CF3A0E94153A60932602709388
:10533000270280932802909329021FBF1FB7F89479
:1053400060915E0370915F038091600390916103AF
:10535000209105013091060140910701509108010B
:105360000E94CF3A20E030E040E055E40E94CF3A7E
:1053700020E030E040E858E30E94CF3A20E030E0FF
:1053800040E857E40E94CF3A0E94153A6093120217
:105390007093130280931402909315021FBF882DFF
:1053A00090E0880F991F80938902809391028093E7
:1053B000990211E01093A1021092A9028CE792E0E9
:1053C0000E94331A10930001EFC0909203011092D3
:1053D0000401692D70E080E090E0CB01772766271B
:1053E0000E944A2D0E94413A20E030E040E857E315
:1053F0000E94CF3A609362037093630380936403C7
:10540000909365031FB7F894209105013091060130
:1054100040910701509108010E94CF3A20E030E00E
:1054200040E055E40E94CF3A20E030E040E858E305
:105430000E94CF3A20E030E040E857E40E94CF3AA3
:105440000E94153A609330027093310280933202C9
:10545000909333021FBF1FB7F8946091620370915D
:10546000630380916403909165032091050130915D
:10547000060140910701509108010E94CF3A20E0B7
:1054800030E040E055E40E94CF3A20E030E040E8D0
:1054900058E30E94CF3A20E030E040E857E40E9411
:1054A000CF3A0E94153A609344027093450280936C
:1054B0004602909347021FBF1FB7F89460916203A2
:1054C00070916303809164039091650320910501BD
:1054D0003091060140910701509108010E94CF3A96
:1054E00020E030E040E055E40E94CF3A20E030E098
:1054F00040E858E30E94CF3A20E030E040E857E42B
:105500000E94CF3A0E94153A60934E0270934F0268
:1055100080935002909351021FBF1FB7F89460917F
:1055200062037091630380916403909165032091FD
:1055300005013091060140910701509108010E9438
:10554000CF3A20E030E040E055E40E94CF3A20E03E
:1055500030E040E858E30E94CF3A20E030E040E8F5
:1055600057E40E94CF3A0E94153A60933A02709332
:105570003B0280933C0290933D021FBF882D90E038
:10558000880F991F8093C2028093CA028093D2022F
:1055900081E08093DA021092E20285EB92E00E94B1
:1055A000331A82E080930001DF91CF911F910F9118
:1055B000FF90EF90DF90CF90BF90AF909F908F9033
:1055C000089540E00E94E027089508951F920F92E9
:1055D0000FB60F9211248F939F93AF93BF93EF93C6
:1055E000FF938091D705E82FF0E0EE0FFF1FE952FF
:1055F000FC4F0190F081E02D8F5F8093D7058823C9
:10560000C9F48091D90591E089278093D9058091CB
:10561000DB059091DC05A091DD05B091DE050196DA
:10562000A11DB11D8093DB059093DC05A093DD05E2
:10563000B093DE05CF01880F991F909388008E2FBD
:105640008F7780938A00FF91EF91BF91AF919F91E7
:105650008F910F900FBE0F901F9018951092D70545
:105660001092D8051092D9051092DA0508950E947B
:10567000191D0E94DB2C0895AF92BF92CF92DF924A
:10568000EF92FF920F931F937C0180E00E948E2C7B
:1056900084B58093EB0585B58093EC0587B5809341
:1056A000ED05AEE6CA2ED12CF60180818093EE0581
:1056B00000E010E060E472E48FE090E0A801970160
:1056C0000E94733BDA01C90167E37BE240E00E947C
:1056D000812F0E94EE2F84B58093DF0585B58093DE
:1056E000E00587B58093E105F60180818093E205AE
:1056F00000E810E0F80180818093EF05F1E8EF2EDB
:10570000F12CF70180818093F005E8E8CE2ED12CB2
:10571000F601808191818093F1057FE6A72EB12C5F
:10572000F50180818093F2058DE061E00E94F833FD
:105730008CE061E00E94F8331092420698E1909369
:10574000430682E080934406F7019083F80180834A
:1057500081E0809347061093460600934506109318
:1057600087000093860089E1F70180838DE061E086
:105770000E94F833F801808190914406892B80685B
:105780008083F60111821082809147069091430632
:10579000892BF70180838CE061E00E94F833F801E7
:1057A000808190914406892B8062808310928B00C7
:1057B00010928A008091470690914306892BF70149
:1057C0008083F80180818093E305F70180818093D5
:1057D000E405F601808191818093E505F5018081E2
:1057E0008093E60560EBA62EB12CF50180818093B5
:1057F000F30551EBC52ED12CF60180818093F40581
:1058000043EBE42EF12CF70180818093F50500E74E
:1058100010E0F80180818093F60560ED73E080E090
:1058200090E00E94CE2E85EE9AE20E94BA2E0E944F
:10583000CA2EF50180818093E705F601808180936F
:10584000E805F70180818093E905F8018081809364
:10585000EA051F910F91FF90EF90DF90CF90BF90DE
:10586000AF9008959091D8058091D705981771F45D
:105870009091DA058091D9059817D9F407C08091E5
:10588000DA0591E089278093DA0508950E94C71709
:105890002091D805E22FF0E0EE0FFF1FE952FC4FF8
:1058A0008050904E918380832F5F2093D8052223D0
:1058B00031F30895882371F480917A008460809395
:1058C0007A0080917A008D7F80937A0080917A00AF
:1058D0008E7F0FC0813081F480917A008B7F80931E
:1058E0007A0080917A00826080937A0080917A00B9
:1058F000816080937A000895823079F480917A00F3
:105900008B7F80937A0080917A00826080937A0006
:1059100080917A008E7F80937A00089590917A002A
:10592000986090937A000E945A2C40E050E061E029
:1059300070E020917E00CB01042E02C0880F991FD9
:105940000A94E2F7282B20937E004F5F5F4F483088
:10595000510579F70895DF93CF930F92CDB7DEB756
:105960002091FF05309100068FEF2F3F380711F48B
:105970008FEF0CC0F901E950FA4F808189832150E3
:105980003040309300062093FF0589818093F20117
:105990008091F2018F3F59F08091F201877080640D
:1059A00080937C0080917A00806480937A000F90CD
:1059B000CF91DF9108958091F2018F3F29F40E94E9
:1059C000AB2C81E08093F10108958E3008F08E5069
:1059D000E091FF05F0910006E730F10544F43196BF
:1059E000F0930006E093FF05E950FA4F8083E82F1B
:1059F000F0E0EE0FFF1FEF5FF94F20813181C90109
:105A000008951F920F920FB60F9211242F933F9378
:105A10004F935F936F937F938F939F93AF93BF93B6
:105A2000EF93FF938091F101882341F080917A00F8
:105A3000806480937A001092F10114C0E091F20129
:105A4000FF27E7FDF0958091780090917900EE0FA7
:105A5000FF1FEF5FF94F918380830E94AB2C81E0A1
:105A60008093F101FF91EF91BF91AF919F918F9141
:105A70007F916F915F914F913F912F910F900FBE4A
:105A80000F901F9018958FEF9FEF909300068093D3
:105A9000FF050895EF92FF920F931F939C014427F7
:105AA000552730E0220F331F220F331FF901E6582C
:105AB000F74DE590F59005911491F901E258F74DF5
:105AC00085919591A591B4918E199F09A00BB10B69
:105AD0009B0140E050E0803060E0960761E0A6075F
:105AE00060E0B60758F0692F7A2F8B2F99270E9414
:105AF000323B272F382F492F552707C0BC01CD0136
:105B00000E94323B9C01442755272E0D3F1D401F0C
:105B1000511FB901CA011F910F91FF90EF90089595
:105B200084E080933B068FEF80933A06109218062C
:105B3000509114065093190640911206AAE1B6E05E
:105B4000242F30911306C901FC0102C081918D936D
:105B50008E2F841B8517D0F38091110690E0880F5B
:105B6000991F8093170685EE8093BC00089585EDFC
:105B70008093BC008091BC0084FDFCCF80913B06EB
:105B800080933C0610923B0680913C06833019F4CA
:105B90000E94902D089580913C068130B1F482E0FE
:105BA00080933B068FEF80933A06109218068091FF
:105BB000160681508093190680911506880F816022
:105BC0008093170685EE8093BC00089585EC809342
:105BD000BC0080913B0680933C0610923B0680916E
:105BE0003C06833019F40E94902D089580913C0664
:105BF0008130B1F482E080933B068FEF80933A06C8
:105C00001092180680911606815080931906809193
:105C10001506880F81608093170685EE8093BC007F
:105C200008951F920F920FB60F9211242F933F9356
:105C30004F935F936F937F938F939F93AF93BF9394
:105C4000EF93FF938091B90090E0887F9070883245
:105C50009105B1F189329105A4F48031910559F192
:105C6000813191053CF4009709F46FC0089709F061
:105C700070C021C08831910519F1809709F069C081
:105C800033C08034910509F447C0813491053CF458
:105C90008033910559F1C89709F05BC02BC080355E
:105CA000910571F18835910509F442C08834910558
:105CB00009F04FC04CC0809117068093BB0032C0E2
:105CC0009091180680911906981708F040C090919D
:105CD0001806E92FF0E0E65EF94F80818093BB0063
:105CE0009F5F909318061EC080E201C080E38093FE
:105CF0003A062DC088E380933A060E94E62D29C01B
:105D0000809118069091BB00E82FF0E0E65EF94F15
:105D100090838F5F809318069091180680911906E2
:105D2000981710F485EC01C085E88093BC0011C081
:105D3000809118069091BB00E82FF0E0E65EF94FE5
:105D400090838F5F8093180602C010923A060E94DB
:105D5000B72DFF91EF91BF91AF919F918F917F915F
:105D60006F915F914F913F912F910F900FBE0F90C8
:105D70001F90189590933E0680933D06892B21F045
:105D800080917000826003C0809170008D7F80934D
:105D90007000089581E080933F060895EF92FF928E
:105DA0000F931F937B018C0161157105810591058E
:105DB00029F471E0E72EF12C012D112D8BE899E0EB
:105DC000B801A7012AE030E00E94AC3881E0E81673
:105DD00081E0F80680E0080780E0180720F44E2DE7
:105DE000415021E077C081E0E81688E0F80680E0C5
:105DF000080780E0180758F463E016950795F794B4
:105E0000E7946A95D1F74E2D415022E063C081E0BE
:105E1000E81680E2F80680E0080780E0180758F4EA
:105E200055E016950795F794E7945A95D1F74E2DBE
:105E3000415023E04FC081E0E81680E4F80680E09E
:105E4000080780E0180758F446E016950795F79480
:105E5000E7944A95D1F74E2D415024E03BC081E0B4
:105E6000E81680E8F80680E0080780E0180758F494
:105E700037E016950795F794E7943A95D1F74E2DAC
:105E8000415025E027C081E0E81680E0F80681E077
:105E9000080780E0180740F4BB27A12F902F8F2D13
:105EA000482F415026E016C081E0E81680E0F80651
:105EB00084E0080780E0180718F027E04FEF0AC0D9
:105EC0009AE016950795F794E7949A95D1F74E2D99
:105ED000415027E01092B1001092B0001092B20031
:105EE0008091B6008F7D8093B6004093B30082E02E
:105EF0008093B0002093B1001F910F91FF90EF901D
:105F000008959F92AF92BF92CF92DF92EF920F933C
:105F100070934A0660934906409348069C0140E00E
:105F200050E084E0220F331F441F551F8A95D1F79C
:105F300060E070E0062FFB01E658F54D9490992043
:105F400079F0DA01C901062E04C0B695A795979598
:105F500087950A94D2F781509140A040B04050F00C
:105F60000F5F6F5F7F4F6B30710521F70B3011F4BE
:105F700080E02CC059016A01002E04C0D694C79459
:105F8000B794A7940A94D2F761E070E002C0660F5C
:105F9000771F0A95E2F7882777FD8095982FA6014D
:105FA00095010E94323B20E130E040E050E00E9449
:105FB000733B30934C0620934B0610926E0082E0A8
:105FC00084BD95BCEA2CEA94E7BC81E00F91EF9088
:105FD000DF90CF90BF90AF909F900895EEE6F0E0F5
:105FE000808182608083089578941F920F920FB60B
:105FF0000F9211242F933F934F935F936F937F934F
:106000008F939F93AF93BF93EF93FF9310926E0084
:10601000E0914906F0914A060995F8948091480666
:10602000882311F016BCA99A80916E00826080933B
:106030006E00FF91EF91BF91AF919F918F917F91F2
:106040006F915F914F913F912F910F900FBE0F90E5
:106050001F901895FC01E65FFD4F1192119211926D
