:100000000C9478150C94A0150C94A0150C94A015C4
:100010000C94A0150C94A0150C94A0150C94A0158C
:100020000C94A0150C94BF250C94A0150C94A0154D
:100030000C94A0150C94A0150C94A0150C94A0156C
:100040000C94CD2A0C94A0150C9487330C94A01515
:100050000C94A62F0C9442300C94A0150C94A0156F
:100060000C94DA270C94A0150C94EA280C94A01593
:100070000C94E22F0C947D300C94A015000000012C
:100080000101020203030304040505050606070730
:100090000708080909090A0A0A0B0B0C0C0C0D0DBC
:1000A0000E0E0E0F0F101010111112121213131347
:1000B0001414151515161617171718181819191AD4
:1000C0001A1A1B1B1C1C1C1D1D1D1E1E1F1F1F2062
:1000D00020202121222222232324242425252526F1
:1000E0002627272728282829292A2A2A2B2B2B2C80
:1000F0002C2C2D2D2E2E2E2F2F2F30303031313213
:1001000032323333333434343535363636373737A5
:100110003838383939393A3A3A3B3B3B3C3C3D3D3B
:100120003D3E3E3E3F3F3F404040414141424242D2
:10013000434343444444454545464646474747486C
:1001400048484949494A4A4A4A4B4B4B4C4C4C4D0A
:100150004D4D4E4E4E4F4F4F4F50505051515152AA
:10016000525253535353545454555555555656564D
:1001700057575757585858595959595A5A5A5B5BF3
:100180005B5B5C5C5C5C5D5D5D5E5E5E5E5F5F5F9D
:100190005F6060606061616161626262626363634B
:1001A00063646464646565656566666666676767FB
:1001B00067676868686869696969696A6A6A6A6BB1
:1001C0006B6B6B6B6C6C6C6C6C6D6D6D6D6D6E6E6A
:1001D0006E6E6E6F6F6F6F6F707070707071717127
:1001E00071717172727272727373737373737474E8
:1001F00074747474757575757575757676767676AE
:100200007677777777777777777878787878787878
:1002100079797979797979797A7A7A7A7A7A7A7A46
:100220007A7B7B7B7B7B7B7B7B7B7B7C7C7C7C7C1A
:100230007C7C7C7C7C7C7D7D7D7D7D7D7D7D7D7DF4
:100240007D7D7D7E7E7E7E7E7E7E7E7E7E7E7E7ED1
:100250007E7E7E7E7F7F7F7F7F7F7F7F7F7F7F7FB2
:100260007F7F7F7F7F7F7F7F7F7F7F7F7F7F7F7F9E
:100270007F7F7F7F7F7F7F7F7F7F7F7F7F7F7F7F8E
:100280007F7F7F7F7F7F7F7F7F7F7F7F7F7F7F7F7E
:100290007F7F7F7F7F7F7F7F7F7F7F7F7F7F7F7F6E
:1002A0007F7F7F7F7F7E7E7E7E7E7E7E7E7E7E7E69
:1002B0007E7E7E7E7E7E7D7D7D7D7D7D7D7D7D7D68
:1002C0007D7D7D7C7C7C7C7C7C7C7C7C7C7C7B7B6D
:1002D0007B7B7B7B7B7B7B7B7A7A7A7A7A7A7A7A76
:1002E0007A79797979797979797878787878787884
:1002F0007777777777777776767676767676757599
:1003000075757575757474747474747373737373AD
:1003100073727272727271717171717170707070CA
:10032000706F6F6F6F6F6E6E6E6E6E6D6D6D6D6DEB
:100330006C6C6C6C6C6B6B6B6B6B6A6A6A6A6A690F
:100340006969696868686867676767676666666637
:100350006565656564646464636363636262626265
:1003600061616161606060605F5F5F5F5E5E5E5E95
:100370005D5D5D5C5C5C5C5B5B5B5B5A5A5A5959CA
:100380005959585858575757575656565555555501
:10039000545454535353535252525151515050503C
:1003A0004F4F4F4F4E4E4E4D4D4D4C4C4C4B4B4B7B
:1003B0004A4A4A4A494949484848474747464646BB
:1003C0004545454444444343434242424141414000
:1003D00040403F3F3F3E3E3E3D3D3D3C3C3B3B3B46
:1003E0003A3A3A3939393838383737373636363590
:1003F0003534343433333332323231313030302FDC
:100400002F2F2E2E2E2D2D2C2C2C2B2B2B2A2A2A27
:100410002929282828272727262625252524242476
:10042000232322222222212120201F1F1F1E1E1DC6
:100430001D1D1C1C1C1B1B1A1A1A19191818181719
:10044000171716161515151414131313121212116B
:10045000111010100F0F0E0E0E0D0D0C0C0C0B0BBF
:100460000A0A0A0909090808070707060605050513
:10047000040403030302020101010000FFFFFFFE69
:10048000FEFEFDFDFCFCFCFBFBFAFAFAF9F9F8F8BC
:10049000F8F7F7F6F6F6F5F5F5F4F4F3F3F3F2F210
:1004A000F1F1F1F0F0EFEFEFEEEEEDEDEDECECEC65
:1004B000EBEBEAEAEAE9E9E8E8E8E7E7E7E6E6E5B8
:1004C000E5E5E4E4E3E3E3E2E2E2E1E1E0E0E0DF0A
:1004D000DFDFDEDEDDDDDDDCDCDBDBDBDADADAD95B
:1004E000D9D8D8D8D7D7D7D6D6D6D5D5D4D4D4D3AB
:1004F000D3D3D2D2D1D1D1D0D0D0CFCFCFCECECDF9
:10050000CDCDCCCCCCCBCBCBCACAC9C9C9C8C8C845
:10051000C7C7C7C6C6C6C5C5C5C4C4C4C3C3C2C28F
:10052000C2C1C1C1C0C0C0BFBFBFBEBEBEBDBDBDD8
:10053000BCBCBCBBBBBBBABABAB9B9B9B8B8B8B71E
:10054000B7B7B6B6B6B5B5B5B5B4B4B4B3B3B3B260
:10055000B2B2B1B1B1B0B0B0B0AFAFAFAEAEAEADA0
:10056000ADADACACACACABABABAAAAAAAAA9A9A9DD
:10057000A8A8A8A8A7A7A7A6A6A6A6A5A5A5A4A417
:10058000A4A4A3A3A3A3A2A2A2A1A1A1A1A0A0A04D
:10059000A09F9F9F9F9E9E9E9E9D9D9D9D9C9C9C7F
:1005A0009C9B9B9B9B9A9A9A9A99999999989898AF
:1005B00098989797979796969696969595959594D9
:1005C0009494949493939393939292929292919100
:1005D00091919190909090908F8F8F8F8F8E8E8E23
:1005E0008E8E8E8D8D8D8D8D8C8C8C8C8C8C8B8B42
:1005F0008B8B8B8B8A8A8A8A8A8A8A89898989895C
:10060000898988888888888888878787878787876F
:100610008686868686868686858585858585858582
:10062000858484848484848484848483838383838E
:100630008383838383838282828282828282828294
:100640008282828181818181818181818181818197
:100650008181818180808080808080808080808096
:10066000808080808080808080808080808080808A
:10067000808080808080808080808080808080807A
:10068000808080808080808080808080808080806A
:10069000808080808080808080808080808080805A
:1006A000808080808081818181818181818181813F
:1006B0008181818181818282828282828282828220
:1006C00082828283838383838383838383838484FB
:1006D00084848484848484848585858585858585D2
:1006E00085868686868686868687878787878787A4
:1006F00088888888888888888989898989898A8A70
:100700008A8A8A8A8A8B8B8B8B8B8B8C8C8C8C8C39
:100710008C8D8D8D8D8D8E8E8E8E8E8E8F8F8F8FFC
:100720008F909090909091919191919292929292BB
:100730009393939393949494949495959595969676
:10074000969696979797979898989898999999992F
:100750009A9A9A9A9B9B9B9B9C9C9C9C9D9D9D9DE1
:100760009E9E9E9E9F9F9F9FA0A0A0A0A1A1A1A191
:10077000A2A2A2A3A3A3A3A4A4A4A4A5A5A5A6A63C
:10078000A6A6A7A7A7A8A8A8A8A9A9A9AAAAAAAAE5
:10079000ABABABACACACACADADADAEAEAEAFAFAF8A
:1007A000B0B0B0B0B1B1B1B2B2B2B3B3B3B4B4B42B
:1007B000B5B5B5B5B6B6B6B7B7B7B8B8B8B9B9B9CB
:1007C000BABABABBBBBBBCBCBCBDBDBDBEBEBEBF66
:1007D000BFBFC0C0C0C1C1C1C2C2C2C3C3C4C4C400
:1007E000C5C5C5C6C6C6C7C7C7C8C8C8C9C9C9CA96
:1007F000CACBCBCBCCCCCCCDCDCDCECECFCFCFD02A
:10080000D0D0D1D1D1D2D2D3D3D3D4D4D4D5D5D5BD
:10081000D6D6D7D7D7D8D8D8D9D9DADADADBDBDB4E
:10082000DCDCDDDDDDDEDEDEDFDFE0E0E0E1E1E2DD
:10083000E2E2E3E3E3E4E4E5E5E5E6E6E7E7E7E86B
:10084000E8E8E9E9EAEAEAEBEBECECECEDEDEDEEF9
:10085000EEEFEFEFF0F0F1F1F1F2F2F3F3F3F4F485
:10086000F5F5F5F6F6F6F7F7F8F8F8F9F9FAFAFA11
:10087000FBFBFCFCFCFDFDFEFEFEFFFF000000009C
:100880000101010102020202030303030404040440
:1008900004050505050606060707070708080808F2
:1008A000090909090A0A0A0A0B0B0B0B0B0C0C0CA1
:1008B0000D0D0D0D0E0E0E0E0F0F0F0F1010101050
:1008C0001111111111121212121313131314141403
:1008D00014151515151616161617171718181818B3
:1008E000191919191A1A1A1A1B1B1B1B1C1C1C1C60
:1008F0001D1D1D1D1E1E1E1E1F1F1F1F2020202010
:1009000020212120222222222323232324242424C1
:10091000252525252626262627272727282828286F
:1009200028292929292A2A2A2A2B2B2B2C2C2C2C22
:100930002D2D2D2D2E2E2E2E2F2F2F2F30303030CF
:100940003131313131323232333333333434343480
:100950003435353536363636363737373838383831
:10096000383939393A3A3A3A3B3B3B3B3C3C3C3CE0
:100970003C3D3D3D3E3E3E3E3E3F3F3F3F40404092
:100980004141414141424242424343434444444441
:1009900045454545464646464747474748484848EF
:1009A00049494949494A4A4A4A4B4B4B4C4C4C4CA1
:1009B0004D4D4D4D4D4E4E4E4E4F4F4F5050505051
:1009C0005151515151525252535353535454545400
:1009D00055555555555656565657575758585858B1
:1009E000585959595A5A5A5A5B5B5B5B5C5C5C5C60
:1009F0005C5D5D5D5E5E5E5E5F5F5F5F5F60606011
:100A000061616161626262626363636363646464BF
:100A10006565656565666666666767676768686871
:100A200069696969696A6A6A6A6B6B6B6C6C6C6C20
:100A30006D6D6D6D6E6E6E6E6F6F6F6F70707070CE
:100A40007071717171727272727373737374747482
:100A50007475757575767676777777777878787830
:100A6000787979797A7A7A7A7B7B7B7B7C7C7C7CDF
:100A70007D7D7D7D7D7E7E7E7F7F7F7F7F7F7F7E94
:100A80007E7E7E7E7D7D7D7D7C7C7C7C7B7B7B7B9E
:100A90007A7A7A7A797979797878787877777777CE
:100AA00076767676757575757474747473737373FE
:100AB00072727271717171707070706F6F6F6F6E32
:100AC0006E6E6E6D6D6D6D6D6C6C6C6C6B6B6B6B5F
:100AD0006A6A6A6969696968686868686767676691
:100AE00066666666656565656464646363636362C0
:100AF0006262626161616160606060605F5F5F5EF1
:100B00005E5E5E5D5D5D5D5C5C5C5C5B5B5B5B5B20
:100B10005A5A5A5A5959595958585858575757574D
:100B2000565656565555555454545454535353537E
:100B300052525251515151505050504F4F4F4F4EB1
:100B40004E4E4E4E4D4D4D4D4C4C4C4C4B4B4B4ADE
:100B50004A4A4A4A4949494948484848474747470D
:100B6000464646454545454544444444434343433E
:100B700042424241414141414040403F3F3F3F3F6F
:100B80003E3E3E3E3D3D3D3C3C3C3C3C3B3B3B3B9E
:100B90003A3A3A3A393939383838383837373737CE
:100BA00036363636353535353434343333333332FF
:100BB00032323232313131313030302F2F2F2F2E2F
:100BC0002E2E2E2E2D2D2D2D2C2C2C2B2B2B2B2A5F
:100BD0002A2A2A292929292928282828272727268F
:100BE00026262626252525242424242423232322BF
:100BF0002222222121202121202020201F1F1F1FEF
:100C00001E1E1E1E1D1D1D1D1C1C1C1B1B1B1B1B1D
:100C10001A1A1A191919191918181818171717174D
:100C2000161616161515151514141413131313137D
:100C30001212121211111110101010100F0F0F0FAD
:100C40000E0E0E0E0D0D0D0D0C0C0C0C0B0B0B0BDC
:100C50000A0A0A0A0909090908080808070707060D
:100C6000060606050505050504040404030303033D
:100C7000020202010101010100000000FFFFFFFE6E
:100C8000FEFEFEFDFDFDFDFCFCFCFCFBFBFBFBFAA0
:100C9000FAFAFAFAF9F9F9F8F8F8F8F8F7F7F7F7CD
:100CA000F6F6F6F5F5F5F5F4F4F4F4F4F3F3F3F3FE
:100CB000F2F2F2F1F1F1F1F1F0F0F0F0EFEFEFEE2E
:100CC000EEEEEEEDEDEDEDEDECECECEBEBEBEBEB5E
:100CD000EAEAEAEAE9E9E9E9E8E8E8E7E7E7E7E78D
:100CE000E6E6E6E6E5E5E5E4E4E4E4E3E3E3E3E3BE
:100CF000E2E2E2E1E1E1E1E0E0E0E0E0DFDFDFDFEE
:100D0000DEDEDEDDDDDDDDDCDCDCDCDCDBDBDBDA1E
:100D1000DADADAD9D9D9D9D8D8D8D8D8D7D7D7D74D
:100D2000D6D6D6D5D5D5D5D4D4D4D4D3D3D3D3D27F
:100D3000D2D2D2D1D1D1D1D0D0D0D0D0CFCFCFCFAD
:100D4000CECECECECDCDCDCDCCCCCCCBCBCBCBCADD
:100D5000CACACAC9C9C9C9C8C8C8C8C7C7C7C7C60F
:100D6000C6C6C6C5C5C5C5C4C4C4C4C4C3C3C3C33D
:100D7000C2C2C2C1C1C1C1C1C0C0C0C0BFBFBFBF6C
:100D8000BEBEBEBDBDBDBDBDBCBCBCBCBBBBBBBB9C
:100D9000BABABABAB9B9B9B9B8B8B8B8B7B7B7B7CB
:100DA000B6B6B6B6B5B5B5B5B4B4B4B4B3B3B3B3FB
:100DB000B2B2B2B2B1B1B1B1B0B0B0B0AFAFAFAE2C
:100DC000AEAEAEAEADADADADACACACABABABABAA5D
:100DD000AAAAAAA9A9A9A9A8A8A8A8A7A7A7A7A78E
:100DE000A6A6A6A5A5A5A5A5A4A4A4A3A3A3A3A2BE
:100DF000A2A2A2A1A1A1A1A1A0A0A0A09F9F9F9FEC
:100E00009E9E9E9E9D9D9D9D9C9C9C9C9B9B9B9B1A
:100E10009A9A9A9A9999999898989897979797974C
:100E2000969696969595959494949493939393937C
:100E300092929292919191919090908F8F8F8F8FAB
:100E40008E8E8E8E8D8D8D8C8C8C8C8B8B8B8B8ADD
:100E50008A8A8A898989898988888888878787860C
:100E6000868686868585858584848484838383823B
:100E70008282828181818181808080808080808067
:100E8000818181818182828283838383838484843C
:100E900085858585868686868787878787888888EB
:100EA000888989898A8A8A8A8A8B8B8B8C8C8C8C9C
:100EB0008D8D8D8D8D8E8E8E8E8F8F8F909090904C
:100EC00091919191929292929393939394949494FA
:100ED00095959595969696969797979797989898AB
:100EE000999999999A9A9A9A9A9B9B9B9C9C9C9C5B
:100EF0009D9D9D9D9E9E9E9E9F9F9F9F9FA0A0A00B
:100F0000A1A1A1A1A1A2A2A2A2A3A3A3A4A4A4A4BB
:100F1000A4A5A5A5A5A6A6A6A7A7A7A7A7A8A8A86C
:100F2000A9A9A9A9AAAAAAAAAAABABABACACACAC1A
:100F3000ACADADADAEAEAEAEAEAFAFAFAFB0B0B0CC
:100F4000B1B1B1B1B2B2B2B2B2B3B3B3B3B4B4B47B
:100F5000B5B5B5B5B6B6B6B6B6B7B7B7B7B8B8B82B
:100F6000B9B9B9B9BABABABABBBBBBBBBCBCBCBCD9
:100F7000BDBDBDBDBEBEBEBEBEBFBFBFC0C0C0C08A
:100F8000C0C1C1C1C2C2C2C2C2C3C3C3C3C4C4C43C
:100F9000C5C5C5C5C6C6C6C6C6C7C7C7C7C8C8C8EB
:100FA000C8C9C9C9C9CACACACBCBCBCBCBCCCCCC9C
:100FB000CCCDCDCDCDCECECECFCFCFCFCFD0D0D04C
:100FC000D1D1D1D1D2D2D2D2D2D3D3D3D3D4D4D4FB
:100FD000D4D5D5D5D5D6D6D6D7D7D7D7D8D8D8D8AB
:100FE000D8D9D9D9D9DADADADBDBDBDBDBDCDCDC5C
:100FF000DCDDDDDDDEDEDEDEDEDFDFDFE0E0E0E00B
:10100000E1E1E1E1E1E2E2E2E3E3E3E3E4E4E4E4B9
:10101000E4E5E5E5E5E6E6E6E6E7E7E7E8E8E8E86B
:10102000E9E9E9E9E9EAEAEAEBEBEBEBECECECEC19
:10103000EDEDEDEDEDEEEEEEEFEFEFEFF0F0F0F0C9
:10104000F1F1F1F1F2F2F2F2F3F3F3F3F3F4F4F479
:10105000F5F5F5F5F5F6F6F6F7F7F7F7F8F8F8F829
:10106000F9F9F9F9FAFAFAFAFBFBFBFBFBFCFCFCD9
:10107000FDFDFDFDFEFEFEFEFFFFFFFF8080808088
:101080008080808081818181818181818282828250
:101090008282828282838383838383838484848421
:1010A00084848484848585858585858586868686F1
:1010B00086868686878787878787878788888888C0
:1010C0008888888889898989898989898A8A8A8A90
:1010D0008A8A8A8A8A8B8B8B8B8B8B8B8B8C8C8C62
:1010E0008C8C8C8C8D8D8D8D8D8D8D8D8D8E8E8E31
:1010F0008E8E8E8E8F8F8F8F8F8F8F8F9090909000
:1011000090909090919191919191919192929292CF
:10111000929292929393939393939393949494949F
:101120009494949494959595959595959696969670
:101130009696969696979797979797979798989841
:10114000989898989899999999999999999A9A9A11
:101150009A9A9A9A9B9B9B9B9B9B9B9B9B9C9C9CE0
:101160009C9C9C9C9C9D9D9D9D9D9D9D9E9E9E9EB0
:101170009E9E9E9E9F9F9F9F9F9F9F9F9FA0A0A080
:10118000A0A0A0A0A1A1A1A1A1A1A1A1A2A2A2A24F
:10119000A2A2A2A2A3A3A3A3A3A3A3A3A4A4A4A41F
:1011A000A4A4A4A4A4A5A5A5A5A5A5A5A6A6A6A6F0
:1011B000A6A6A6A6A7A7A7A7A7A7A7A7A8A8A8A8BF
:1011C000A8A8A8A8A8A9A9A9A9A9A9A9A9AAAAAA91
:1011D000AAAAAAAAABABABABABABABABACACACAC5F
:1011E000ACACACACADADADADADADADADAEAEAEAE2F
:1011F000AEAEAEAEAFAFAFAFAFAFAFAFAFB0B0B000
:10120000B0B0B0B0B0B1B1B1B1B1B1B1B2B2B2B2CF
:10121000B2B2B2B2B3B3B3B3B3B3B3B3B4B4B4B49E
:10122000B4B4B4B4B5B5B5B5B5B5B5B5B6B6B6B66E
:10123000B6B6B6B6B7B7B7B7B7B7B7B7B8B8B8B83E
:10124000B8B8B8B8B8B9B9B9B9B9B9B9BABABABA0F
:10125000BABABABABBBBBBBBBBBBBBBBBCBCBCBCDE
:10126000BCBCBCBCBDBDBDBDBDBDBDBDBDBEBEBEAF
:10127000BEBEBEBEBFBFBFBFBFBFBFBFC0C0C0C07E
:10128000C0C0C0C0C1C1C1C1C1C1C1C1C1C2C2C24F
:10129000C2C2C2C2C2C3C3C3C3C3C3C3C4C4C4C41F
:1012A000C4C4C4C4C4C5C5C5C5C5C5C5C5C6C6C6F0
:1012B000C6C6C6C6C7C7C7C7C7C7C7C7C8C8C8C8BE
:1012C000C8C8C8C8C9C9C9C9C9C9C9C9CACACACA8E
:1012D000CACACACACBCBCBCBCBCBCBCBCBCCCCCC5F
:1012E000CCCCCCCCCCCDCDCDCDCDCDCDCDCECECE30
:1012F000CECECECECFCFCFCFCFCFCFCFD0D0D0D0FE
:10130000D0D0D0D0D1D1D1D1D1D1D1D1D2D2D2D2CD
:10131000D2D2D2D2D2D3D3D3D3D3D3D3D4D4D4D49E
:10132000D4D4D4D4D4D5D5D5D5D5D5D5D6D6D6D66E
:10133000D6D6D6D6D6D7D7D7D7D7D7D7D8D8D8D83E
:10134000D8D8D8D8D9D9D9D9D9D9D9D9D9DADADA0E
:10135000DADADADADADBDBDBDBDBDBDBDCDCDCDCDE
:10136000DCDCDCDCDCDDDDDDDDDDDDDDDDDEDEDEAF
:10137000DEDEDEDEDFDFDFDFDFDFDFDFDFE0E0E07E
:10138000E0E0E0E0E1E1E1E1E1E1E1E1E2E2E2E24D
:10139000E2E2E2E2E2E3E3E3E3E3E3E3E4E4E4E41E
:1013A000E4E4E4E4E5E5E5E5E5E5E5E5E6E6E6E6ED
:1013B000E6E6E6E6E7E7E7E7E7E7E7E7E7E8E8E8BE
:1013C000E8E8E8E8E9E9E9E9E9E9E9E9EAEAEAEA8D
:1013D000EAEAEAEAEBEBEBEBEBEBEBEBECECECEC5D
:1013E000ECECECECECEDEDEDEDEDEDEDEDEEEEEE2F
:1013F000EEEEEEEEEEEFEFEFEFEFEFEFF0F0F0F0FE
:10140000F0F0F0F0F0F1F1F1F1F1F1F1F1F2F2F2CE
:10141000F2F2F2F2F3F3F3F3F3F3F3F3F4F4F4F49C
:10142000F4F4F4F4F4F5F5F5F5F5F5F5F6F6F6F66D
:10143000F6F6F6F6F7F7F7F7F7F7F7F7F8F8F8F83C
:10144000F8F8F8F8F8F9F9F9F9F9F9F9F9FAFAFA0E
:10145000FAFAFAFAFBFBFBFBFBFBFBFBFCFCFCFCDC
:10146000FCFCFCFCFDFDFDFDFDFDFDFDFDFEFEFEAD
:10147000FEFEFEFEFFFFFFFFFFFFFFFF000000007C
:10148000000000000001010101010101010202024E
:10149000020202020303030303030303040404041C
:1014A00004040404050505050505050506060606EC
:1014B00006060606070707070707070707080808BD
:1014C0000808080809090909090909090A0A0A0A8C
:1014D0000A0A0A0A0B0B0B0B0B0B0B0B0B0C0C0C5D
:1014E0000C0C0C0C0D0D0D0D0D0D0D0D0D0E0E0E2D
:1014F0000E0E0E0E0F0F0F0F0F0F0F0F0F101010FD
:1015000010101010101111111111111112121212CC
:10151000121212121313131313131313141414149B
:10152000141414141515151515151515151616166C
:10153000161616161717171717171717181818183B
:10154000181818181919191919191919191A1A1A0C
:101550001A1A1A1A1A1B1B1B1B1B1B1B1C1C1C1CDC
:101560001C1C1C1C1D1D1D1D1D1D1D1D1E1E1E1EAB
:101570001E1E1E1E1F1F1F1F1F1F1F1F1F2020207C
:10158000202020202121202121222121202222224D
:10159000222222222323232323232323242424241B
:1015A00024242424242525252525252526262626EC
:1015B00026262626272727272727272728282828BB
:1015C0002828282829292929292929292A2A2A2A8B
:1015D0002A2A2A2A2A2B2B2B2B2B2B2B2B2C2C2C5D
:1015E0002C2C2C2C2D2D2D2D2D2D2D2D2E2E2E2E2B
:1015F0002E2E2E2E2E2F2F2F2F2F2F2F2F303030FD
:1016000030303030313131313131313132323232CA
:10161000323232323333333333333333333434349B
:10162000343434343535353535353535363636366A
:10163000363636363637373737373737373838383C
:10164000383838383939393939393939393A3A3A0B
:101650003A3A3A3A3A3B3B3B3B3B3B3B3C3C3C3CDB
:101660003C3C3C3C3D3D3D3D3D3D3D3D3E3E3E3EAA
:101670003E3E3E3E3F3F3F3F3F3F3F3F404040407A
:10168000404040404141414141414141424242424A
:10169000424242424343434343434343444444441A
:1016A00044444444454545454545454546464646EA
:1016B00046464646464747474747474748484848BB
:1016C0004848484849494949494949494A4A4A4A8A
:1016D0004A4A4A4A4A4B4B4B4B4B4B4B4C4C4C4C5B
:1016E0004C4C4C4C4C4D4D4D4D4D4D4D4D4E4E4E2C
:1016F0004E4E4E4E4F4F4F4F4F4F4F4F50505050FA
:1017000050505050505151515151515152525252CA
:10171000525252525253535353535353545454549A
:10172000545454545455555555555555565656566A
:10173000565656565657575757575757585858583A
:10174000585858585859595959595959595A5A5A0B
:101750005A5A5A5A5B5B5B5B5B5B5B5B5C5C5C5CD9
:101760005C5C5C5C5D5D5D5D5D5D5D5D5E5E5E5EA9
:101770005E5E5E5E5F5F5F5F5F5F5F5F6060606079
:10178000606060606161616161616161616262624A
:10179000626262626363636363636363636464641A
:1017A00064646464656565656565656565666666EA
:1017B00066666666676767676767676768686868B9
:1017C0006868686869696969696969696A6A6A6A89
:1017D0006A6A6A6A6B6B6B6B6B6B6B6B6C6C6C6C59
:1017E0006C6C6C6C6D6D6D6D6D6D6D6D6E6E6E6E29
:1017F0006E6E6E6E6F6F6F6F6F6F6F6F70707070F9
:1018000070707070717171717171717171727272C9
:101810007272727273737373737373737474747498
:10182000747474747475757575757575757676766A
:101830007676767677777777777777777778787839
:10184000787878787879797979797979797A7A7A0A
:101850007A7A7A7A7B7B7B7B7B7B7B7B7C7C7C7CD8
:101860007C7C7C7C7D7D7D7D7D7D7D7D7D7E7E7EA9
:101870007E7E7E7E7F7F7F7F7F7F7F7F002F597977
:101880007F7F7F7F7F7874757A7F7F7F7F7F7F7C8C
:101890007A7A7C7F7F7F7F7F7F7E7C7C7D7F7F7F6E
:1018A0007F7F7F7F7D7D7D7E7F7F7F7F7F7F7E7D52
:1018B0007D7E7F7F7F7F7F7F7E7E7E7E7F7F7F7F3F
:1018C0007F7F7F7E7E7E7F7F7F7F7F7F7F7E7E7E2E
:1018D0007F7F7F7F7F7F7F7E7E7E7F7F7F7F7F7F1B
:1018E0007F7F7E7E7F7F7F7F7F7F7F7F7E7E7F7F0C
:1018F0007F7F7F7F7F7F7F7E7F7F7F7F7F7F7F7FF9
:101900007F7F7F7F7F7F7F7F7F7F7F7F7F7F7F7FE7
:101910007F7F7F7F7F7F7F7F7F7F7F7F7F7F7F7FD7
:101920007F7F7F7F7F7F7F7F7F7F7F7F7F7F7F7FC7
:101930007F7F7F7F7F7F7F7F7F7F7F7F7F7F7F7FB7
:101C00007F7F7F7F7F7F7F7F7F7F7F7E7E7F7F7FE6
:101C10007F7F7F7F7F7E7E7F7F7F7F7F7F7F7F7ED7
:101C20007E7F7F7F7F7F7F7F7F7E7E7E7F7F7F7FC8
:101C30007F7F7F7E7E7E7F7F7F7F7F7F7F7E7E7EBA
:101C40007E7F7F7F7F7F7F7E7D7D7E7F7F7F7F7FAB
:101C50007F7E7D7D7D7F7F7F7F7F7F7F7D7C7C7EA4
:101C60007F7F7F7F7F7F7C7A7A7C7F7F7F7F7F7F94
:101C70007A7574787F7F7F7F7F79592F00D0A68611
:101C80008080808080878B8A858080808080808330
:101C9000858583808080808080818383828080802E
:101CA000808080808282828180808080808081822A
:101CB000828180808080808081818181808080801D
:101CC000808080818181808080808080808181810E
:101CD0008080808080808080818180808080808002
:101CE00080808181808080808080808080818080F1
:101CF00080808080808080818080808080808080E3
:101D000080808080808080808080808080808080D3
:101D100080808080808080808080808080808080C3
:101D200080808080808080808080808080808080B3
:101D300080808080808080808080808080808080A3
:1020000080818080808080808080808181808080CD
:1020100080808080808181808080808080808081BD
:1020200081818080808080808081818180808080AB
:10203000808080818181808080808080808181819A
:102040008180808080808081828281808080808089
:102050008081828282808080808080808283838170
:102060008080808080808385858380808080808060
:10207000858A8B87808080808086A6D000010204BC
:10208000050708090B0C0E0F101213151617191A55
:102090001B1D1E20212224252628292A2C2D2E2FE7
:1020A000313233353637383A3B3C3D3E404142438E
:1020B00044454647494A4B4C4D4E4F50515253545C
:1020C0005556575859595A5B5C5D5E5E5F60616258
:1020D0006263646465666667686869696A6A6B6B8F
:1020E0006C6C6D6D6E6E6F6F6F7070707071717102
:1020F00071727272727272727373737373737373B9
:1021000073727272727272727171717170707070BA
:102110006F6F6F6E6E6D6D6C6C6B6B6A6A69696800
:102120006867666665646463626261605F5E5E5D87
:102130005C5B5A59595857565554535251504F4E4B
:102140004D4C4B4A4947464544434241403E3D3C45
:102150003B3A383736353332312F2E2D2C2A292869
:102160002625242221201E1D1C1A191716151312AC
:10217000100F0E0C0B0908070504020100FEFDFB01
:10218000FAF8F7F6F4F3F1F0EFEDECEAE9E8E6E55A
:10219000E4E2E1DFDEDDDBDAD9D7D6D5D3D2D1D0A8
:1021A000CECDCCCAC9C8C7C5C4C3C2C1BFBEBDBCE1
:1021B000BBBAB9B8B6B5B4B3B2B1B0AFAEADACABF3
:1021C000AAA9A8A7A6A6A5A4A3A2A1A1A09F9E9DD7
:1021D0009D9C9B9B9A999998979796969595949480
:1021E0009393929291919090908F8F8F8F8E8E8EED
:1021F0008E8D8D8D8D8D8D8D8C8C8C8C8C8C8C8C16
:102200008C8C8D8D8D8D8D8D8E8E8E8E8F8F8F8FF4
:10221000909090919192929393949495959696978D
:10222000979899999A9B9B9C9D9D9E9FA0A1A1A2E6
:10223000A3A4A5A6A6A7A8A9AAABACADAEAFB0B102
:10224000B2B3B4B5B6B8B9BABBBCBDBEC0C1C2C3E7
:10225000C4C5C7C8C9CACCCDCED0D1D2D3D5D6D7A4
:10226000D9DADBDDDEDFE1E2E4E5E6E8E9EAECED40
:10227000EFF0F1F3F4F6F7F8FAFBFDFE80808181D0
:1022800082828283838484858586878788888989FA
:102290008A8A8B8B8C8C8D8D8E8E8F8F9090919166
:1022A00092929293939494959596969797989899DD
:1022B000999A9A9B9C9C9C9D9D9E9E9FA0A0A1A14B
:1022C000A1A2A2A3A4A4A5A5A6A6A7A7A8A8A9A9B8
:1022D000AAAAABABACACACADADAEAEAFB0B0B1B129
:1022E000B1B2B2B3B4B4B5B5B6B6B7B7B7B8B8B99A
:1022F000BABABBBBBBBCBCBDBEBEBFBFC0C0C1C108
:10230000C2C2C3C3C4C4C5C5C6C6C7C7C7C8C8C977
:10231000C9CACBCBCCCCCDCDCECECFCFD0D0D0D1E7
:10232000D1D2D2D3D3D4D4D5D5D6D7D7D8D8D8D95B
:10233000D9DADADBDBDCDCDDDDDEDEDFDFE0E1E1CC
:10234000E2E2E3E3E4E4E5E5E6E6E7E7E8E8E9E935
:10235000EAEAEBEBECECEDEDEEEEEFEFF0F0F1F1A5
:10236000F2F2F2F3F3F4F5F5F6F6F7F7F8F8F9F917
:10237000F9FAFAFBFBFCFDFDFEFEFFFF0000010188
:1023800002020303040405050606070708080909F5
:10239000090A0B0B0C0C0D0D0E0E0F0F1010101167
:1023A00011121313141415151616171718181819D7
:1023B0001A1A1B1B1B1C1C1D1E1E1F1F2020202148
:1023C00022222323242424252526272728282929B7
:1023D0002A2A2B2B2C2C2D2D2D2E2E2F2F30303129
:1023E0003132333334343535363637373838393996
:1023F000393A3B3B3C3C3C3D3D3E3F3F4040414108
:102400004142424343444545464647474748484979
:10241000494A4A4B4C4C4D4D4E4E4F4F50505151E6
:102420005252535354545555565657575858595954
:102430005A5A5B5B5C5C5D5D5E5E5F5F60606061C5
:10244000616263636464646565666667676868693A
:102450006A6A6B6B6B6C6C6D6E6E6F6F70707071A7
:102460007172727374747475767677777878797917
:102470007A7A7B7B7C7C7C7D7D7E7E7F7F7E7E7D91
:102480007D7C7C7C7B7B7A7A7979787877777676B5
:102490007574747473727271717070706F6F6E6E28
:1024A0006D6C6C6B6B6B6A6A69686867676666659A
:1024B0006564646463636261616060605F5F5E5E07
:1024C0005D5D5C5C5B5B5A5A595958585757565674
:1024D0005555545453535252515150504F4F4E4EE4
:1024E0004D4D4C4C4B4A4A49494848474747464658
:1024F0004545444343424241414140403F3F3E3DC8
:102500003D3C3C3C3B3B3A39393938383737363635
:1025100035353434333332313130302F2F2E2E2DA8
:102520002D2D2C2C2B2B2A2A292928282727262514
:102530002524242423232222212020201F1F1E1E85
:102540001D1C1C1B1B1B1A1A1918181817171616F6
:102550001515141413131211111010100F0F0E0E65
:102560000D0D0C0C0B0B0A090909080807070606D4
:1025700005050404030302020101FFFFFEFEFDFD49
:10258000FCFBFBFAFAF9F9F9F8F8F7F7F6F6F5F5C6
:10259000F4F3F3F2F2F2F1F1F0F0EFEFEEEEEDED35
:1025A000ECECEBEBEAEAE9E9E8E8E7E7E6E6E5E5A3
:1025B000E4E4E3E3E2E2E1E1E0DFDFDEDEDDDDDC17
:1025C000DCDBDBDADAD9D9D8D8D8D7D7D6D5D5D489
:1025D000D4D3D3D2D2D1D1D0D0D0CFCFCECECDCDF7
:1025E000CCCCCBCBCAC9C9C8C8C7C7C7C6C6C5C566
:1025F000C4C4C3C3C2C2C1C1C0C0BFBFBEBEBDBCD4
:10260000BCBBBBBBBABAB9B8B8B7B7B7B6B6B5B545
:10261000B4B4B3B2B2B1B1B1B0B0AFAEAEADADACB7
:10262000ACACABABAAAAA9A9A8A8A7A7A6A6A5A522
:10263000A4A4A3A2A2A1A1A1A0A09F9E9E9D9D9C97
:102640009C9C9B9A9A999998989797969695959409
:10265000949393929292919190908F8F8E8E8D8D74
:102660008C8C8B8B8A8A89898888878786858584E4
:1026700084838382828281818080FF5D7572737220
:10268000737372737273737273737373737373731D
:10269000737373737373737373737373737373730A
:1026A00073737373737373737373737373737373FA
:1026B00073737373737373737373737373737373EA
:1026C00073737373737373737373737373737373DA
:1026D00073737373737373737373737373737373CA
:1026E00073737373737373737373737373737373BA
:1026F00073737373737373737373737373737373AA
:102700007373737373737373737373737373737399
:102710007373737373737373737373737373737389
:102720007373737373737373737373737373737379
:102730007373737373737373737373737373737369
:102740007373737373737373737373737373737359
:102750007373737373737373737373737373737349
:10276000737373737373737373737373737273733A
:102770007273727373727372755D00A28A8D8C8D21
:102780008C8C8D8C8D8C8C8D8C8C8C8C8C8C8C8C86
:102790008C8C8C8C8C8C8C8C8C8C8C8C8C8C8C8C79
:1027A0008C8C8C8C8C8C8C8C8C8C8C8C8C8C8C8C69
:1027B0008C8C8C8C8C8C8C8C8C8C8C8C8C8C8C8C59
:1027C0008C8C8C8C8C8C8C8C8C8C8C8C8C8C8C8C49
:1027D0008C8C8C8C8C8C8C8C8C8C8C8C8C8C8C8C39
:1027E0008C8C8C8C8C8C8C8C8C8C8C8C8C8C8C8C29
:1027F0008C8C8C8C8C8C8C8C8C8C8C8C8C8C8C8C19
:102800008C8C8C8C8C8C8C8C8C8C8C8C8C8C8C8C08
:102810008C8C8C8C8C8C8C8C8C8C8C8C8C8C8C8CF8
:102820008C8C8C8C8C8C8C8C8C8C8C8C8C8C8C8CE8
:102830008C8C8C8C8C8C8C8C8C8C8C8C8C8C8C8CD8
:102840008C8C8C8C8C8C8C8C8C8C8C8C8C8C8C8CC8
:102850008C8C8C8C8C8C8C8C8C8C8C8C8C8C8C8CB8
:102860008C8C8C8C8C8C8C8C8C8C8C8C8C8D8C8CA7
:102870008C8C8D8C8C8D8C8D8AA20000000076A9AA
:102880000800512D090004B90900054D0A00D3E9DB
:102890000A00F48F0B00F63F0C0070FA0C0000C029
:1028A0000D004F910E00116F0F00025A1000EC52F4
:1028B0001100A35A1200087213000A9A1400A6D33A
:1028C0001500E91F1700ED7F1800E0F419000080E3
:1028D0001B009E221D0022DE1E0004B42000D8A58D
:1028E000220046B5240010E42600153429004DA727
:1028F0002B00D23F2E00DAFF3000C0E93300FFFF8B
:1029000036003D453A0044BC3D0008684100AF4BED
:1029100045008C6A490020C84D002A6852009C4E30
:102920005700A47F5C00B4FF610080D36700FFFF05
:102930006D007B8A740089787B0011D082005F97DC
:102940008A0018D5920041909B0053D0A400339D7B
:10295000AE0046FFB80069FFC30000A7CF00FDFF2F
:10296000DB00F414E9000BF1F60020A00501BE2EF7
:10297000150130AA250182203701A6A04901663A37
:102980005D018CFE7101D2FE8701004E9F01FAFFAE
:10299000B701F229D20120E2ED0140400B027C5D3B
:1029A0002A024C544B0204416E024C419302CC74F7
:1029B000BA0228FDE302A4FD0F03009C3E03F4FFCE
:1029C0006F03E453A40340C4DB0380801604F8BA09
:1029D000540498A896040882DC049882260598E995
:1029E000740530FAC70548FB1F0600387D06E8FF6E
:1029F000DF06C8A748078088B70700012D08F075D3
:102A0000A90830512D091004B90930054D0AA0D389
:102A1000E90AA0F48F0B00F63F0CC06FFA0C70FFB0
:102A2000BF0D804E910EB0106F0FA0015A10E0EB59
:102A3000521160A25A1220087213600A9A1440A719
:102A4000D31540E81F1700EC7F1880DFF419E0FE73
:102A50007F1B009D221D6021DE1E4003B420C0D7D5
:102A6000A522C044B5244010E426C0143429804E69
:102A7000A72B80D23F2E00D8FF30010000020000BB
:102A8000030004000500002100240027002A0000A4
:102A9000002200250028002B000000200023002633
:102AA00000290004040404040404040202020202D3
:102AB00002020203030303030303030101010101F3
:102AC00001010101020408102040800102040810E5
:102AD000204080010204081020408080402010081F
:102AE00004020100691807261C28562CE9315B2CCA
:102AF00011241FBECFEFD0E1DEBFCDBF11E0A0E0BB
:102B0000B1E0E2EFF8E602C005900D92AC38B107F3
:102B1000D9F719E0ACE8B1E001C01D92A034B107CB
:102B2000E1F71AE2CEEEDAE204C02297FE010E943B
:102B30006834C43ED107C9F70E948B320C946C34C0
:102B40000C9400004F925F926F927F928F929F92AF
:102B5000AF92BF92CF92DF92EF92FF920F931F93AB
:102B6000DF93CF9300D000D0CDB7DEB78091D202F3
:102B7000823009F461C0833020F4813009F062C1F1
:102B800007C0833009F4ACC0843009F05BC1FCC0DD
:102B90008091900190919101A0919201B091930147
:102BA00020918C0130918D0140918E0150918F01C7
:102BB000820F931FA41FB51F80938C0190938D01EA
:102BC000A0938E01B0938F01CD01AA27BB279770E8
:102BD000E0919401F0919501E80FF91FE4918E2F97
:102BE000992787FD90959093C8028093C7028091A2
:102BF000B8019091B901A091BA01B091BB012091A7
:102C0000B4013091B5014091B6015091B701820FE6
:102C1000931FA41FB51F8093B4019093B501A09397
:102C2000B601B093B701CD01AA27BB279770E091F9
:102C3000BC01F091BD01FBC080919A0190919B0174
:102C4000A0919C01B0919D01209196013091970136
:102C50004091980150919901820F931FA41FB51FB5
:102C60008093960190939701A0939801B093990156
:102C7000CD01AA27BB279770E0919E01F0919F019B
:102C8000E80FF91FE4918E2F992787FD9095909377
:102C9000C8028093C7028091C2019091C301A091A4
:102CA000C401B091C5012091BE013091BF01409196
:102CB000C0015091C101820F931FA41FB51F8093C3
:102CC000BE019093BF01A093C001B093C101CD019B
:102CD000AA27BB279770E091C601F091C701A7C052
:102CE0008091A4019091A501A091A601B091A701A6
:102CF0002091A0013091A1014091A2015091A30126
:102D0000820F931FA41FB51F8093A0019093A10170
:102D1000A093A201B093A301CD01AA27BB2797706E
:102D2000E091A801F091A901E80FF91FE4918E2F1D
:102D3000992787FD90959093C8028093C702809150
:102D4000CC019091CD01A091CE01B091CF01209105
:102D5000C8013091C9014091CA015091CB01820F45
:102D6000931FA41FB51F8093C8019093C901A0931E
:102D7000CA01B093CB01CD01AA27BB279770E09180
:102D8000D001F091D10153C08091AE019091AF017B
:102D9000A091B001B091B1012091AA013091AB0195
:102DA0004091AC015091AD01820F931FA41FB51F3C
:102DB0008093AA019093AB01A093AC01B093AD01B5
:102DC000CD01AA27BB279770E091B201F091B30122
:102DD000E80FF91FE4918E2F992787FD9095909326
:102DE000C8028093C7028091D6019091D701A0912B
:102DF000D801B091D9012091D2013091D3014091F5
:102E0000D4015091D501820F931FA41FB51F809349
:102E1000D2019093D301A093D401B093D501CD01F9
:102E2000AA27BB279770E091DA01F091DB01E80F48
:102E3000F91FE4918E2F992787FD90959093CA02F0
:102E40008093C9022091CD02822F90E0A0E0B0E0F3
:102E500089839A83AB83BC830091BB021091BC022F
:102E60008090BD029090BE02E090B802FF24B801AD
:102E700068197909882777FD8095982F2091B902E4
:102E80003091BA0240E050E00E940A34672F782F58
:102E9000892F992787FD9A952091C7023091C80202
:102EA000201B310B442737FD4095542F620F731FB1
:102EB000841F951F9701442737FD4095542F0E948A
:102EC0000A34672F782F892F992787FD9A95060F47
:102ED000171F1093BC020093BB02081919090E9D1D
:102EE00050010F9DB00C1E9DB00C1124AB2CBB0CDF
:102EF000BB08A80CB91CB092BE02A092BD026090A3
:102F0000CE027724882499240091C3021091C40230
:102F10004090C5025090C602E090C002FF24B80164
:102F200064197509882777FD8095982F2091C10233
:102F30003091C20240E050E00E940A34672F782F9F
:102F4000892F992787FD9A952091C9023091CA024D
:102F5000201B310B442737FD4095542F620F731F00
:102F6000841F951F9701442737FD4095542F0E94D9
:102F70000A34672F782F892F992787FD9A95060F96
:102F8000171F1093C4020093C302041915090E9D64
:102F9000B0010F9D700D1E9D700D1124672F770FCE
:102FA000770B640D751D7093C6026093C502882768
:102FB00077FD8095982FA40193010E940A347B012C
:102FC0008C01CC24B7FCC094DC2CC601B50129814E
:102FD0003A814B815C810E940A34E60EF71E081F7D
:102FE000191F84E015950795F794E7948A95D1F712
:102FF000C7010F900F900F900F90CF91DF911F910D
:103000000F91FF90EF90DF90CF90BF90AF909F9087
:103010008F907F906F905F904F9008950F931F93C4
:10302000CF93DF93EC018B018A819B8101969B8377
:103030008A832C813D818217930720F11B821A829B
:10304000FB01818192819D838C8328A939A94AA99A
:103050005BA9678170E080E090E0CB01772766276D
:10306000621B730B840B950B238134814581568140
:103070000E944B34C901DA018CAB9DABAEABBFAB48
:103080001FA70EA7DF91CF911F910F910895DC012B
:103090009E96ED91FC919F97E081E23081F0E330C4
:1030A00028F4EE2341F0E13099F407C0E33049F011
:1030B000E43071F40BC01E9605C0569603C05E96B0
:1030C00001C09696BD010E940E180895D8961C92D4
:1030D00008950F931F936CE770E0709395016093D0
:1030E00094014CE758E050939F0140939E012CE7D8
:1030F00030E13093A9012093A8018CE798E19093E7
:10310000B3018093B2017093BD016093BC015093F1
:10311000C7014093C6013093D1012093D001909311
:10312000DB018093DA018CE790E29093E5018093D4
:10313000E4018CE792E29093EF018093EE018CE73B
:1031400094E29093F9018093F8018AE796E29093D4
:1031500003028093020201E010E010930502009345
:10316000040210920A0281E08093120232E030934E
:103170001A0223E02093220294E090932A021092F4
:10318000290210933E0200933D0210924302809365
:103190004B023093530220935B0290936302109290
:1031A0006202109277021092760280937802109257
:1031B0007A021092790210927C0210927B02809324
:1031C0007D0210927F0210927E0210928102109274
:1031D00080028093820210928402109283021092E5
:1031E00086021092850280938702109289021092C3
:1031F000880210928B0210928A0280938C021092A5
:103200008E0210928D021092900210928F02809383
:1032100091021092930210929202109295021092D3
:103220009402809396021092980210929702109244
:103230009A021092990280939B0210929D02109222
:103240009C0210929F0210929E028093A002109204
:10325000A2021092A1021092A4021092A3028093E3
:10326000A5021092A7021092A6021092A902109233
:10327000A8028093AA021092AC021092AB021092A4
:10328000AE021092AD028093AF021092B102109282
:10329000B0021092B3021092B2028093B402109264
:1032A000B6021092B5021092E0021092DF0260E0C6
:1032B00074E07093E2026093E1021093E4020093E1
:1032C000E30287E090E09093E6028093E50221E03C
:1032D00030E040E050E02093E7023093E802409372
:1032E000E9025093EA021092EC021092EB02709302
:1032F000EE026093ED021092F0021092EF02E5E010
:10330000F0E0F093F202E093F1022093F3023093A5
:10331000F4024093F5025093F6021092F8021092D4
:10332000F7027093FA026093F9028CE190E09093B7
:10333000FC028093FB0284EC99E09093FE02809360
:10334000FD028AE692E0A0E0B0E08093FF02909355
:103350000003A0930103B0930203109204031092A0
:103360000303709306036093050389E190E0909353
:1033700008038093070388EB9BE090930A038093F4
:10338000090387EE92E0A0E0B0E080930B039093F6
:103390000C03A0930D03B0930E0310921003109230
:1033A0000F0370931203609311031093140300939F
:1033B0001303F0931603E093150320931703309340
:1033C00018034093190350931A0310921C03109290
:1033D0001B0370931E0360931D0310922003109231
:1033E0001F0388E795E090932203809321038EE5E5
:1033F00091E0A0E0B0E08093230390932403A09396
:103400002503B0932603109228031092270370938C
:103410002A03609329038EE190E090932C0380931C
:103420002B0384EB90E090932E0380932D0385E291
:1034300090E0A0E0B0E080932F0390933003A0933E
:103440003103B0933203109234031092330370931C
:10345000360360933503109338030093370380E0FD
:1034600091E090933A03809339038FE390E0A0E0DA
:10347000B0E080933B0390933C03A0933D03B09353
:103480003E031F910F910895EF92FF920F931F93A8
:1034900080910101442309F083C06817F1F510926F
:1034A00007021092060280912302909124029093C9
:1034B0000902809308022091340230913502409134
:1034C0003602509137026091290270E080E090E06E
:1034D000CB0177276627621B730B840B950B20911A
:1034E00025023091260240912702509128020E9425
:1034F0004B34C901DA018093380290933902A093CA
:103500003A02B0933B0282E292E0909333028093BE
:1035100032028EE0809301018FC180910201681711
:1035200009F08AC11092400210923F0280915C0221
:1035300090915D02909342028093410220916D022E
:1035400030916E0240916F02509170026091620260
:1035500070E080E090E0CB0177276627621B730B59
:10356000840B950B20915E0230915F0240916002C6
:10357000509161020E944B34C901DA0180937102BB
:1035800090937202A0937302B09374028BE592E061
:1035900090936C0280936B028EE0809302014CC189
:1035A0008E3051F080910001823009F0A4C08091EA
:1035B00002018E3008F09FC060930101E62EFF24C7
:1035C00000E010E08701FF24EE24C801B7010E944B
:1035D00023282FB7F89433E09695879577956795CC
:1035E0003A95D1F760939001709391018093920185
:1035F000909393012FBFC801B7010E9423282FB7D2
:10360000F894B3E09695879577956795BA95D1F735
:103610006093A4017093A5018093A6019093A701E4
:103620002FBFC801B7010E9423282FB7F894A3E049
:103630009695879577956795AA95D1F76093AE0192
:103640007093AF018093B0019093B1012FBFC80177
:10365000B7010E9423282FB7F894F3E09695879539
:1036600077956795FA95D1F760939A0170939B01CE
:1036700080939C0190939D012FBF1092070210929E
:10368000060280910B0290910C02909309028093A4
:103690000802209134023091350240913602509157
:1036A00037026091110270E080E090E0CB01772753
:1036B0006627621B730B840B950B20910D023091D2
:1036C0000E0240910F02509110020E944B34C9012A
:1036D000DA018093380290933902A0933A02B093B2
:1036E0003B028AE092E0909333028093320281E0C1
:1036F00080933C029FC060930201E62EFF2400E00D
:1037000010E08701FF24EE24C801B7010E9423289E
:103710002FB7F89453E096958795779567955A95C6
:10372000D1F76093B8017093B9018093BA01909377
:10373000BB012FBFC801B7010E9423282FB7F894FF
:1037400043E096958795779567954A95D1F760936D
:10375000CC017093CD018093CE019093CF012FBF08
:10376000C801B7010E9423282FB7F89433E096953B
:103770008795779567953A95D1F76093D6017093C1
:10378000D7018093D8019093D9012FBFC801B70109
:103790000E9423282FB7F89413E096958795779584
:1037A00067951A95D1F76093C2017093C301809316
:1037B000C4019093C5012FBF1092400210923F02A6
:1037C000809144029091450290934202809341027D
:1037D00020916D0230916E0240916F025091700203
:1037E00060914A0270E080E090E0CB017727662785
:1037F000621B730B840B950B20914602309147029C
:1038000040914802509149020E944B34C901DA01AB
:103810008093710290937202A0937302B09374022A
:1038200083E492E090936C0280936B0281E080933A
:10383000750282E0809300011F910F91FF90EF903D
:1038400008950E940B2708952F923F924F925F9206
:103850006F927F928F929F92AF92BF92CF92DF92A0
:10386000EF92FF920F931F93DF93CF93CDB7DEB705
:103870002D970FB6F894DEBF0FBECDBF80917802B2
:10388000882351F08CE060E00E94BF2E8CE060E065
:103890000E94FE2E109278028CE00E94522F892BFB
:1038A00051F0809176029091770201969093770281
:1038B0008093760217C08091760290917702909360
:1038C0007A028093790210927702109276028CE04D
:1038D00061E00E94BF2E8CE061E00E94FE2E81E03C
:1038E000809378026090790280917D02882351F064
:1038F00082E060E00E94BF2E82E060E00E94FE2E27
:1039000010927D0282E00E94522F892B51F080910B
:103910007B0290917C02019690937C0280937B02C3
:1039200017C080917B0290917C0290937F028093DC
:103930007E0210927C0210927B0282E061E00E9483
:10394000BF2E82E061E00E94FE2E81E080937D0226
:1039500070907E0280918202882351F083E060E0C3
:103960000E94BF2E83E060E00E94FE2E1092820231
:1039700083E00E94522F892B51F080918002909118
:1039800081020196909381028093800217C08091FA
:10399000800290918102909384028093830210921E
:1039A00081021092800283E061E00E94BF2E83E0DA
:1039B00061E00E94FE2E81E080938202B09083023B
:1039C00080918702882351F086E060E00E94BF2E3C
:1039D00086E060E00E94FE2E1092870286E00E9440
:1039E000522F892B51F08091850290918602019689
:1039F000909386028093850217C0809185029091F2
:103A00008602909389028093880210928602109217
:103A1000850286E061E00E94BF2E86E061E00E94A0
:103A2000FE2E81E0809387028090880280918C0234
:103A3000882351F087E060E00E94BF2E87E060E0BD
:103A40000E94FE2E10928C0287E00E94522F892B3A
:103A500051F080918A0290918B02019690938B0293
:103A600080938A0217C080918A0290918B02909372
:103A70008E0280938D0210928B0210928A0287E050
:103A800061E00E94BF2E87E061E00E94FE2E81E08F
:103A900080938C0290908D0280919102882351F046
:103AA00080E160E00E94BF2E80E160E00E94FE2E77
:103AB0001092910280E10E94522F892B51F0809147
:103AC0008F029091900201969093900280938F02C2
:103AD00017C080918F0290919002909393028093EF
:103AE00092021092900210928F0280E161E00E9497
:103AF000BF2E80E161E00E94FE2E81E08093910262
:103B0000A090920280919602882351F081E160E0BA
:103B10000E94BF2E81E160E00E94FE2E109296026C
:103B200081E10E94522F892B51F080919402909153
:103B300095020196909395028093940217C080910C
:103B4000940290919502909398028093970210921C
:103B500095021092940281E161E00E94BF2E81E102
:103B600061E00E94FE2E81E080939602C090970251
:103B700080919B02882351F082E160E00E94BF2E79
:103B800082E160E00E94FE2E10929B0282E10E9480
:103B9000522F892B51F08091990290919A020196AF
:103BA00090939A028093990217C080919902909104
:103BB0009A0290939D0280939C0210929A02109216
:103BC000990282E161E00E94BF2E82E161E00E94E1
:103BD000FE2E81E080939B02D0909C028091A002F7
:103BE000882351F083E160E00E94BF2E83E160E012
:103BF0000E94FE2E1092A00283E10E94522F892B78
:103C000051F080919E0290919F02019690939F02A5
:103C100080939E0217C080919E0290919F02909384
:103C2000A2028093A10210929F0210929E0283E151
:103C300061E00E94BF2E83E161E00E94FE2E81E0E0
:103C40008093A002E090A1028091A502882351F008
:103C500084E160E00E94BF2E84E160E00E94FE2EBD
:103C60001092A50284E10E94522F892B51F080917D
:103C7000A3029091A40201969093A4028093A302C0
:103C800017C08091A3029091A4029093A702809301
:103C9000A6021092A4021092A30284E161E00E94A5
:103CA000BF2E84E161E00E94FE2E81E08093A50298
:103CB000F090A6028091AA02882351F085E160E08D
:103CC0000E94BF2E85E160E00E94FE2E1092AA02A3
:103CD00085E10E94522F892B51F08091A80290918A
:103CE000A90201969093A9028093A80217C080911F
:103CF000A8029091A9029093AC028093AB0210921B
:103D0000A9021092A80285E161E00E94BF2E85E120
:103D100061E00E94FE2E81E08093AA020091AB0236
:103D20008091AF02882351F086E160E00E94BF2EAF
:103D300086E160E00E94FE2E1092AF0286E10E94B2
:103D4000522F892B51F08091AD029091AE020196D5
:103D50009093AE028093AD0217C08091AD02909116
:103D6000AE029093B1028093B0021092AE02109214
:103D7000AD0286E161E00E94BF2E86E161E00E9413
:103D8000FE2E81E08093AF021091B0028091B402C8
:103D9000882351F087E160E00E94BF2E87E160E058
:103DA0000E94FE2E1092B40287E10E94522F892BAE
:103DB00051F08091B2029091B30201969093B302B8
:103DC0008093B20217C08091B2029091B302909397
:103DD000B6028093B5021092B3021092B20287E14C
:103DE00061E00E94BF2E87E161E00E94FE2E81E02B
:103DF0008093B4028091B502FE0131969DE0DF010F
:103E00001D929A95E9F769827A82BB828C829D82A3
:103E1000AE82CF82D886E986FA860B871C878D878B
:103E200080910301843009F4C7C0853048F48230A2
:103E3000C9F1833008F05EC0813009F0FEC10AC0CC
:103E4000863009F443C1863008F418C1873009F080
:103E5000F4C1CAC18EE10E94BE272091DF023091D9
:103E6000E002821B930BAA2797FDA095BA2F209101
:103E7000E7023091E8024091E9025091EA02BC0168
:103E8000CD010E940A34672F782F892F992787FD4B
:103E90009A952091E3023091E402260F371F209378
:103EA000D202CBC18FE10E94BE272091EB0230915C
:103EB000EC02821B930BAA2797FDA095BA2F2091A5
:103EC000F3023091F4024091F5025091F602BC01E8
:103ED000CD010E940A34672F782F892F992787FDFB
:103EE0009A952091EF023091F002260F371F209310
:103EF000D302A3C188E10E94BE272091F70230912E
:103F0000F802821B930BAA2797FDA095BA2F209148
:103F1000FF02309100034091010350910203BC0164
:103F2000CD010E940A34672F782F892F992787FDAA
:103F30009A95E090FB02F090FC02E60EF71EF092DC
:103F4000D502E092D40200E010E083E016950795D8
:103F5000F794E7948A95D1F7F0920C02E0920B0265
:103F60005701CC24DD24209104023091050240E069
:103F700050E0C601B5010E940A3460930D027093AF
:103F80000E0280930F0290931002F0924502E0928D
:103F9000440220913D0230913E0240E050E0C601D3
:103FA000B5010E940A3460934602709347028093E1
:103FB00048029093490241C189E10E94BE272091A5
:103FC000030330910403821B930BAA2797FDA0954E
:103FD000BA2F20910B0330910C0340910D035091A7
:103FE0000E03BC01CD010E940A34672F782F892F60
:103FF000992787FD9A95E0900703F0900803E60E55
:10400000F71EF092D702E092D60200E010E0A3E0A3
:1040100016950795F794E794AA95D1F7F0922402A4
:10402000E09223025701CC24DD2420910402309138
:10403000050240E050E0C601B5010E940A346093D9
:104040002502709326028093270290932802F09213
:104050005D02E0925C0220913D0230913E0240E020
:1040600050E0C601B5010E940A3460935E0270936D
:104070005F028093600290936102DFC08AE10E9438
:10408000BE2720910F0330911003821B930BAA27A8
:1040900097FDA095BA2F20911703309118034091F6
:1040A000190350911A03BC01CD010E940A34672FF5
:1040B000782F892F992787FD9A95209113033091A6
:1040C0001403260F371F2093D802B7C08BE10E943C
:1040D000BE2720911B0330911C03821B930BAA2740
:1040E00097FDA095BA2F209123033091240340918E
:1040F000250350912603BC01CD010E940A34672F8D
:10410000782F892F992787FD9A9520911F03309149
:104110002003260F371F3093DA022093D9028FB77E
:10412000F894442737FD4095542F6BE0220F331F3E
:10413000441F551F6A95D1F72093E0013093E101A8
:104140004093E2015093E3018FBF2FB7F894809121
:10415000D9029091DA02AA2797FDA095BA2F3BE0E9
:10416000880F991FAA1FBB1F3A95D1F78093EA01C8
:104170009093EB01A093EC01B093ED012FBF2FB70B
:10418000F8948091D9029091DA02AA2797FDA09520
:10419000BA2F0BE0880F991FAA1FBB1F0A95D1F7F2
:1041A0008093F4019093F501A093F601B093F70189
:1041B0002FBF2FB7F8948091D9029091DA02AA27E5
:1041C00097FDA095BA2F1BE0880F991FAA1FBB1F50
:1041D0001A95D1F78093FE019093FF01A0930002FE
:1041E000B09301022FBF29C08DE10E94BE2720910C
:1041F000330330913403821B930BAA2797FDA095BC
:10420000BA2F20913B0330913C0340913D035091E4
:104210003E03BC01CD010E940A34672F782F892FFD
:10422000992787FD9A952091370330913803260FFF
:10423000371F3093DE022093DD02809103018F5FF0
:1042400080930301883010F0109203018CE10E94EA
:10425000BE272091270330912803821B930BAA27A6
:1042600097FDA095BA2F20912F03309130034091F4
:10427000310350913203BC01CD010E940A34672FF3
:10428000782F892F992787FD9A9520912B033091BC
:104290002C03260F371F3093DC022093DB02809122
:1042A000D802823091F1833024F4813009F0B5C016
:1042B00007C0833009F44EC0843009F0AEC06FC02F
:1042C0008091E0019091E101A091E201B091E301C0
:1042D0002091DC013091DD014091DE015091DF0140
:1042E000820F931FA41FB51F8093DC019093DD0103
:1042F000A093DE01B093DF01CD01AA27BB27917007
:10430000E091E401F091E5016EC08091EA019091A5
:10431000EB01A091EC01B091ED012091E60130910B
:10432000E7014091E8015091E901820F931FA41F1A
:10433000B51F8093E6019093E701A093E801B09345
:10434000E901CD01AA27BB279170E091EE01F09120
:10435000EF0149C08091F4019091F501A091F6011F
:10436000B091F7012091F0013091F1014091F201FB
:104370005091F301820F931FA41FB51F8093F0018A
:104380009093F101A093F201B093F301CD01AA271C
:10439000BB279170E091F801F091F90124C0809160
:1043A000FE019091FF01A0910002B09101022091C5
:1043B000FA013091FB014091FC015091FD01820F07
:1043C000931FA41FB51F8093FA019093FB01A09344
:1043D000FC01B093FD01CD01AA27BB279170E091AC
:1043E0000202F0910302E80FF91FE4916E2F772784
:1043F00067FD709560587F4F882777FD8095982FCF
:104400002091DD023091DE0240E050E00E940A344B
:10441000672F770F770B6093CF022091DB023091EB
:10442000DC028091CF0290E0FC01E29FC001E39F9B
:10443000900DF29F900D1124892F9927281B390B7D
:104440003093CC022093CB022093B8024091B70264
:1044500050E0822F809590E0BC01649FC001659F71
:10446000900D749F900D1124892F9927840F951F0B
:104470009093BA028093B9022093C0024091BF0288
:1044800050E0649FC001659F900D749F900D1124B2
:10449000892F9927840F951F9093C2028093C102A0
:1044A0008091D202823049F0833018F4813051F487
:1044B00004C0833011F0843029F483E28093B70282
:1044C0008093BF0285EB95E00E948E2E94E0E92E4A
:1044D00091E0F92E00E010E0AA24A3948BE5882E49
:1044E00082E0982EBEE0BB2EA2E2CA2EA2E0DA2E17
:1044F000FDE02F2E312CE8EE6E2EEFEF7E2E6C0CB1
:104500007D1C78EE472E7FEF572E480C591C202F2C
:10451000E1E0F0E0EC0FFD1FE00FF11F8081F701FB
:104520009081882309F476C1913009F0FAC1809115
:10453000D30290E0829DF001839DF00D929DF00DDD
:104540001124E00FF11FEE0FFF1FEE5EFE4F808182
:1045500091819093D1028093D002D7011C928091D7
:1045600001018E3051F080910001823009F0AAC023
:10457000809102018E3008F0A5C0209301012FB771
:10458000F8948091D0029091D102AA2797FDA0952E
:10459000BA2F5DE0880F991FAA1FBB1F5A95D1F74C
:1045A0008093900190939101A0939201B093930115
:1045B0002FBF2FB7F8948091D0029091D102AA27F3
:1045C00097FDA095BA2F4DE0880F991FAA1FBB1F1A
:1045D0004A95D1F78093A4019093A501A093A601D9
:1045E000B093A7012FBF2FB7F8948091D00290917C
:1045F000D102AA2797FDA095BA2F3DE0880F991FF9
:10460000AA1FBB1F3A95D1F780939A0190939B0103
:10461000A0939C01B0939D012FBF2FB7F894809178
:10462000D0029091D102AA2797FDA095BA2FFDE064
:10463000880F991FAA1FBB1FFA95D1F78093AE016F
:104640009093AF01A093B001B093B1012FBF10922E
:1046500007021092060280910B0290910C02909337
:104660000902809308022091340230913502409172
:104670003602509137026091110270E080E090E0C4
:10468000CB0177276627621B730B840B950B209158
:104690000D0230910E0240910F02509110020E94C3
:1046A0004B34C901DA018093380290933902A09308
:1046B0003A02B0933B027092330260923202A092AF
:1046C0003C022DC1209302012FB7F8948091D002B3
:1046D0009091D102AA2797FDA095BA2F6DE0880F7F
:1046E000991FAA1FBB1F6A95D1F78093B8019093B9
:1046F000B901A093BA01B093BB012FBF2FB7F894B3
:104700008091D0029091D102AA2797FDA095BA2F4F
:104710005DE0880F991FAA1FBB1F5A95D1F78093A0
:10472000C2019093C301A093C401B093C5012FBFF0
:104730002FB7F8948091D0029091D102AA2797FDCB
:10474000A095BA2F4DE0880F991FAA1FBB1F4A954D
:10475000D1F78093CC019093CD01A093CE01B0937B
:10476000CF012FBF2FB7F8948091D0029091D10242
:10477000AA2797FDA095BA2F3DE0880F991FAA1F81
:10478000BB1F3A95D1F78093D6019093D701A093A0
:10479000D801B093D9012FBF1092400210923F026E
:1047A000809144029091450290934202809341028D
:1047B00020916D0230916E0240916F025091700213
:1047C00060914A0270E080E090E0CB017727662795
:1047D000621B730B840B950B2091460230914702AC
:1047E00040914802509149020E944B34C901DA01BC
:1047F0008093710290937202A0937302B09374023B
:1048000050926C0240926B02A0927502B2E0B0939B
:10481000000187C0992309F084C0F701A08280912C
:1048200001010817F1F5109207021092060280911B
:104830002302909124029093090280930802209110
:104840003402309135024091360250913702609126
:10485000290270E080E090E0CB0177276627621B99
:10486000730B840B950B2091250230912602409109
:104870002702509128020E944B34C901DA0180932B
:10488000380290933902A0933A02B0933B02D0923F
:104890003302C0923202B0920101F2E0F0930001C3
:1048A00040C0809102010817E1F510924002109279
:1048B0003F0280915C0290915D029093420280934E
:1048C000410220916D0230916E0240916F02509131
:1048D00070026091620270E080E090E0CB01772787
:1048E0006627621B730B840B950B20915E0230913F
:1048F0005F0240916002509161020E944B34C901F5
:10490000DA018093710290937202A0937302B093C4
:10491000740290926C0280926B02B0920201A0929B
:1049200000010F5F1F4F0894E11CF11C0D301105B1
:1049300009F0EDCD84E092E00E9447188DE392E00B
:104940000E94471880913C02882361F16FB7F89468
:104950002091340230913502409136025091370255
:104960008091380290913902A0913A02B0913B02B5
:10497000820F931FA41FB51F8093340290933502BA
:10498000A0933602B09337026FBF809134029091AA
:104990003502A0913602B0913702CD01BB2797FDB9
:1049A000B095AB2F8093CD0280917502882361F181
:1049B0006FB7F89420916D0230916E0240916F02B2
:1049C000509170028091710290917202A0917302D5
:1049D000B0917402820F931FA41FB51F80936D02C4
:1049E00090936E02A0936F02B09370026FBF80919C
:1049F0006D0290916E02A0916F02B0917002CD0194
:104A0000BB2797FDB095AB2F8093CE022D960FB6A6
:104A1000F894DEBF0FBECDBFCF91DF911F910F91F4
:104A2000FF90EF90DF90CF90BF90AF909F908F90CE
:104A30007F906F905F904F903F902F9008958F924E
:104A40009F92AF92BF92CF92DF92EF92FF920F931D
:104A50001F9380E890E00E94152605EB15E0C80141
:104A600060E00E94932EC80164E47AE10E942B2B3F
:104A700078ECD72ED0921102D0921902D092210256
:104A8000CC24C394C0922902109231026CE0862E8D
:104A9000912C9092140280921302E0900402F09004
:104AA000050200E010E0C801B7012CE030E040E072
:104AB00050E00E940A3460931502709316028093AE
:104AC0001702909318025EEDA52E5FE0B52EB0920E
:104AD0001C02A0921B02C801B7012EED3FE040E08E
:104AE00050E00E940A3460931D0270931E0280936E
:104AF0001F0290932002D0924A02D0925202D0928A
:104B00005A02C092620210926A0290924D02809202
:104B10004C02E0903D02F0903E0200E010E0C8013F
:104B2000B7012CE030E040E050E00E940A3460938E
:104B30004E0270934F028093500290935102B092B4
:104B40005502A0925402C801B7012EED3FE040E0AB
:104B500050E00E940A34609356027093570280938B
:104B60005802909359021F910F91FF90EF90DF90A0
:104B7000CF90BF90AF909F908F90089508951F920F
:104B80000F920FB60F9211248F939F93AF93BF9301
:104B9000EF93FF9380913F05E82FF0E0EE0FFF1FAA
:104BA000E15CFC4F0190F081E02D8F5F80933F0529
:104BB0008823C9F48091410591E0892780934105BC
:104BC0008091430590914405A0914505B09146051B
:104BD0000196A11DB11D8093430590934405A093B8
:104BE0004505B0934605CF01880F991F9093880023
:104BF0008E2F8F7780938A00FF91EF91BF91AF91B5
:104C00009F918F910F900FBE0F901F90189510924B
:104C10003F051092400510924105109242050895FB
:104C20000E94241C0E94B4270895AF92BF92CF9295
:104C3000DF92EF92FF920F931F937C0180E00E941E
:104C4000672784B58093530585B58093540587B550
:104C500080935505AEE6CA2ED12CF6018081809353
:104C6000560500E010E060E472E48FE090E0A801F7
:104C700097010E944B34DA01C90160E176E240E01D
:104C80000E945A2A0E94C72A84B58093470585B599
:104C90008093480587B580934905F601808180930C
:104CA0004A0500E810E0F801808180935705F1E89B
:104CB000EF2EF12CF701808180935805E8E8CE2E85
:104CC000D12CF60180819181809359057FE6A72E32
:104CD000B12CF501808180935A0585E061E00E9446
:104CE000BF2E84E061E00E94BF2E1092AA0598E1D9
:104CF0009093AB0582E08093AC05F7019083F801B7
:104D0000808381E08093AF051093AE050093AD05DD
:104D1000109387000093860089E1F701808385E086
:104D200061E00E94BF2EF80180819091AC05892B33
:104D300080688083F601118210828091AF05909186
:104D4000AB05892BF701808384E061E00E94BF2ED0
:104D5000F80180819091AC05892B8062808310924C
:104D60008B0010928A008091AF059091AB05892B42
:104D7000F7018083F801808180934B05F7018081E2
:104D800080934C05F6018081918180934D05F5015A
:104D9000808180934E0560EBA62EB12CF5018081B9
:104DA00080935B0551EBC52ED12CF6018081809359
:104DB0005C0543EBE42EF12CF701808180935D05C7
:104DC00000E710E0F801808180935E0560ED73E0FC
:104DD00080E090E00E94A7298EEB95E20E94932943
:104DE0000E94A329F501808180934F05F6018081FF
:104DF00080935005F701808180935105F8018081EF
:104E0000809352051F910F91FF90EF90DF90CF900C
:104E1000BF90AF9008959091400580913F059817FD
:104E200071F490914205809141059817D9F407C01B
:104E30008091420591E089278093420508950E9460
:104E4000A21520914005E22FF0E0EE0FFF1FE15C7C
:104E5000FC4F8050904E918380832F5F20934005BC
:104E6000222331F30895882371F480917A008460BD
:104E700080937A0080917A008D7F80937A00809170
:104E80007A008E7F0FC0813081F480917A008B7F11
:104E900080937A0080917A00826080937A0080917A
:104EA0007A00816080937A000895823079F480914D
:104EB0007A008B7F80937A0080917A008260809361
:104EC0007A0080917A008E7F80937A000895909185
:104ED0007A00986090937A000E94332740E050E077
:104EE00061E070E020917E00CB01042E02C0880FAB
:104EF000991F0A94E2F7282B20937E004F5F5F4FA3
:104F00004830510579F70895DF93CF930F92CDB7CD
:104F1000DEB720916705309168058FEF2F3F380786
:104F200011F48FEF0CC0F901E15AFA4F80818983A7
:104F30002150304030936805209367058981809324
:104F40007B0180917B018F3F59F080917B018770BD
:104F5000806480937C0080917A00806480937A00E2
:104F60000F90CF91DF91089580917B018F3F29F4BD
:104F70000E94842781E080937A0108958E3008F0A2
:104F80008E50E0916705F0916805E730F10544F433
:104F90003196F0936805E0936705E15AFA4F8083F4
:104FA000E82FF0E0EE0FFF1FE759FA4F2081318123
:104FB000C90108951F920F920FB60F9211242F93DB
:104FC0003F934F935F936F937F938F939F93AF9391
:104FD000BF93EF93FF9380917A01882341F08091F2
:104FE0007A00806480937A0010927A0114C0E09174
:104FF0007B01FF27E7FDF095809178009091790083
:10500000EE0FFF1FE759FA4F918380830E94842798
:1050100081E080937A01FF91EF91BF91AF919F91D1
:105020008F917F916F915F914F913F912F910F9051
:105030000FBE0F901F9018958FEF9FEF909368050C
:10504000809367050895EF92FF920F931F939C0141
:105050004427552730E0220F331F220F331FF90159
:10506000E658F74DE590F59005911491F901E25855
:10507000F74D85919591A591B4918E199F09A00B3B
:10508000B10B9B0140E050E0803060E0960761E0AA
:10509000A60760E0B60758F0692F7A2F8B2F992763
:1050A0000E940A34272F382F492F552707C0BC01EB
:1050B000CD010E940A349C01442755272E0D3F1D27
:1050C000401F511FB901CA011F910F91FF90EF902E
:1050D000089584E08093A3058FEF8093A20510923A
:1050E000800550917C055093810540917A05A2E896
:1050F000B5E0242F30917B05C901FC0102C08191EC
:105100008D938E2F841B8517D0F38091790590E0C5
:10511000880F991F80937F0585EE8093BC000895CA
:1051200085ED8093BC008091BC0084FDFCCF809114
:10513000A3058093A4051092A3058091A405833054
:1051400019F40E94692808958091A4058130B1F472
:1051500082E08093A3058FEF8093A20510928005D3
:1051600080917E0581508093810580917D05880F17
:10517000816080937F0585EE8093BC00089585EC67
:105180008093BC008091A3058093A4051092A30591
:105190008091A405833019F40E94692808958091B4
:1051A000A4058130B1F482E08093A3058FEF809352
:1051B000A2051092800580917E0581508093810523
:1051C00080917D05880F816080937F0585EE8093B7
:1051D000BC0008951F920F920FB60F9211242F93C7
:1051E0003F934F935F936F937F938F939F93AF936F
:1051F000BF93EF93FF938091B90090E0887F907008
:1052000088329105B1F189329105A4F4803191057C
:1052100059F1813191053CF4009709F46FC008976A
:1052200009F070C021C08831910519F1809709F00B
:1052300069C033C08034910509F447C081349105B9
:105240003CF48033910559F1C89709F05BC02BC03D
:105250008035910571F18835910509F442C0883493
:10526000910509F04FC04CC080917F058093BB0031
:1052700032C09091800580918105981708F040C058
:1052800090918005E92FF0E0EE57FA4F80818093EE
:10529000BB009F5F909380051EC080E201C080E349
:1052A0008093A2052DC088E38093A2050E94BF28A9
:1052B00029C0809180059091BB00E82FF0E0EE5767
:1052C000FA4F90838F5F8093800590918005809145
:1052D0008105981710F485EC01C085E88093BC0027
:1052E00011C0809180059091BB00E82FF0E0EE574F
:1052F000FA4F90838F5F8093800502C01092A205C1
:105300000E949028FF91EF91BF91AF919F918F9153
:105310007F916F915F914F913F912F910F900FBEB1
:105320000F901F9018959093A6058093A505892B43
:1053300021F080917000826003C0809170008D7FA9
:1053400080937000089581E08093A7050895EF92FF
:10535000FF920F931F937B018C01611571058105ED
:10536000910529F471E0E72EF12C012D112D83EF29
:1053700098E0B801A7012AE030E00E94733381E091
:10538000E81681E0F80680E0080780E0180720F4BE
:105390004E2D415021E077C081E0E81688E0F80604
:1053A00080E0080780E0180758F463E01695079539
:1053B000F794E7946A95D1F74E2D415022E063C0EF
:1053C00081E0E81680E2F80680E0080780E0180730
:1053D00058F455E016950795F794E7945A95D1F748
:1053E0004E2D415023E04FC081E0E81680E4F806DE
:1053F00080E0080780E0180758F446E01695079506
:10540000F794E7944A95D1F74E2D415024E03BC0E4
:1054100081E0E81680E8F80680E0080780E01807D9
:1054200058F437E016950795F794E7943A95D1F735
:105430004E2D415025E027C081E0E81680E0F806B7
:1054400081E0080780E0180740F4BB27A12F902FC8
:105450008F2D482F415026E016C081E0E81680E0ED
:10546000F80684E0080780E0180718F027E04FEFFF
:105470000AC09AE016950795F794E7949A95D1F7A4
:105480004E2D415027E01092B1001092B0001092C2
:10549000B2008091B6008F7D8093B6004093B30038
:1054A00082E08093B0002093B1001F910F91FF9094
:1054B000EF9008959F92AF92BF92CF92DF92EF92BA
:1054C0000F937093B2056093B1054093B0059C01B2
:1054D00040E050E084E0220F331F441F551F8A959F
:1054E000D1F760E070E0062FFB01E658F54D94908F
:1054F000992079F0DA01C901062E04C0B695A79566
:10550000979587950A94D2F781509140A040B0407A
:1055100050F00F5F6F5F7F4F6B30710521F70B30DD
:1055200011F480E02CC059016A01002E04C0D69409
:10553000C794B794A7940A94D2F761E070E002C0D0
:10554000660F771F0A95E2F7882777FD8095982FD9
:10555000A60195010E940A3420E130E040E050E0CD
:105560000E944B343093B4052093B30510926E0023
:1055700082E084BD95BCEA2CEA94E7BC81E00F91FF
:10558000EF90DF90CF90BF90AF909F900895EEE6A0
:10559000F0E0808182608083089578941F920F925A
:1055A0000FB60F9211242F933F934F935F936F93F6
:1055B0007F938F939F93AF93BF93EF93FF9310923B
:1055C0006E00E091B105F091B2050995F8948091D3
:1055D000B005882311F016BCA99A80916E008260F4
:1055E00080936E00FF91EF91BF91AF919F918F914A
:1055F0007F916F915F914F913F912F910F900FBECF
:105600000F901F901895FC01E65FFD4F11921192CB
:105610001192119211921192119211921192119272
:105620001192119211921192119211921192119262
:105630001192119211921192119211921192119252
:105640001192119211921192119211921192119242
:10565000118210820895FC01E45FFD4F7183608325
:105660000895CF93DF93EC01CA5FDE4F8881998163
:10567000C650D140813F910509F4D9C0823F9105C0
:105680004CF5803B910509F467C0813B91056CF4B2
:105690008039910509F44AC0803A910509F483C024
:1056A0008038910509F0FFC03AC0803D910509F4AA
:1056B00092C0813D91052CF4803C910509F0F3C026
:1056C00091C0803E910509F44EC0803F910509F0DC
:1056D000EAC09CC08A3F910599F18B3F91058CF4FB
:1056E000833F910509F4C8C0833F91050CF4A6C01F
:1056F000863F910509F4CDC0883F910509F0D3C0DC
:105700001CC08C3F910511F18C3F9105E4F08E3F58
:105710009105F9F08F3F910509F0C5C0BDC0C65F86
:10572000DD4F28813981CA50D24043C0C45FDD4F6C
:1057300028813981CC50D2403CC0CE5DDD4FAEC017
:10574000CC5DDD4FABC0CA5DDD4FA8C0C85DDD4F8D
:10575000A5C0C65DDD4FA2C0C05FDD4F2881398185
:10576000C051D24026C0CA5EDD4FE881F981C651E2
:10577000D240309709F497C0C75FDE4F688170E070
:105780006F7770707695762F6627779567958A91F3
:1057900090E08F779070682B792B60507042239740
:1057A0008881099580C0C25FDD4F28813981CE5044
:1057B000D2402115310509F476C0FE01E85FFE4FA5
:1057C000DE01A75FBE4FCB5FDE4F888160814C91C9
:1057D000F901099568C0CC5EDD4F28813981C4513B
:1057E000D24006C0CE5EDD4F28813981C251D24001
:1057F0002115310509F457C0FE01E85FFE4FCB5F6C
:10580000DE4F88816081F90109954DC0C85EDD4F8A
:10581000E881F981C851D240309709F444C0CE01E3
:10582000865F9E4FC85FDE4F688109953CC0C65EAB
:10583000DD4FE881F981CA51D24024C0C45EDD4FFA
:1058400048815981CC51D2404115510561F1C75F62
:10585000DE4F888190E08F7790709695982F8827FB
:1058600097958795FE01229130E02F773070822B3B
:10587000932BFA01099517C0C25EDD4FE881F981CB
:10588000CE51D240309779F0C85FDE4F88810995BC
:105890000AC0C05EDD4F02C0C45DDD4FE881F98102
:1058A000309709F00995DF91CF91089585EB95E048
:1058B0000E94032B08950895CF93DF93EC0183EFAB
:1058C00098E00E943F31181619060CF0FAC1803892
:1058D000910529F483EF98E00E949931F2C183EF9A
:1058E00098E00E947031CD5FDE4FE881F981C350AE
:1058F000D140309709F0EBC08A83988197FF0FC0A1
:10590000943F69F0953F59F0993F49F09D3F39F038
:10591000292F30E0903F28F4207F307002C020E033
:1059200030E0203B3105B1F0213B310554F4203902
:10593000310581F0203A310569F020383105B1F4A4
:1059400009C0203D310531F0203E310519F0203CE1
:10595000310561F487FD0AC09A838B83CD5FDE4FEA
:1059600081E090E099838883C350D1402A8127FF4A
:105970000FC0243F69F0253F59F0293F49F02D3FE2
:1059800039F0822F90E0203F28F4807F907002C091
:1059900080E090E0813F910509F473C0FE01EF5F64
:1059A000FE4F823F91054CF5803B910509F472C092
:1059B000813B91056CF48039910509F46BC0803A04
:1059C000910509F467C08038910509F06EC062C086
:1059D000803D910509F455C0813D91052CF4803C32
:1059E000910509F062C04DC0803E910509F452C096
:1059F000803F910509F059C052C0883F9105D1F010
:105A0000893F910564F4833F9105D9F1833F910566
:105A10000CF440C0863F910509F047C00BC08A3F97
:105A200091050CF442C08D3F910524F08E5F9040AB
:105A30000297D8F527FF0FC0243F69F0253F59F0A2
:105A4000293F49F02D3F39F0822F90E0203F28F484
:105A5000807F907002C080E090E0CA5FDE4F998343
:105A600088831A92239619921882C050DF4F81E0E2
:105A70008883C650D14019821882FE011292129278
:105A800021C1CF5FDE4F82E090E099838883C150CF
:105A9000D14014C083E090E0918380830FC08FEFEA
:105AA00090E091838083188209C0CD5FDE4F198218
:105AB0001882C350D14011821082A3C0FE01ED5F55
:105AC000FE4F80819181019691838083FAC087FF88
:105AD00069C08D3F40F48A3F48F4873FB9F0883F62
:105AE00009F060C003C08E3F08F45CC0FE01EA5FAD
:105AF000FE4F80831182C85FDE4F1992188224976F
:105B00001882CC5FDE4F81E08883DCC08A8187FF0A
:105B100070C0843F09F46DC0853F09F46AC0893FB5
:105B200009F467C08D3F09F464C0282F30E0803F3E
:105B300020F4C901807F907001C0C901803F9105A8
:105B400009F057C0FE0190E08281E65FFE4F80833E
:105B50009F5FE950F1409F3FB9F7CA5FDE4F80EF8A
:105B600090E099838883C650D140FE01ED5FFE4FDF
:105B700080818F5FC85FDE4F88832196808191810D
:105B80000196988324971882CC5FDE4F81E088834A
:105B900011821082C850D14019821882C150D14060
:105BA000188290C0EC0FFD1F8283FE01ED5FFE4F57
:105BB00020813181CF5FDE4F88819981C150D140F2
:105BC00001972817390708F478C02A8127FF24C0D5
:105BD000243F11F1253F01F1293FF1F02D3F99F0CC
:105BE000822F90E0203F10F4807F9070803F9105DD
:105BF00051F4CD5FDE4F198218821A921A92C15069
:105C0000D14018825EC02D3F39F0822F90E0203FB6
:105C100028F4807F907002C080E090E0CA5FDE4F81
:105C200099838883C650D1408A818F708F5FCB5F04
:105C3000DE4F8883C550D1408B81C85FDE4F88839B
:105C4000279788819981C150D140FE01E75FFE4FBF
:105C5000039719F48C81808301C01082CD5FDE4FE1
:105C6000198218821A921A92C85FDE4F81E08883E7
:105C7000C350D14088819981C650D140803B910565
:105C8000B1F0813B910554F48039910581F0803A5F
:105C9000910569F08038910569F409C0803D91054E
:105CA00031F0803E910519F0803C910519F48A810C
:105CB000888301C0188281E005C02F5F3F4F318388
:105CC000208380E0DF91CF910895CF93DF93EC01A3
:105CD0006131D8F40E945C2C8823B9F0CA5FDE4F92
:105CE00088819981C650D140009779F080589040C2
:105CF0008136910570F49981CB5FDE4F8881C55064
:105D0000D140891731F0992321F080E0DF91CF91C4
:105D10000895CE010E94312B81E0F8CFFC01618112
:105D20000E94652E0895FF920F931F938C01F62E0B
:105D300083EF98E042E15AE760E070E00E94B830FB
:105D4000F801F18210820D5F1E4FF801118210825E
:105D5000129212928F01085F1E4FF80110820350B9
:105D60001140F8011182108212928F010D5F1F4FB6
:105D7000F801119210821F910F91FF900895CF9317
:105D8000DF93482F50E0CA018D53954DFC013491AB
:105D90004D55554DFA018491882369F190E0880FA3
:105DA000991FFC01EB57F54DA591B491FC01E1570A
:105DB000F54DC591D491662351F42FB7F8948C9189
:105DC000932F909589238C93888189230BC062300F
:105DD00061F42FB7F8948C91932F909589238C932D
:105DE0008881832B88832FBF06C09FB7F8948C913E
:105DF000832B8C939FBFDF91CF910895482F50E064
:105E0000CA018D51954DFC012491CA018D53954DC8
:105E1000FC0194914D55554DFA013491332309F409
:105E200040C0222351F1233071F0243028F4213076
:105E3000A1F0223011F514C02630B1F02730C1F0A6
:105E40002430D9F404C0809180008F7703C0809102
:105E500080008F7D8093800010C084B58F7702C052
:105E600084B58F7D84BD09C08091B0008F7703C059
:105E70008091B0008F7D8093B000E32FF0E0EE0FB3
:105E8000FF1FE157F54DA591B4912FB7F894662304
:105E900021F48C919095892302C08C91892B8C934D
:105EA0002FBF0895682F70E0CB018D51954DFC01F7
:105EB0002491CB018D53954DFC0144916D55754D49
:105EC000FB019491992319F420E030E03CC0222397
:105ED00051F1233071F0243028F42130A1F0223028
:105EE00011F514C02630B1F02730C1F02430D9F4B8
:105EF00004C0809180008F7703C0809180008F7DE7
:105F00008093800010C084B58F7702C084B58F7DE8
:105F100084BD09C08091B0008F7703C08091B0002C
:105F20008F7D8093B000892F90E0880F991F87564E
:105F3000954DFC01A591B4918C9120E030E0842333
:105F400011F021E030E0C901089508951F920F92E9
:105F50000FB60F9211242F933F934F938F939F93DC
:105F6000EF93FF938091C00082FD1DC04091C60059
:105F700020912308309124082F5F3F4F2F733070FA
:105F800080912508909126082817390771F0E09133
:105F90002308F0912408ED51F84F408330932408F2
:105FA0002093230802C08091C600FF91EF919F913A
:105FB0008F914F913F912F910F900FBE0F901F9097
:105FC000189508951F920F920FB60F9211242F93D8
:105FD0003F934F938F939F93EF93FF938091C800CC
:105FE00082FD1DC04091CE002091AB083091AC08DD
:105FF0002F5F3F4F2F7330708091AD089091AE08A6
:106000002817390771F0E091AB08F091AC08E55919
:10601000F74F40833093AC082093AB0802C08091C7
:10602000CE00FF91EF919F918F914F913F912F91D2
:106030000F900FBE0F901F901895E091FF08F09100
:106040000009E05CFF4F8191919120813181821B99
:10605000930B8F739070892B11F00E94A52FE09104
